:020000040800F2
:10000000D052002041020008114C00082F44000883
:100010000D4C0008CF130008CB5000080000000072
:10002000000000000000000000000000A54D0008D6
:10003000FF15000800000000414C0008A74D000813
:100040005B0200085B0200085B0200085B0200081C
:100050005B0200085B0200085B0200085B0200080C
:100060005B0200085B0200085B0200085B020008FC
:100070005B0200085B0200085B0200085B020008EC
:100080005B0200085B0200085B0200085B020008DC
:100090005B0200085B0200085B0200080116000812
:1000A0005B0200085B0200085B020008794E000852
:1000B0005B0200085B0200085B0200085B020008AC
:1000C0005B0200085B0200085B0200085B0200089C
:1000D0005B0200085B0200085B0200085B0200088C
:1000E0005B0200085B0200085B0200085B0200087C
:1000F0005B0200085B0200085B0200085B0200086C
:100100005B0200085B0200085B0200085B0200085B
:100110005B0200085B0200085B0200085B0200084B
:100120005B020008C51400085B0200085B020008BF
:100130005B0200085B0200085B0200085B0200082B
:100140005B0200085B0200085B0200085B0200081B
:100150005B0200085B0200085B0200085B0200080B
:100160005B0200085B0200085B0200085B020008FB
:100170005B0200085B020008B514000800000000E4
:100180005B0200085B02000800F002F800F049F88A
:100190000AA090E8000C82448344AAF10107DA45E2
:1001A00001D100F03EF8AFF2090EBAE80F0013F0EB
:1001B000010F18BFFB1A43F001031847BC61000090
:1001C000DC610000103A24BF78C878C1FAD8520721
:1001D00024BF30C830C144BF04680C6070470000C1
:1001E0000023002400250026103A28BF78C1FBD840
:1001F000520728BF30C148BF0B607047662905F021
:100200002C83002070471FB505F01DFB00F0A2FBFA
:1002100004000020002104F0F3FFE0601FBD10B5D2
:1002200010BD00F097FC1146FFF7EDFF04F09EFFB4
:1002300000F0B5FC03B4FFF7F2FF03BC00F0F8FCDC
:100240000948804709480047FEE7FEE7FEE7FEE76A
:10025000FEE7FEE7FEE7FEE7FEE7FEE704480549A6
:10026000054A064B70470000654E000889010008EA
:10027000D04C0020D0520020D04E0020D04E002084
:1002800053EA020C00F069802DE9F04B4FF00006B4
:10029000002B1FBFB3FA83F503FA05F424FA05F621
:1002A0005E4012BF1643B2FA82F502FA05F4C5F1B8
:1002B00020051EBF22FA05FC44EA0C04203556EA4C
:1002C000044C4FEA144418BF641C4FF000084FF070
:1002D0000009904271EB030C39D3002919BFB1FA20
:1002E00081F701FA07F6B0FA80F700FA07F6C7F1CE
:1002F00020071EBF20FA07FC46EA0C062037B6FB93
:10030000F4FCA7EB0507103F07F01F0BCBF120060D
:100310000CFA0BFB2CFA06F644BFB3460026202F3E
:10032000A4BF5E464FF0000B5BEA060C08BF4FF01F
:10033000010B19EB0B09ABFB027C48EB0608C01B59
:1003400006FB02CC0BFB03CC71EB0C01C1E70B46A7
:10035000024641464846BDE8F08B13B54FF0000019
:100360004FF00001AFF30080BDE81C407047000073
:100370000FB41CB5074B06AA7B446946009005984C
:1003800000F0CFFA0020694600F0DEFA1CBC5DF8F0
:1003900014FB0000CD0500002DE9F0474FF0000AE6
:1003A00089460446C0F820A02046E1688847002816
:1003B00076D0252806D0D4E901219047206A401C38
:1003C0002062F1E7E168204600258847C4F81CA0B8
:1003D00006460027C4F818A02A2E09D0304604F09B
:1003E000ABFE38B304EB8708303EC8F8186019E05C
:1003F00059F8041B204604EB87029161E1688847A5
:10040000012F064618D1E069002820DA25F02005E2
:100410001DE0D8F8180000EB800006EB40003038F3
:10042000C8F818002046E1688847064604F084FEB4
:100430000028EED1012F0AD02E2E08D12046E168E7
:1004400088477F1C0646022F45F02005C4DBA069C3
:10045000002803DA404245F00105A061E80701D019
:1004600025F01005B6B1A6F14100192802D82036B2
:1004700045F400654A463146204625604D46FFF763
:10048000BDFE58B1012806D0ED1D25F0070000F192
:10049000080989E704E005F1040985E730468AE7A1
:1004A000206ABDE8F0874FF0000200B5134694467D
:1004B0009646203922BFA0E80C50A0E80C50B1F1BC
:1004C0002001BFF4F7AF090728BFA0E80C5048BFD0
:1004D0000CC05DF804EB890028BF40F8042B08BF6E
:1004E000704748BF20F8022B11F0804F18BF00F86A
:1004F000012B704770477047704770472DE9FF4FD9
:100500000C461E464FF0FF378BB0D2E90001DDF8F4
:1005100060800A908A46C1F30A5505B93D4600211C
:1005200008464FF00000BAF1000F00F4400005DA71
:1005300000EB80004FF4400101EA50004FEA90596F
:10054000B9F1010F00DDB9460A9850EA4A000ED011
:1005500044F61050A5F2FF3545432F14B8F1000FB3
:100560001ED07542291E1EDDC9F100021CE0B8F143
:10057000010F4FF0000001D0302103E0F24305E00D
:100580002154401CB042FBDB3046002200212154A4
:100590000B99C1F80880C1E900200FB0BDE8F08FC9
:1005A000BD1B6D1CDEE74A4600DA694206A800F072
:1005B0005BFA06AB93E8070003AB83E807005046FD
:1005C0000A9900F03CFB8DE80700A0F500501F38A9
:1005D00000900398002D0ADD42F21F014A460844AC
:1005E000002303A90390684600F0A5FD09E0A0F5EB
:1005F00000504A461F38002303A90390684600F0C4
:10060000AFFD8DE807000004000C03D04FF0FF3071
:10061000410800E01046B8F1000F03D0002200921C
:1006200015461EE0751E05D400F098F9303262556B
:100630006D1EF9D5B3460122084302D000227F1C6B
:1006400004E02078302801D100227F1E002A09977B
:1006500084D01DE0112D07DA00F080F930326255A8
:100660006D1C50EA0102F5D1084302D00098C8B1D0
:100670000EE00021681E05E0235C625C6354225496
:10068000401E491C8142F7DBAB46A81B401E099067
:10069000002004F80B000B98099AC0F80880C0E904
:1006A000002B7AE711264FF0000857E72DE9F04FAD
:1006B00088460446D21D22F0070191B0D1E900011D
:1006C000CDE90A0104F003FD02460B98C00F01D0EA
:1006D0002D2007E02068810701D52B2002E0202192
:1006E00001EAC000032A099001D0072A05DB03466E
:1006F0004146204600F078F90BE12078800601D5CC
:10070000E06900E00620B8F1650F814606D0B8F137
:10071000660F18D0B8F1670F70D131E00020B9F141
:10072000110F009001DB112301E009F101030AAA76
:1007300001A90CA8FFF7E2FEDDE90C70002609F123
:100740000105834647E001204B4600904FF00047EB
:100750000AAA01A90CA8FFF7D1FEDDE90DB00C999A
:100760005D46002610B909F101000D18B9EB05002E
:1007700003D4C0F1FF3609F10105A5EB09002BE018
:10078000B9F1010F01DA4FF001090020B9F1110FA1
:100790000090484601DD112300E003460AAA01A9A2
:1007A0000CA8FFF7ABFEDDE90C704D460026834632
:1007B000207800070AD4AB4500DA5D4601A8012D78
:1007C00004DD411911F8011C302907D04F4502DA28
:1007D00017F1040F04DA012082460FE06D1EEEE7E8
:1007E000002F02DCED1B3E4403E0781CA84200DD34
:1007F0007D1CB81B00F1010A4FF00047207800076C
:1008000003D4AA4501DB4FF0FF3A0021B7F1004FB6
:100810000DF143088DF8431024D002202B23002F24
:1008200001DA7F422D230A21021EA0F1010000DC23
:100830005FB197FBF1FC97FBF1F201FB1C7C1746C3
:100840000CF1300C08F801CDEEE7A8F101000370BF
:100850002188090501D5452100E06521A0F10108A5
:1008600000F8011C09980FA9A1EB0807FF1D00B1B2
:100870000120411901EBEA70A1693844081A401EB1
:10088000A0612078C00602D42046AFF3008009980A
:1008900028B1D4E901219047206A401C20622078C9
:1008A000C00622D52046AFF300801EE0002E04DBF8
:1008B000B34502DD01A8805D00E03020D4E90121CC
:1008C0009047206A401C2062761CAAF101005FEA72
:1008D000000A0AD100F03EF8C0680168405CD4E923
:1008E00001219047206A401C2062281EA5F10105C5
:1008F000DCDC07E0D4E9012118F8010B9047206AFD
:10090000401C2062381EA7F10107F3DC2046AFF33C
:100910000080032011B041E601694A1C0261087899
:10092000704700B58FB0CDE901310021059105492F
:100930007944CDE9031011466846FFF72DFD0FB04D
:1009400000BD0000E5FFFFFF0A6802F8010B0A6026
:100950007047000000487047904C002030B5B0F15F
:100960000A024FEA900E71F100034EEA817EB0EB6D
:100970000E0061EB91014FEA101E4EEA017E10EB72
:100980000E0041EB11114FEA102E4EEA016E10EBF2
:100990000E0041EB11214FEA104E4EEA014E10EBD2
:1009A0000E0041EB1141401841F100014FEAD00027
:1009B00040EA41704FEAD10110EB80054FEA810413
:1009C00044EA907444EB01046D1944EB0404521B97
:1009D000A3414FF0000348BF0A3200D530BD401C90
:1009E00041F1000130BD00002DE9F0411F460446F1
:1009F00003260168072A01F4006004DB08B116A58C
:100A000005E016A503E008B115A500E015A521F045
:100A100010002060A069C01EA0610FB1401EA0613F
:100A20002046AFF300804FB1D4E90121384690470A
:100A3000206A401C2062C01C206206E0206AFAE79F
:100A4000D4E9012115F8010B9047761EF8D2204613
:100A5000AFF30080BDE8F0814E414E006E616E0044
:100A6000494E4600696E66002DE9F04781461646FC
:100A70008AB0354878440DC88DE80D003248784476
:100A8000801C03AC0DC884E80D0041F69B3008447F
:100A9000372190FBF1F290FBF1F5A5F1800501FB08
:100AA00012041B3C02D56442012000E00020DFF864
:100AB00098A080460027FA44AAF1BE0A0EE0E0079B
:100AC0000AD03246684607EB470101230AEB810151
:100AD00000F046FB8DE8070064107F1C002CEED16F
:100AE000194F7F44AE3F19E0E80715D007EB04101B
:100AF0000DF1180A90E80E008AE80E00C068F04276
:100B000001D1981908903246012306A903A800F0E4
:100B100027FB03AB83E807006D10641C002DE3D1B5
:100B20004FF0010332466946B8F1000F03A802D026
:100B300000F001FB01E000F013FBC9E90001C9F876
:100B400008200AB0BDE8F087E85800000048704768
:100B5000704C00207546FFF7F9FFAE460500694668
:100B6000534620F00700854618B020B5FFF776FB06
:100B7000BDE820404FF000064FF000074FF000089E
:100B80004FF0000B21F00701AC46ACE8C009ACE81F
:100B9000C009ACE8C009ACE8C0098D46704710B583
:100BA0000446AFF300802046BDE81040FFF742BB8B
:100BB0004FF0013C50F8042B51F8043B9A4221D1EC
:100BC000A2EB0C03934313EACC1317D150F8042B78
:100BD00051F8043B9A4215D1A2EB0C03934313EA5C
:100BE000CC130BD150F8042B51F8043B9A4209D195
:100BF000A2EB0C03934313EACC13DBD04FF00000BD
:100C0000704700BFD01A01BAB1FA81F101F01801A2
:100C100022FA01F0CB40C1F12001DBB2C0B2C01A10
:100C20002CFA01F3D11A914311EAC311E6D17047AE
:100C300001491820ABBEFEE72600020070475FEABC
:100C4000400C08BF91F0000F4FEA8C234FEAC122FD
:100C500043EA51514FEA1C5018BF00F5F0404FEAEB
:100C6000300018BF41F000415FEA6C5C00F0298061
:100C7000BCF1FF3F08BF40F080407047130C06BF37
:100C800012044FF0100C4FF0000C130E04BF1202B0
:100C90000CF1080C130F04BF12010CF1040C930F9C
:100CA00004BF92000CF1020CD30F04BF52000CF1F0
:100CB000010C11464FF00002A0F11F00A0EB0C0048
:100CC000704711F0004F08BF704731F000413FF40A
:100CD000D5AF0B0C06BF09044FF0100C4FF0000C01
:100CE0000B0E04BF09020CF1080C0B0F04BF090125
:100CF0000CF1040C8B0F04BF89000CF1020CCB0F1C
:100D000004BF49000CF1010CCCF12003A0EB0C0056
:100D100022FA03F302FA0CF241EA030100F10100A6
:100D2000704720F07F4C80EA030023F07F47ACEB54
:100D3000070303F57C5300F0004003F1FF032DE9A6
:100D400080494FEA154B09B44FEA144325EA0B4E8C
:100D500024EA03480FF2042606EB132749083E78DD
:100D60005FEA320203FB0667C7F5000707FB06F6DA
:100D70004FEA54374FEAD64606F1020607FB066CE7
:100D8000CCF1005C4FEA1C472CEA074C07FB06F449
:100D90000CFB06F504EB15464FEA961634BF00200F
:100DA0004FF000404FEAD13706FB07FC4FEA1C4CDE
:100DB0000CFB0BF7D21B03FB0CF761EB07010CFBE1
:100DC0000EF7B0EB074072EB17420CFB08F734BF8D
:100DD000A2EB0742B2EB074261EB17414FEA0C442A
:100DE0004FEA910706FB07FC4FEA1C4C0CFB0BF784
:100DF000B0EBC74072EB573203FB0CF734BFA2EBEA
:100E0000C742B2EBC74261EB57310CFB0EF7B0EBB8
:100E1000C70072EB57720CFB08F734BFA2EBC70296
:100E2000B2EBC70261EB5771039F4FEA816141EA60
:100E3000921104EBCC044FEAD1374FEA826206FBF1
:100E400007FC42EA90124FEA80604FEA1C4C0CFB10
:100E50000BF7D21B03FB0CF761EB07010CFB0EF742
:100E6000B0EB074072EB17420CFB08F734BFA2EB64
:100E70000742B2EB074261EB17414FEA8C554FEA4C
:100E8000910704EB9C2406FB07FC4FEA1C4C0CFB6F
:100E90000BF7B0EBC74072EB573203FB0CF734BFD4
:100EA000A2EBC742B2EBC74261EB57310CFB0EF726
:100EB000B0EBC70072EB57720CFB08F734BFA2EB24
:100EC000C702B2EBC70261EB577115EB4C254FEA35
:100ED000816141EA92114FEA82624FEAD13742EAD8
:100EE000901206FB07FC44F100044FEA80604FEAD1
:100EF0001C4C0CFB0BF7D21B03FB0CF761EB07013F
:100F00000CFB0EF7B0EB074072EB17420CFB08F737
:100F100034BFA2EB0742B2EB074261EB174115EB7E
:100F20001C154FEA813141EA92414FEA823242EA8E
:100F300090424FEA80304FEA0C7644F1000448EAD0
:100F400003434EEA0B484FF0000EB2EB080C71EB76
:100F5000030724BF624639464EEB0E0E4FF0000BDE
:100F60000018524149414BEB0B0BB2EB080C71EBF3
:100F700003077BF1000B24BF624639464EEB0E0E91
:100F80004FF0000B0018524149414BEB0B0BB2EBF9
:100F9000080C71EB03077BF1000B24BF6246394656
:100FA0004EEB0E0E51EA020718BF46F0010616EB93
:100FB0000E7655F1000254F1000103D5BDE8890118
:100FC000BDE80088BDE88901BDE80048B619524176
:100FD00041EB0101A3F10103704780807F7E7D7C9E
:100FE0007B7A7978777676757473727171706F6EBB
:100FF0006E6D6C6C6B6A6A69686867666665646466
:10100000636362616160605F5F5E5E5D5D5C5C5BEF
:101010005B5A5A595958585757565655555554545E
:10102000535352525251515050504F4F4F4E4E4DBC
:101030004D4D4C4C4C4B4B4B4A4A4A494949484808
:101040004847474747464646454545444444444348
:1010500043434342424242414141002B9C4630D4EB
:1010600077002BD01CB54FEA370703B44FF01000C0
:101070004FF01001BAF1000F06D0BCF1000FDCBF39
:1010800040F0080040F008014FF000000FBCBDE840
:1010900010400BF1010BBBF1010F08BF5FEA17070E
:1010A00022BF12F1010211F101014FF0004143F1A1
:1010B000000300F0004043EA00007047F9D35708EE
:1010C000D0E746EA064613F1400F4FEA16461FDD09
:1010D00013F1200FDFBF16430A46002120335B4285
:1010E000BED0C3F1200746EA064602FA07F74FEAE8
:1010F000164646EA0706C3F1200722FA03F201FA70
:1011000007F721FA03F14FF0000342EA0702A7E7CD
:1011100046EA020646EA06464FEA164646EA01064F
:10112000BCBF46EA0646360C4FF000034FF0000203
:101130004FF0000194E72DE9804C9A46934670B435
:1011400091E8380007C831EA400C48BF34EA430C44
:1011500003D5FFF7E6FDFFF780FFF0BCBDE8008C8C
:101160002DE9804C9A46934670B491E8380007C840
:1011700010F0804F08BF13F0804F03D100F005F846
:10118000FFF76BFFF0BCBDE8008C20F07F4780EAE2
:10119000030023F07F4C07EB0C03A3F57C5300F016
:1011A0000040A3F1FE0392F0000F00F0B38095F031
:1011B000000F00F077802DE901494FEA11404FEA16
:1011C000144621EA004800FB06FC24EA064708FB17
:1011D00006F607FB08F800FB07F718EB06484CEB90
:1011E000164C4FEA124B18EB07484FEA15464CEBEA
:1011F000174022EA0B4E0BFB06FC25EA06470EFBC6
:1012000006F607FB0EFE0BFB07F71EEB064E4CEB3C
:10121000164C4FF000061EEB074E4CEB174B18EB2D
:101220000B0840F1000018EB0E0B58EB000840F1E2
:1012300000008F1A4FF000013CBFC943661B14BF6A
:10124000B5EB040C00213CBFC943F61B4FEA174421
:101250004EEA8E0E27EA04454FEA1C4704FB07625C
:101260002CEA074C05FB07F70CFB05F604FB0CFC0E
:1012700016EB074642EB174216EB0C4642EB1C42BC
:101280001BEB060658EB0202414146EA9E0601D5D9
:10129000BDE80189B619524141EB0101A3F10103F7
:1012A000BDE801894FEA14454FEA114724EA054693
:1012B00021EA074C05FB07F406FB07F70CFB06F1D8
:1012C00005FB0CFC11EB074144EB17444FEA1247B6
:1012D00011EB0C4144EB1C4422EA074C05FB07F2DE
:1012E00006FB07F70CFB06F605FB0CFC16EB0746A6
:1012F00042EB174216EB0C4642EB1C456A1854F1C0
:10130000000148BF7047B619524141EB0101A3F1FA
:101310000103704795F0000F37D04FEA11424FEAB2
:10132000144721EA024624EA074C02FB07F106FBB8
:1013300007F70CFB06F402FB0CFC14EB074441EB33
:1013400017414FEA154714EB0C4441EB1C4125EAC9
:10135000074C02FB07F506FB07F70CFB06F602FB42
:101360000CFC16EB074645EB174516EB0C4645EB18
:101370001C42121951F1000148BF7047B619524181
:1013800041EB0101A3F1010370474FEA14454FEA15
:10139000114724EA054621EA074C05FB07F106FB45
:1013A00007F70CFB06F24FF0000605FB0CFC12EBF6
:1013B000074241EB174112EB0C4251EB1C4148BF75
:1013C0007047921841EB0101A3F10103704700BF80
:1013D000FEE770B50546AC6BA06B406D022802D0ED
:1013E000012084F82500204600F012F970BD70B588
:1013F00006460025B46BA06A68B3A06B006800685D
:1014000000F40025A06A00F0010078B975B1A06B66
:101410000068C568E26A082303FB02510022A06B42
:1014200000F041FBA06A401EA0622FE0A06B0068A4
:10143000006800F4002048BBA06B00680569E26A00
:10144000082303FB02510122A06B00F02CFBA06AD1
:10145000401EA0621AE0A06B0068006800F4002043
:1014600020B1D4E90D010968C8600FE0A06B0068E5
:10147000006800F4002048B9656BE06A042101FBB4
:101480000050A16B09680861206BA062A06A216B03
:1014900088420ED12068C06840F001002168C86011
:1014A0002068006800F00200022802D1012084F8C0
:1014B000250070BD10B5024800F0B8F810BD00005E
:1014C0003000002010B5024801F04CFB10BD0000B8
:1014D000700000200146087810381823B0FBF3F2A2
:1014E0000848805CC865032A05D908686FF30900BD
:1014F000001D886503E008686FF309008865886D42
:10150000704700005E580008014600208A6A8B6917
:10151000CBB932B1012A0DD0022A03D0032A10D14F
:101520000EE000BFCB6A03F08073B3F1807F00D17F
:10153000012007E0CB6AB3F1C07F00D1012001E0B8
:1015400000E000BF34E08B69B3F5005F1AD132B11F
:10155000012A07D0022A03D0032A11D10AE000BFD2
:1015600001200EE0CB6A03F08073B3F1807F00D1DD
:10157000012006E0CB6AB3F1C07F00D1012000E07A
:1015800000BF15E032B1012A05D0022A04D0032A97
:101590000CD103E000BF00BF012008E0CB6A03F0DC
:1015A0008073B3F1807F00D1012000E000BF00BF55
:1015B000704710B5046863608468402C04D10468E7
:1015C000A2600468E16003E00468A1600468E2606E
:1015D00010BD30B50468246824F4802405682C60AC
:1015E000046863608468402C04D10468A2600468C5
:1015F000E16003E00468A1600468E26030BD704708
:1016000010B5402001F0B8FC10BD72B600BFFEE777
:1016100070470000034A0168914202D10121024A49
:1016200011707047000005500200002070B504469C
:101630002068056905F00400042812D1216848617A
:10164000E06B40F00200E063042084F825002648A7
:10165000A16B0865A06B01F071FA10B1A06BFFF7E8
:10166000B8FE05F00200022812D121684861E06B43
:1016700040F00100E063042084F825001A48A16BC3
:101680000865A06B01F05AFA10B1A06BFFF7A1FE3C
:1016900005F01000102804D121684861204600F0B0
:1016A0006EF805F00800082804D12168486120463A
:1016B00000F0F8F905F00100A0B12068006800F022
:1016C0000200022805D12068C06820F01E002168B1
:1016D000C8602068C06820F001002168C86020460A
:1016E000FFF798FF70BD0000D313000810B5044643
:1016F0000CB9012010BD94F8250040B9002084F8F1
:101700002400204600F03CF8204600F039F8022082
:1017100084F825002068006840F6F8718843216845
:101720000860616960680843E1680843216908430B
:10173000A1680843A1690843216A08432168096830
:10174000084321680860606810280BD1217F607F02
:1017500041EA0021A07F41EA0041E07F41EA0060C8
:10176000216888612068C06840F01E002168C86058
:101770000020E063012084F825000020BAE77047CC
:1017800010B586B00446142101A8FEF78CFE5E4910
:10179000206888427ED100BF002000905B4800682E
:1017A00040F00100594908600846006800F0010057
:1017B000009000BF00BF00BF00200090081F00681D
:1017C00040F01000091F08600846006800F0100093
:1017D000009000BF00BF00BF0020009008460068D6
:1017E00040F0010008600846006800F00100009029
:1017F00000BF00BF00BF002000900846006840F016
:10180000040008600846006800F00400009000BF73
:1018100000BF00BF002000900846006840F00200B2
:1018200008600846006800F00200009000BF00BF9A
:101830007020019002200290012003900320049068
:101840000D20059001A9324801F0A4FB5020019021
:101850000220029001200390032004900D200590A7
:1018600001A92C4801F096FB4FF470700190022002
:10187000029001200390032004900D20059001A9FF
:10188000254801F087FBC020019002200290012032
:10189000039000E035E0032004900D20059001A99D
:1018A0001E4801F077FB1E481E4908604FF000708B
:1018B000486000211B488160C1604FF48061016174
:1018C00089004161490081614911C1614902016298
:1018D00004214162032181620021C162016301F0A0
:1018E00061FA08B1FFF791FE00BF0E48A063846360
:1018F00000BF002202214E2001F0DAFC4E2001F050
:10190000C3FC06B010BD0000000005503438024092
:1019100000100240000002400008024000040240A3
:1019200028640240700000202DE9F84304468846F0
:1019300015461E464FF0000900BF94F82400012808
:1019400002D10220BDE8F883012084F8240000BF02
:10195000022084F825002068006840F48040216857
:1019600008602068006820F0020021680860206894
:10197000006840EA0800216808602548A16BC86338
:101980002448A16BC8640020A16B0865A062206395
:10199000B6F5803F09D2226802F1280133462A4673
:1019A000A06B01F075FA074625E01948A16B486461
:1019B0000120A062E662656305E0E06A4008E0623B
:1019C000A06A4000A062E06AB0F5803FF5D2A06A4C
:1019D000801EA062A06A2063E06A042101FB005916
:1019E000E06A0090226802F128014B462A46A06B6B
:1019F00000F062F807462068006840F001002168A6
:101A0000086000BF002084F8240000BF384699E732
:101A1000EF130008D313000838B5044620480068C7
:101A20000E21B0FBF1F00090002500BF94F82400D7
:101A3000012801D1022038BD012084F8240000BF14
:101A4000022084F825002068006820F00100216849
:101A5000086000BF0098411E009128B9E06B40F07B
:101A60002000E063032505E02068006800F0010025
:101A70000028EFD100BF2068006820F48040216872
:101A80000860A06B01F004F8E06BE063012084F8CB
:101A9000250000BF002084F8240000BF2846CAE7C4
:101AA000100000207047034612B91868C16001E0B9
:101AB00018680161002070472DE9F04704460E4682
:101AC00017461D46DDF820804FF00009A0688028E9
:101AD00004D1400060650120BDE8F087E06B18B1DB
:101AE000606C08B1E06C18B9402060650120F3E734
:101AF00000BF94F83400012801D10220ECE7012056
:101B000084F8340000BF94F83500012873D1022016
:101B100084F83500002060652068006840F480206B
:101B2000216808602068056143463A4631462046F0
:101B3000FFF73FFDFA49206888425DD9F9492068DE
:101B4000884201D1202052E0F54948392068884276
:101B500001D120204BE0F34960312068884201D157
:101B6000202044E0EE4918312068884201D120202D
:101B70003DE0EC4918312068884201D1C01436E0BC
:101B8000E74930392068884201D1C0142FE0E54987
:101B900078312068884201D1C01428E0E049303112
:101BA0002068884201D1C01421E0DE49303120682C
:101BB000884202D14FF4001019E0D9491839206841
:101BC000884202D14FF4001011E0D64990312068CC
:101BD000884202D14FF4001009E0D1494831206811
:101BE000884202D14FF4001001E04FF00060CC4970
:101BF0004C39086020E1EFE3CA49A83120688842E7
:101C00005CD9C8492068884201D1202052E0C449EB
:101C100048392068884201D120204BE0C149603119
:101C20002068884201D1202044E0BD491831206855
:101C3000884201D120203DE0BA491831206888420D
:101C400001D1C01436E0B64930392068884201D14C
:101C5000C0142FE0B34978312068884201D1C01404
:101C600028E0AF4930312068884201D1C01421E01A
:101C7000AC4930312068884202D14FF4001019E09D
:101C8000A74918392068884202D14FF4001011E0AA
:101C9000A44990312068884202D14FF4001009E035
:101CA0009F4948312068884202D14FF4001001E07A
:101CB0004FF000609A4950390860BDE099494831B9
:101CC000206888425CD997492068884201D1202049
:101CD00052E0934948392068884201D120204BE0E6
:101CE000904960312068884201D1202044E08C492D
:101CF00018312068884201D120203DE089491831FF
:101D00002068884201D1C01436E085493039206806
:101D1000884201D1C0142FE082497831206888427E
:101D200001D1C01428E07E4930312068884201D1B9
:101D3000C01421E07B4930312068884202D14FF441
:101D4000001019E0764918392068884202D14FF412
:101D5000001011E0734990312068884202D14FF49D
:101D6000001009E06E4948312068884202D14FF4E2
:101D7000001001E04FF000606A491039C8605BE074
:101D800068492068884201D1202052E064494839DE
:101D90002068884201D120204BE0624960312068F0
:101DA000884201D1202044E05D49183120688842F2
:101DB00001D120203DE05B4918312068884201D1E3
:101DC000C01436E0564930392068884201D1C01429
:101DD0002FE0544978312068884201D1C01428E0AE
:101DE0004F4930312068884201D1C01421E04D496B
:101DF00030312068884202D14FF4001019E0484980
:101E000018392068884202D14FF4001011E045498A
:101E100090312068884202D14FF4001009E0404917
:101E200048312068884202D14FF4001001E04FF0A1
:101E300000603C49103988603949206888425CD983
:101E400038492068884201D1102052E0344948398D
:101E50002068884201D110204BE03249603120686F
:101E6000884201D1102044E02D4918312068884271
:101E700001D110203DE02B4918312068884201D162
:101E8000001536E0264930392068884201D1001516
:101E90002FE0244978312068884201D1001528E0DC
:101EA0001F4930312068884201D1001521E01D49C9
:101EB00030312068884202D14FF4801019E018496F
:101EC00018392068884202D14FF4801011E015497A
:101ED00090312068884202D14FF4801009E0104907
:101EE00048312068884202D14FF4801001E04FF061
:101EF00080600B494C39086020E10A49A83120680C
:101F000088425FD907492068884201D1102055E0F6
:101F1000034948392068884206D110204EE000006D
:101F20005864024010600240F8492068884201D19C
:101F3000102043E0F6492068884201D110203DE09E
:101F4000F24948392068884201D1001536E0F0494D
:101F500048392068884201D100152FE0EB4918313B
:101F60002068884201D1001528E0E949183120682D
:101F7000884201D1001521E0E449303920688842C7
:101F800002D14FF4801019E0E149303920688842CD
:101F900002D14FF4801011E0DC49303120688842D2
:101FA00002D14FF4801009E0D949303120688842CD
:101FB00002D14FF4801001E04FF08060D4496839BD
:101FC0000860BBE0D1491839206888425BD9CF4905
:101FD00060392068884201D1102050E0CC49603936
:101FE0002068884201D1102049E0C8492068884211
:101FF00001D1102043E0C6492068884201D1102059
:102000003DE0C24948392068884201D1001536E0D8
:10201000BF4948392068884201D100152FE0BB49EB
:1020200018312068884201D1001528E0B8491831DC
:102030002068884201D1001521E0B4493039206878
:10204000884202D14FF4801019E0B149303920683C
:10205000884202D14FF4801011E0AC493031206841
:10206000884202D14FF4801009E0A949303120683C
:10207000884202D14FF4801001E04FF08060A34904
:102080007039C8605AE0A14960392068884201D19E
:10209000102050E09E4960392068884201D110200C
:1020A00049E09A492068884201D1102043E09849CC
:1020B0002068884201D110203DE0944948392068C9
:1020C000884201D1001536E091494839206888429C
:1020D00001D100152FE08D4918312068884201D1C7
:1020E000001528E08A4918312068884201D100157E
:1020F00021E0864930392068884202D14FF48010AF
:1021000019E0834930392068884202D14FF48010A9
:1021100011E07E4930312068884202D14FF48010AE
:1021200009E07B4930312068884202D14FF48010A9
:1021300001E04FF080607549703988607449183942
:10214000206888425BD9714960392068884201D192
:10215000082050E06E4960392068884201D108208B
:1021600049E06A492068884201D1082043E0684973
:102170002068884201D108203DE064494839206840
:10218000884201D1401536E06149483920688842CB
:1021900001D140152FE05D4918312068884201D1F6
:1021A000401528E05A4918312068884201D140156D
:1021B00021E0564930392068884202D14FF400208E
:1021C00019E0534930392068884202D14FF4002089
:1021D00011E04E4930312068884202D14FF400208E
:1021E00009E04B4930312068884202D14FF4002089
:1021F00001E04FF000704649643908601FE143492F
:102200004831206888425BD940496039206888425B
:1022100001D1082050E03E4960392068884201D150
:10222000082049E039492068884201D1082043E06C
:1022300037492068884201D108203DE033494839B8
:102240002068884201D1401536E03149483920687C
:10225000884201D140152FE02C491831206888426E
:1022600001D1401528E02A4918312068884201D15F
:10227000401521E0254930392068884202D14FF4C9
:10228000002019E0224930392068884202D14FF4F9
:10229000002011E01D4930312068884202D14FF4FE
:1022A000002009E01A4930312068884202D14FF4F9
:1022B000002001E04FF00070154968390860BEE069
:1022C00012491839206888425DD910496039206860
:1022D000884201D1082052E00D49603920688842C7
:1022E00001D108204BE009492068884201D108202B
:1022F00045E007492068884201D108203FE00349B2
:1023000048392068884205D1401538E070600240A5
:1023100070640240FA492068884201D140152EE0DD
:10232000F8492068884201D1401528E0F44960311D
:102330002068884201D1401521E0F24948392068DF
:10234000884202D14FF4002019E0ED49183120688D
:10235000884202D14FF4002011E0EA491831206888
:10236000884202D14FF4002009E0E5497831206825
:10237000884202D14FF4002001E04FF00070E149A3
:102380008839C8605BE0DF4978392068884201D12C
:10239000082051E0DA4918392068884201D1082024
:1023A0004AE0D84918392068884201D1082043E022
:1023B000D34948312068884201D108203CE0D14906
:1023C00060392068884201D1401535E0CC49206849
:1023D000884202D140152FE04CE3CA492068884268
:1023E00001D1401528E0C64960312068884201D1FA
:1023F000401521E0C34948392068884202D14FF492
:10240000002019E0BE4918312068884202D14FF4FB
:10241000002011E0BB4918312068884202D14FF4F6
:10242000002009E0B64978312068884202D14FF493
:10243000002001E04FF00070B24988398860B0494F
:102440003031206888425BD9AE49783920688842AB
:1024500001D1042050E0AA4918392068884201D1EE
:10246000042049E0A74918392068884201D1042096
:1024700042E0A34948312068884201D104203BE072
:10248000A04960392068884201D1801534E09C4918
:102490002068884201D180152EE09A492068884240
:1024A00001D1801528E0964960312068884201D129
:1024B000801521E0934948392068884202D14FF4C1
:1024C000802019E08E4918312068884202D14FF4EB
:1024D000802011E08B4918312068884202D14FF4E6
:1024E000802009E0864978312068884202D14FF483
:1024F000802001E04FF0807081491C3908601EE1A6
:1025000080493031206888425BD97E49783920681B
:10251000884201D1042050E0794918392068884266
:1025200001D1042049E0774918392068884201D157
:10253000042042E0724948312068884201D10420D9
:102540003BE0704960392068884201D1801534E051
:102550006B492068884201D180152EE069492068C6
:10256000884201D1801528E06549603120688842A1
:1025700001D1801521E0634948392068884202D1A1
:102580004FF4802019E05E4918312068884202D15A
:102590004FF4802011E05B4918312068884202D155
:1025A0004FF4802009E0564978312068884202D1F2
:1025B0004FF4802001E04FF08070514920390860CD
:1025C000BDE050493039206888425BD94D4978399F
:1025D0002068884201D1042050E049491839206818
:1025E000884201D1042049E04649183920688842D0
:1025F00001D1042042E0424948312068884201D19B
:1026000004203BE03F4960392068884201D18015B1
:1026100034E03B492068884201D180152EE03949D9
:102620002068884201D1801528E035496031206852
:10263000884201D1801521E032494839206888421A
:1026400002D14FF4802019E02D49183120688842CA
:1026500002D14FF4802011E02A49183120688842C5
:1026600002D14FF4802009E0254978312068884262
:1026700002D14FF4802001E04FF080702149883969
:10268000C8605CE01F4978392068884201D1042085
:1026900052E01B4918392068884201D104204BE0E0
:1026A000184918392068884201D1042044E01449AF
:1026B00048312068884201D104203DE01149603949
:1026C0002068884201D1801536E00D492068884293
:1026D00001D1801530E00B492068884201D1801576
:1026E0002AE0074960312068884201D1801523E043
:1026F000044948392068884206D14FF480201BE005
:102700002864024088600240DF492068884202D184
:102710004FF4802010E0DD492068884202D14FF458
:10272000802009E0D84960312068884202D14FF406
:10273000802001E04FF08070D449A0398860D249F0
:102740001831206888425BD9D04990392068884286
:1027500001D1012050E0CC4930392068884201D1B4
:10276000012049E0C94930392068884201D101205F
:1027700042E0C54930312068884201D101203BE068
:10278000C24978392068884201D1402034E0BE49EE
:1027900018392068884201D140202DE0BB49183902
:1027A0002068884201D1402026E0B749483120689E
:1027B000884201D140201FE0B44960392068884236
:1027C00002D14FF4803017E0AF492068884202D12F
:1027D0004FF4803010E0AD492068884202D14FF4B8
:1027E000803009E0A84960312068884202D14FF466
:1027F000803001E04FF48000A349343908601CE1C7
:10280000A2491831206888425BD9A04990392068D4
:10281000884201D1012050E09B493039206888422C
:1028200001D1012049E0994930392068884201D11D
:10283000012042E0944930312068884201D10120D2
:102840003BE0924978392068884201D1402034E049
:102850008D4918392068884201D140202DE08B49EC
:1028600018392068884201D1402026E08649483145
:102870002068884201D140201FE0844960392068E7
:10288000884202D14FF4803017E07F4920688842A7
:1028900002D14FF4803010E07C492068884202D198
:1028A0004FF4803009E0784960312068884202D1D5
:1028B0004FF4803001E04FF48000734938390860EC
:1028C000BBE072494839206888425BD96F4990392A
:1028D0002068884201D1012050E06B4930392068DE
:1028E000884201D1012049E0684930392068884296
:1028F00001D1012042E0644930312068884201D191
:1029000001203BE0614978392068884201D14020AC
:1029100034E05D4918392068884201D140202DE01B
:102920005A4918392068884201D1402026E056498A
:1029300048312068884201D140201FE05349603966
:102940002068884202D14FF4803017E04E49206859
:10295000884202D14FF4803010E04C492068884210
:1029600002D14FF4803009E0474960312068884245
:1029700002D14FF4803001E04FF480004349A03988
:10298000C8605AE0414990392068884201D101204D
:1029900050E03D4930392068884201D1012049E0AA
:1029A0003A4930392068884201D1012042E0364955
:1029B00030312068884201D101203BE03349783929
:1029C0002068884201D1402034E02F49183920681E
:1029D000884201D140202DE02C49183920688842D6
:1029E00001D1402026E0284948312068884201D1A1
:1029F00040201FE0254960392068884202D14FF409
:102A0000803017E020492068884202D14FF480309E
:102A100010E01E492068884202D14FF4803009E05E
:102A2000194960312068884202D14FF4803001E0BA
:102A30004FF480001549A03988602068006840F094
:102A40001600216808602068406940F08000216815
:102A50004861206C08B9A06C28B12068006840F07B
:102A60000800216808602068006840F001002168C3
:102A7000086006E000BF002084F8340000BF4FF07B
:102A800002094846FFF728B840640240A0600240AF
:102A900070B50446A56D00F07DFB064694F8350040
:102AA000022808D08020606500BF002084F8340030
:102AB00000BF012070BD2068006820F0160021686A
:102AC00008602068406920F0800021684861206C1F
:102AD00008B9A06C28B12068006820F008002168BF
:102AE00008602068006820F001002168086010E09C
:102AF00000F050FB801B05280BD9202060650320C7
:102B000084F8350000BF002084F8340000BF0320A3
:102B1000D0E72068006800F001000028E8D194F8B0
:102B20005C103F208840A860012084F8350000BF79
:102B3000002084F8340000BF00BFBBE7014691F8D5
:102B40003500022803D08020486501207047052009
:102B500081F835000868006820F001000A681060FC
:102B60000020F3E7F8B50446002000908C48006888
:102B70004FF41651B0FBF1F7A56D2E6894F85C1078
:102B800008208840304098B12068006800F00400B8
:102B900070B12068006820F004002168086094F893
:102BA0005C1008208840A860606D40F001006065FE
:102BB00094F85C1001208840304068B1206840697A
:102BC00000F0800040B194F85C1001208840A860BB
:102BD000606D40F00200606594F85C10042088404D
:102BE000304068B12068006800F0020040B194F8FD
:102BF0005C1004208840A860606D40F004006065AF
:102C000094F85C1010208840304078B32068006849
:102C100000F0080050B394F85C1010208840A860C1
:102C20002068006800F4802080B12068006800F40B
:102C3000002028B9206CC8B12046216C884715E0D7
:102C4000A06C98B12046A16C88470FE0206800680E
:102C500000F4807028B92068006820F0080021681E
:102C60000860206C10B12046216C884794F85C10F5
:102C7000202088403040002865D02068006800F09F
:102C8000100000285FD094F85C1020208840A860D5
:102C900094F83500052828D12068006820F0160037
:102CA000216808602068406920F080002168486140
:102CB000206C08B9A06C28B12068006820F00800DA
:102CC0002168086094F85C103F208840A8600120CB
:102CD00084F8350000BF002084F8340000BF206D68
:102CE00010B12046216D8847F8BD2068006800F4C7
:102CF000802080B12068006800F4002028B9606C52
:102D000010B12046616C88471DE0E06BD8B12046C9
:102D1000E16B884717E02068006800F4807068B9AC
:102D20002068006820F0100021680860012084F805
:102D3000350000BF002084F8340000BFE06B10B104
:102D40002046E16B8847606D38B3606D00F001008C
:102D5000F0B1052084F835002068006820F00100FB
:102D60002168086000BF0098401C0090B84200D95C
:102D700005E02068006800F001000028F3D100BFE2
:102D8000012084F8350000BF002084F8340000BF23
:102D9000E06C10B12046E16C884700BFA4E700005A
:102DA000100000202DE9F0410446002500F0F2F962
:102DB000074614B90120BDE8F081606A00B100BF88
:102DC000022084F8350000BF002084F8340000BFE2
:102DD0002068006820F00100216808600AE000F027
:102DE000D9F9C01B052805D920206065032084F887
:102DF0003500E0E72068006800F001000028EED10F
:102E00002068056821480540D4E901010843E168CC
:102E100008432169084361690843A1690843E169DE
:102E20000843216A08430543606A042803D1D4E9B2
:102E30000B0108430543206805602068456925F0BB
:102E40000705606A0543606A04280DD1A06A05433E
:102E5000E06A48B12046FEF757FB28B14020606584
:102E6000012084F83500A6E7206845612046FEF77A
:102E700031FB064694F85C103F208840B06000208B
:102E80006065012084F83500002094E73F8010F051
:102E90002DE9F04704460D4616461F464FF0000840
:102EA000D4F8589000BF94F83400012802D10220D1
:102EB000BDE8F087012084F8340000BF94F83500A5
:102EC000012825D1022084F83500002060653B46AA
:102ED000324629462046FEF77CFB94F85C103F20E2
:102EE0008840C9F808002068006840F01600216892
:102EF0000860206C28B12068006840F00800216854
:102F000008602068006840F001002168086006E061
:102F100000BF002084F8340000BF4FF00208404694
:102F2000C6E7000070B5044600F034F906462546B1
:102F3000681C10B104480078054400BF00F02AF96D
:102F4000801BA842FAD370BD0C00002010B50446C7
:102F5000402C0DD10748007880F001000549087029
:102F60000846007810B101F055FE01E001F060FE66
:102F700010BD00000100002010B5044604480068A0
:102F8000204020B1024804602046FFF7DFFF10BD5B
:102F9000143C0140F8B502460B46002500240020F1
:102FA0000021D6E0012606FA01F51E6806EA0504AE
:102FB000AC4274D11E7906F00306012E04D01E79AE
:102FC00006F00306022E13D190684F000326BE4080
:102FD000B0434F00DE68BE40304390605068012629
:102FE0008E40B0431E79C6F300168E4030435060C9
:102FF0001E7906F00306032E09D0D0684F00032681
:10300000BE40B0434F009E68BE403043D0601E7942
:1030100006F00306022E13D1CF0802F1200656F85F
:1030200027004E07F70E0F26BE40B0434F07FF0E96
:103030001E69BE403043CF0802F1200646F8270043
:1030400010684F000326BE40B0431E7906F0030609
:103050004F00BE40304310605E6806F44036002EDC
:1030600076D000BF002600963C4E366846F4804677
:103070003A4F3E603E46366806F48046009600BFF2
:1030800000BF374E8F0856F827008E07370F0F26E0
:10309000BE40B043334EB24202D1002624E057E096
:1030A000314EB24201D101261EE0304EB24201D172
:1030B000022619E02E4EB24201D1032614E02D4E15
:1030C000B24201D104260FE02B4EB24201D10526B7
:1030D0000AE02A4EB24201D1062605E0284EB2424D
:1030E00001D1072600E008268F073F0FBE4030437E
:1030F0001B4E8F0846F82700224E3068A0435E68BA
:1031000006F4801606B120431E4E3060361D30682E
:10311000A0435E6806F4001606B12043194E361D22
:103120003060184E361F3068A0435E6806F40036E3
:1031300006B12043134E361F3060361F3068A0435F
:103140005E6806F4803606B120430E4E083E3060BD
:10315000491C1029FFF426AFF8BD00004438024096
:10316000083801400000024000040240000802400C
:10317000000C0240001002400014024000180240FF
:10318000001C0240083C01400AB1816101E00B04CF
:103190008361704701480068704700000400002008
:1031A00003480068034909780844014908607047EA
:1031B000040000200C00002010B50D48006840F409
:1031C00000700B4908600846006840F480600860A1
:1031D0000846006840F480700860032000F0A6F8FC
:1031E0000F2000F007F800F02BF8002010BD0000C1
:1031F000003C024070B504460E4800784FF47A71E6
:10320000B1FBF0F00C490968B1FBF0F5284600F07D
:1032100096FD08B1012070BD102C07D20022214676
:10322000501E00F045F80548046001E00120F2E777
:103230000020F0E70C000020100000200800002013
:1032400008B500BF002000900E48006840F48040A0
:103250000C4908600846006800F48040009000BFF8
:1032600000BF00BF00200090081F006840F08050A1
:10327000091F08600846006800F08050009000BFF9
:1032800000BF08BD443802400146084600280DDB57
:1032900000BF00BF00F01F0301229A4043099B00BA
:1032A00003F1E023C3F8002100BF00BF00BF704757
:1032B0002DE9F05F80460D461646002701F020FFFD
:1032C000074639462A46334601F00700C0F1070A8F
:1032D000BAF1040F02D94FF0040A01E0C0F1070A65
:1032E000D14600F1040ABAF1070F02D24FF0000AEA
:1032F00001E0A0F1030AD4464FF0010A0AFA09FAE4
:10330000AAF1010A0AEA020A0AFA0CFA4FF0010BC2
:103310000BFA0CFBABF1010B0BEA030B4AEA0B04B3
:103320002146404601F0F4FEBDE8F09F00BF00F0EA
:103330000702064B19684FF6FF031940044B0B4375
:1033400043EA0221014B196000BF70470CED00E019
:103350000000FA0570B504460D460CB9012070BD99
:103360005848006800F00700A84209D255490D707E
:103370000846006800F00700A84201D00120EEE7EF
:10338000207800F0020002281DD1207800F004000F
:10339000042805D14C48006840F4E0504A490860D0
:1033A000207800F00800082805D14748006840F45C
:1033B0006040454908604448006820F0F000A1687A
:1033C000084341490860207800F00100A8B3606814
:1033D000012807D13C4808380068C0F34040B8B91C
:1033E0000120BCE76068022802D06068032807D18A
:1033F000354808380068C0F3406048B90120AEE79E
:10340000314808380068C0F3400008B90120A6E739
:103410002D48006820F00300616808432A490860CD
:10342000FFF7B8FE064609E0FFF7B4FE801B41F245
:103430008831884202D9032091E707E022480068DA
:1034400000F00C006168B0EB810FEDD11D48006801
:1034500000F00700A84209D91A490D700846006813
:1034600000F00700A84201D0012078E7207800F0A2
:103470000400042807D11448006820F4E050E168F3
:10348000084311490860207800F00800082808D196
:103490000D48006820F46040216940EAC1000A49F3
:1034A000086000F01FF808490968C1F30311074AD2
:1034B000515CC8400649086006480068FFF79AFE5C
:1034C00000204CE7003C02400838024066580008E3
:1034D000100000200800002001480068704700002C
:1034E000100000202DE9F047002400250026A14609
:1034F0002548006800F00C0020B1042805D00828F9
:103500003AD105E0DFF8849039E0DFF8849036E0C6
:103510001D48001F006800F03F041B48001F0068A2
:1035200000F4800078B11A481749091F0968C1F3EF
:103530008811A0FB01700146224600233846FCF7A3
:103540009FFE05460EE011480F49091F0968C1F3A7
:103550008811A0FB01700146224600233846FCF783
:103560008FFE05460848001F0068C0F30140401C5C
:103570004600B5FBF6F902E0DFF8109000BF00BF8F
:103580004846BDE8F0870000083802400024F400F7
:1035900040787D01F8B504460CB90120F8BD2078CB
:1035A00000F00100002874D0F948006800F00C0019
:1035B00004280DD0F648006800F00C00082813D14C
:1035C000F348001F006800F48000B0F5800F0BD1B5
:1035D000EF4808380068C0F34040002859D06068C0
:1035E000002856D10120D9E700BF6068B0F5803FC0
:1035F00008D1E7480838006840F48030E4490839C9
:1036000008601EE06068B0F5A02F0DD1E0480838D2
:10361000006840F48020DE490839086008460068E8
:1036200040F4803008600CE0D9480838006820F485
:103630008030D749083908600846006820F48020A7
:10364000086000BF606890B1FFF7A4FD054606E082
:10365000FFF7A0FD401B642801D903209EE7CC485A
:1036600008380068C0F340400028F1D011E0FFF7AF
:1036700091FD054606E0FFF78DFD401B642801D94A
:1036800003208BE7C24808380068C0F34040002898
:10369000F1D1207800F0020002285FD1BC48006818
:1036A00000F00C0058B1BA48006800F00C0008287F
:1036B0001CD1B748001F006800F48000B0B9B448BE
:1036C00008380068C0F3400020B1E068012801D04C
:1036D000012063E7AE480838006820F0F80021694F
:1036E00040EAC100AA490839086037E0E06800B341
:1036F0000120A8490860FFF74DFD054606E0FFF7E9
:1037000049FD401B022801D9032047E7A04808389B
:103710000068C0F340000028F1D09D4808380068D8
:1037200020F0F800216940EAC10099490839086091
:1037300014E0002097490860FFF72CFD054606E0DD
:10374000FFF728FD401B022801D9032026E79048F7
:1037500008380068C0F340000028F1D1207800F05C
:10376000080008282CD16069A8B101208A490860A6
:10377000FFF710FD054606E0FFF70CFD401B022891
:1037800001D903200AE782486C300068C0F340008A
:103790000028F1D014E000207F490860FFF7FAFC10
:1037A000054606E0FFF7F6FC401B022801D903207E
:1037B000F4E677486C300068C0F340000028F1D18F
:1037C000207800F00400042870D1002770483830B9
:1037D000006800F0805090B900BF002000906C4855
:1037E0003830006840F08050694938310860084638
:1037F000006800F08050009000BF00BF01276748BC
:10380000006800F48070B0B96448006840F48070CB
:1038100062490860FFF7BEFC054606E0FFF7BAFC08
:10382000401B022801D90320B8E65C48006800F478
:1038300080700028F2D000BFA068012808D1544849
:103840006830006840F001005149683108601DE0AF
:10385000A06805280DD14E486830006840F004008B
:103860004B49683108600846006840F00100086074
:103870000CE047486830006820F001004449683196
:1038800008600846006820F00400086000BFA068D7
:10389000A8B1FFF77FFC054609E0FFF77BFC401B62
:1038A00041F28831884202D9032077E626E0384881
:1038B00068300068C0F340000028EED013E0FFF746
:1038C00069FC054608E0FFF765FC401B41F28831C2
:1038D000884201D9032061E62D4868300068C0F3B2
:1038E00040000028EFD1012F07D129483830006867
:1038F00020F0805026493831086000BFA0690028B8
:1039000045D02348006800F00C0008285DD0A0696D
:10391000022845D100201F490866FFF73BFC0546F9
:1039200006E0FFF737FC401B022801D9032035E6EB
:10393000174808380068C0F340600028F1D1D4E986
:1039400007010843616A40EA81110122A06AC2EBC3
:10395000500041EA00412C20005D41EA00600C4922
:10396000091F086001200B490866FFF713FC054694
:1039700006E0FFF70FFC401B022801D903200DE6EB
:10398000034808380068C0F340600028F1D049E0DF
:103990000838024000004742800E47420070004055
:1039A000002021490866FFF7F5FB054606E0FFF712
:1039B000F1FB401B022801D90320EFE51B480068FA
:1039C000C0F340600028F2D12CE0A069012800D1AA
:1039D000E4E51648001D0668A069012820D006F419
:1039E0008001E06981421BD106F03F01206A8142DB
:1039F00016D147F6C0703040616AB0EB811F0FD11D
:103A000006F440310122A06AC2EB5000B1EB004F36
:103A100006D106F070612C20005DB1EB006F01D083
:103A20000120BBE50020B9E5000047420038024014
:103A300010B504460CB9012010BD606A38B9606841
:103A4000B0F5827F00D105E00021E16102E00021B4
:103A5000216161610021A16294F8510028B9002020
:103A600084F85000204600F047F8022084F8510006
:103A70002068006820F0400021680860A08800F4F9
:103A80008270218901F404410843A18901F4006195
:103A90000843217C01F002010843217D01F001016E
:103AA0000843218B01F400710843217F01F03801A4
:103AB00008432021095D01F080010843218D01F4B4
:103AC00000510843216808600421A06901EA104000
:103AD00094F8241001F01001084321684860206820
:103AE000C06920F400602168C86100206065012081
:103AF00084F8510000209FE710B586B004461421D9
:103B000001A8FCF7D0FC1B492068884230D100BFD7
:103B1000002000901848006840F4004016490860F2
:103B20000846006800F40040009000BF00BF00BFDE
:103B30000020009010481038006840F004000E4942
:103B4000103908600846006800F00400009000BFCB
:103B500000BF4FF4E050019002200290002003903B
:103B6000032004900620059001A90448FFF712FAEB
:103B700006B010BD003C0040403802400008024042
:103B80002DE9F84304460F4616461D46FFF702FB93
:103B90008046B14694F85100012802D00220BDE8C9
:103BA000F88307B10EB90120F9E700BF94F850007F
:103BB000012801D10220F2E7012084F8500000BF63
:103BC000032084F85100002060652763A686E686FE
:103BD000A063A087E08760642064A068B0F5004F10
:103BE0000BD12068006820F0400021680860206840
:103BF000006840F48040216808602068006800F098
:103C00004000402805D02068006840F0400021684E
:103C10000860E068B0F5006F37D1606810B1B9F1A5
:103C2000010F09D1206B00882168C860206B801CBF
:103C30002063E08E401EE08623E02068806800F06C
:103C4000020002280AD1206B00882168C860206B1E
:103C5000801C2063E08E401EE08612E0FFF79AFA97
:103C6000A0EB0800A84201D3681C00B94DB901209F
:103C700084F8510000BF002084F8500000BF0320EA
:103C80008DE7E08E0028D8D136E0606810B1B9F138
:103C9000010F09D1206B007821680873206B401C4C
:103CA0002063E08E401EE08623E02068806800F0FC
:103CB000020002280AD1206B007821680873206B6B
:103CC000401C2063E08E401EE08612E0FFF762FA9F
:103CD000A0EB0800A84201D3681C00B94DB901202F
:103CE00084F8510000BF002084F8500000BF03207A
:103CF00055E7E08E0028D8D142462946204600F0FC
:103D0000A1FF08B120206065A06850B900BF002065
:103D100000902068C068009020688068009000BF14
:103D200000BF012084F8510000BF002084F850003B
:103D300000BF606D08B1012031E700202FE770B5AA
:103D400004462546681EB0F1807F01D301200FE0B4
:103D5000681E4FF0E02148610F214FF0FF3001F065
:103D6000D7F900204FF0E02188610720086100208A
:103D700070BD70477047000030B502460B4600BF6B
:103D800092F83C00012801D1022030BD012082F8C8
:103D90003C0000BF022082F83D00106844681068B3
:103DA000816824F070041868044310684460184D5A
:103DB0001068A8421BD01068B0F1804F17D0154D85
:103DC0001068A84213D0144D1068A8420FD0134DAC
:103DD0001068A8420BD0124D1068A84207D0114DB0
:103DE0001068A84203D0104D1068A84205D121F0F8
:103DF00080015868014310688160012082F83D000D
:103E000000BF002082F83C0000BF00BFBDE70000FB
:103E1000000001400004004000080040000C004089
:103E200000040140004001400018004070B52DED35
:103E3000068B86B004462F492068884256D1207FE1
:103E4000022853D10421204600F0D7FA05462A481B
:103E50000078B0B32948056000202749087027483A
:103E6000006827490968461A304601F069FB41ECB1
:103E70001A0B9FED240B53EC102B01F075FB41EC5A
:103E8000190B9FED220B53EC102B01F001FA41ECC2
:103E9000180B01F0CBF91F4908600846006801F0D3
:103EA00061FC41EC180B53EC182B1BA101A8FCF78B
:103EB0005FFA002001AB1022DC21009000F0AAFC88
:103EC00013E0FFE70E48056001200B49087000BFB2
:103ED0002068006A20F0A000216808622068006A5B
:103EE00040F020002168086200BF00BF06B0BDECB2
:103EF000068B70BD00000140260000202C00002031
:103F0000280000209CC420B07268A13F000000007F
:103F10000000004018000020252E3266000000003E
:103F20002DE9F04104460D461646002700BF94F8DF
:103F30003C00012802D10220BDE8F081012084F874
:103F40003C0000BF96B9EB68D5E90012206801F08B
:103F50001DF82068806920F00C00216888612068C5
:103F60008069A96808432168886141E0042E13D163
:103F7000EB68D5E90012206801F050F820688069EC
:103F800020F440602168886120688069A96840EA5F
:103F90000120216888612BE0082E12D1EB68D5E959
:103FA0000012206801F057F82068C06920F00C006A
:103FB0002168C8612068C069A96808432168C86190
:103FC00016E00C2E13D1EB68D5E90012206801F041
:103FD0005EF82068C06920F440602168C8612068EC
:103FE000C069A96840EA01202168C86100E0012792
:103FF00000BF002084F83C0000BF38469CE710B5A5
:1040000004460CB9012010BD94F83D0028B90020E9
:1040100084F83C00204600F025F8022084F83D009A
:10402000211D206800F030FF012084F8460000BF09
:1040300084F83E0001213F200155402001554120D8
:10404000015500BF00BF012084F842004320015504
:10405000442001554520015500BF012084F83D0052
:104060000020D0E710B586B00446142101A8FCF763
:104070001AFA1E492068884236D100BF00200090FD
:104080001B48006840F001001949086008460068B4
:1040900000F00100009000BF00BF00BF00200090B2
:1040A00013481438006840F01000114914390860B2
:1040B0000846006800F01000009000BF00BFC81460
:1040C00001900220029000200390049001200590AE
:1040D00001A90848FEF75EFF002203211B20FFF71D
:1040E000E7F81B20FFF7D0F806B010BD0000014034
:1040F00044380240001002402DE9F04304460D46CA
:10410000002615B994F83E000BE0042D02D13F20A3
:10411000005D06E0082D02D14020005D01E0412055
:10412000005D804615B994F842000BE0042D02D1E1
:104130004320005D06E0082D02D14420005D01E02F
:104140004520005D8146B8F1010F02D1B9F1010FA0
:1041500002D00120BDE8F0831DB9022084F83E00A2
:104160000EE0042D03D102213F20015508E0082D67
:1041700003D102214020015502E0022141200155D6
:104180001DB9022084F842000EE0042D03D1022163
:104190004320015508E0082D03D102214420015598
:1041A00002E002214520015535B1042D0BD0082D28
:1041B00010D00C2D1CD114E02068C06840F0020023
:1041C0002168C86016E02068C06840F004002168DB
:1041D000C8600FE02068C06840F008002168C8602F
:1041E00008E02068C06840F010002168C86001E065
:1041F000012600BF00BF86BB01222946206800F0CF
:10420000B3FE1A49206888421BD02068B0F1804F65
:1042100017D017492068884213D016492068884271
:104220000FD01549206888420BD014492068884275
:1042300007D013492068884203D012492068884279
:104240000CD12068806800F00707062F0CD020688A
:10425000006840F001002168086005E020680068FF
:1042600040F0010021680860304673E7000001401B
:104270000004004000080040000C00400004014021
:10428000004001400018004070B504462068C56831
:104290002068066906F00200022819D105F0020024
:1042A000022815D1401F216808610120207720686D
:1042B000806900F0030018B12046FFF7B7FD05E064
:1042C000204600F097F8204600F095F8002020776F
:1042D00006F00400042819D105F00400042815D1C3
:1042E000C04321680861022020772068806900F4BB
:1042F000407018B12046FFF799FD05E0204600F018
:1043000079F8204600F077F80020207706F00800C2
:10431000082819D105F00800082815D1C0432168E4
:104320000861042020772068C06900F0030018B1FC
:104330002046FFF77BFD05E0204600F05BF82046B5
:1043400000F059F80020207706F01000102819D14D
:1043500005F01000102815D1C0432168086108201D
:1043600020772068C06900F4407018B12046FFF73C
:104370005DFD05E0204600F03DF8204600F03BF8EA
:104380000020207706F0010048B105F0010030B1AF
:104390006FF0010021680861204600F02DF806F05A
:1043A0008000802809D105F08000802805D1C04315
:1043B000216808612046FFF7DCFC06F04000402839
:1043C00009D105F04000402805D1C04321680861AB
:1043D000204600F02BF806F02000202809D105F037
:1043E0002000202805D1C043216808612046FFF73E
:1043F000C1FC70BD7047704770470246002031B164
:10440000042907D0082908D00C290CD108E013682A
:10441000586B09E01368986B06E01368D86B03E0EB
:104420001368186C00E000BF00BF7047704700BF02
:10443000FEE770B504460D461646F02C02DAB5F5D7
:10444000A07F00DB70BD2B4622462946204600F0A7
:1044500029F9304600F044FA00BFF3E770B505468D
:1044600040F23F13EF220021084600F01BF9002420
:1044700003E0284600F034FA641CB4F5963FF8D304
:1044800070BD000010B5002204218548FEF77CFEB7
:104490006420FEF747FD012204218148FEF774FEE7
:1044A0006420FEF73FFDCF2000F0E2F9002000F08D
:1044B000FBF9C12000F0F8F9302000F0F5F9ED200B
:1044C00000F0D6F9642000F0EFF9032000F0ECF9D9
:1044D000122000F0E9F9812000F0E6F9E82000F070
:1044E000C7F9852000F0E0F9002000F0DDF9782020
:1044F00000F0DAF9CB2000F0BBF9392000F0D4F954
:104500002C2000F0D1F9002000F0CEF9342000F08A
:10451000CBF9022000F0C8F9F72000F0A9F920201B
:1045200000F0C2F9EA2000F0A3F9002000F0BCF985
:10453000002000F0B9F9C02000F09AF9232000F023
:10454000B3F9C12000F094F9102000F0ADF9C520B6
:1045500000F08EF93E2000F0A7F9282000F0A4F921
:10456000C72000F085F9862000F09EF9362000F083
:104570007FF9482000F098F93A2000F079F95520A9
:1045800000F092F9B12000F073F9002000F08CF9EE
:10459000182000F089F9B62000F06AF9082000F030
:1045A00083F9822000F080F9272000F07DF9F220C5
:1045B00000F05EF9002000F077F9262000F058F9AD
:1045C000012000F071F9E02000F052F90F2000F016
:1045D0006BF9312000F068F92B2000F065F90C2010
:1045E00000F062F90E2000F05FF9082000F05CF99D
:1045F0004E2000F059F9F12000F056F9372000F074
:1046000053F9072000F050F9102000F04DF9032075
:1046100000F04AF90E2000F047F9092000F044F9B3
:10462000002000F041F9E12000F022F9002000F024
:104630003BF90E2000F038F9142000F035F9032082
:1046400000F032F9112000F02FF9072000F02CF9CA
:10465000312000F029F9C12000F026F9482000F0AF
:1046600023F9082000F020F90F2000F01DF90C209C
:1046700000F01AF9312000F017F9362000F014F993
:104680000F2000F011F9112000F0F2F87820FEF769
:1046900049FC292000F0ECF82C2000F0E9F810BDCE
:1046A000000C02402DE9F04104460D4616461F4617
:1046B0002A2000F0DDF8201200F0F6F8E0B200F059
:1046C000F3F8301200F0F0F8F0B200F0EDF82B2023
:1046D00000F0CEF8281200F0E7F8E8B200F0E4F8B5
:1046E000381200F0E1F8F8B200F0DEF82C2000F00B
:1046F000BFF8BDE8F08100002DE9FF4F83B081468F
:104700008A469346DDE910643F4800880290A6F18E
:104710002000C6B204EBD47009EB6000401E82B2E8
:104720000AEB0400401E83B2514648460194FFF74D
:10473000B9FF129850BB002525E00C2C07D106EBE1
:104740004600324901EB800010F8058004E0304853
:1047500000EB061010F8058000270DE008F00100BE
:1047600018B1584600F0BCF802E0069800F0B8F81E
:104770004FEA6808781CC7B204EBD471B7EB610F3D
:10478000ECDB681CC5B2A542D7DB2FE000252BE08F
:104790000C2C07D106EB46001C4901EB800010F8F9
:1047A000058004E01A4800EB061010F80580002789
:1047B00013E01548A0F800B008F0010048B10AEB7A
:1047C000050291B209EB070290B20F4A1288FFF777
:1047D00030FE4FEA6808781CC7B204EBD471B7EB1F
:1047E000610FE6DB681CC5B2A542D1DB0649029821
:1047F0000880EF2340F23F1200210846FFF752FFE6
:1048000007B0BDE8F08F0000140000207E580008BB
:10481000F25C00082DE9FE4306460F4615461C468D
:10482000DDF8288018E0B6F5A07F01DAEF2F01DD72
:10483000BDE8FE8320788DE821010B4803880B48F2
:10484000028839463046FFF757FF284605EBD071FE
:1048500006EB61018EB2641C20787E2802DC207891
:104860002028E0DA00BFE3E7160000201400002053
:1048700001B5002202210A48FEF786FC0022012130
:104880000748FEF781FC4FF0FF33012269460548D7
:10489000FFF776F9012211460148FEF775FC08BDC5
:1048A000000C0240D000002001B5012202210A487C
:1048B000FEF76AFC002201210748FEF765FC4FF075
:1048C000FF33012269460548FFF75AF901221146D4
:1048D0000148FEF759FC08BD000C0240D000002042
:1048E00038B5044620128DF80000E0B28DF80100C2
:1048F000012202210A48FEF747FC00220121084854
:10490000FEF742FC4FF0FF33022269460548FFF7ED
:1049100037F9012211460248FEF736FC38BD000087
:10492000000C0240D000002010B50E480E4908606F
:104930000020486020210C4881600021C160016195
:10494000416181610162FCF7D1FE08B1FCF75DFEB7
:1049500005480068C06840F0010003490968C86064
:1049600010BD0000000005503000002008B500BF59
:10497000002000900A48006840F480000849086060
:104980000846006800F48000009000BF00BF0022CD
:1049900002213920FEF78CFC3920FEF775FC08BD9A
:1049A0003038024000B587B0142102A8FBF77BFD28
:1049B00000BF002001906048006840F010005E4990
:1049C00008600846006800F01000019000BF00BFBA
:1049D00000BF002001900846006840F08000086099
:1049E0000846006800F08000019000BF00BF00BFD3
:1049F000002001900846006840F001000860084669
:104A0000006800F00100019000BF00BF00BF00205F
:104A100001900846006840F00400086008460068FD
:104A200000F00400019000BF00BF00BF0020019013
:104A30000846006840F0080008600846006800F07A
:104A40000800019000BF00BF00BF00200190084691
:104A5000006840F0400008600846006800F0400030
:104A6000019000BF00BF00BF002001900846006811
:104A700040F0020008600846006800F00200019063
:104A800000BF00BF012209152C48FEF77DFB012263
:104A900007212B48FEF778FB01224FF402412948F9
:104AA000FEF772FB01224FF440712748FEF76CFBC2
:104AB0004FF4806002900120039004900220059042
:104AC00002A91E48FEF766FA072002900120039013
:104AD00004900320059002A91948FEF75BFA4020D4
:104AE00002904FF4041003900120049002A914488E
:104AF000FEF750FA4FF40240029001200390049018
:104B00000320059002A90F48FEF744FA4FF44070C5
:104B100002900120039004900320059002A90A4806
:104B2000FEF738FA002211461720FEF7C1FB1720C6
:104B3000FEF7AAFB07B000BD30380240001002406B
:104B4000000C0240001802400004024010B50E485C
:104B50000E4908604FF48270486000210B48816064
:104B6000C160016141614FF4007181610821C1613F
:104B700000210162416281620A21C162FEF758FF91
:104B800008B1FCF742FD10BD003C0040D000002001
:104B900000B587B000200590069001900290039028
:104BA00004901848184908605320486000211648AE
:104BB00081604FF6FF71C160002101614161802178
:104BC0008161FFF71CFA08B1FCF71FFD002005907A
:104BD000069005A90C48FFF7CFF808B1FCF715FDC2
:104BE00000200190012002900020039004900422F4
:104BF00001A90548FFF794F908B1FCF706FD07B0D5
:104C000000BD0000000001402801002000BFFEE7B9
:104C100000BFFEE710B54FF49643034A0021034856
:104C2000FCF782FE10BD0000700100203000002063
:104C300010B50248FCF7F0FE10BD00003000002067
:104C4000704700007CB504460E46154633460122E7
:104C500002212046009500F039F828B1606D40F03F
:104C60002000606503207CBD164800681821B0FB59
:104C7000F1F01549B0FBF1F04FF47A71484301901F
:104C80006068B0F5827F0DD1334600228021204636
:104C9000009500F01BF898B1606D40F02000606551
:104CA0000320E0E700BF019800B908E00198401E2A
:104CB000019020688068C0F3C0100028F3D100BFC5
:104CC0000020D0E71000002040420F002DE9F84FEF
:104CD00004460D4690461E46DDF82890FEF75AFA27
:104CE000A0EB0900371AFEF755FA82462C480068F7
:104CF000C0F3CB307843009046E0701C002843D0CE
:104D0000FEF748FAA0EB0A00B84200D2A7BB206821
:104D1000406820F0E000216848606068B0F5827F5C
:104D20000DD1A068B0F5004F03D0A068B0F5806F3A
:104D300005D12068006820F0400021680860A06A62
:104D4000B0F5005F0DD100BF2068006820F400506E
:104D5000216808602068006840F4005021680860FD
:104D600000BF012084F8510000BF002084F85000EB
:104D700000BF0320BDE8F88FFFE7009808B90027BF
:104D800002E00098401E0090206880682840A842F9
:104D900001D1012000E000204045AED10020E9E72C
:104DA00010000020704710B5FEF7FAF910BD0000A2
:104DB00000B593B0302107A8FBF775FB142102A8BA
:104DC000FBF771FB00BF002001902448006840F011
:104DD0008050224908600846006800F08050019029
:104DE00000BF00BF00BF002001901D48006840F4D4
:104DF00080401B4908600846006800F4804001902C
:104E000000BF00BF012007900004089002200D9011
:104E100041050E9119210F914FF4A87110910221B3
:104E200011910421129107A8FEF7B4FB08B1FCF719
:104E3000ECFB0F20029002200390002004904FF41E
:104E4000A05005904FF480500690052102A8FEF76F
:104E500081FA08B1FCF7D9FB13B000BD403802401D
:104E6000007000400348006840F470000149086089
:104E70007047000088ED00E010B50248FFF704FA23
:104E800010BD00002801002010B502682B4B98428D
:104E90000ED0B0F1804F0BD0294B984208D0294B4F
:104EA000984205D0284B984202D0284B984203D113
:104EB00022F070024B681A43204B984220D0B0F188
:104EC000804F1DD01E4B98421AD01E4B984217D0CF
:104ED0001D4B984214D01D4B984211D01C4B984248
:104EE0000ED01C4B98420BD01B4B984208D01B4B4A
:104EF000984205D01A4B984202D01A4B984203D1DF
:104F000022F44072CB681A4322F080034C6943EAD2
:104F100004028B68C3620B688362084B984202D01C
:104F20000A4B984201D10B690363036843F0040301
:104F3000036001234361026010BD000000000140D6
:104F40000004004000080040000C00400004014044
:104F5000004001400044014000480140001800406A
:104F6000001C00400020004030B501F01F05012466
:104F700004FA05F3046A9C430462046A01F01F0505
:104F800002FA05F52C43046230BD000070B50C46F2
:104F90001546026A066A26F0010606628169184E05
:104FA000B04214D0B0F1804F11D0164EB0420ED0A6
:104FB000154EB0420BD0154EB04208D0144EB04240
:104FC00005D0144EB04202D0134EB04201D101269A
:104FD00000E000261EB121F00301294301E041F069
:104FE000010121F0F001F02606EA0316314322F018
:104FF0000A0204F00A0632438161026270BD0000B9
:10500000000001400004004000080040000C004087
:1050100000040140004001400018004070B50C46FB
:105020001546026A066A26F010060662816921F4B6
:10503000407141EA052121F470414FF4704606EABF
:105040000336314322F0A002A02606EA04163243BA
:105050008161026270BD70B50C461546026A066A2F
:1050600026F480760662C16921F00301294321F00C
:10507000F001F02606EA0316314322F420624FF4D1
:10508000206606EA04263243C161026270BD70B533
:105090000C461546026A066A26F480560662C16905
:1050A00021F4407141EA052121F470414FF470462A
:1050B00006EA0336314322F420424FF4204606EA42
:1050C00004363243C161026270BD00BFFEE703B423
:1050D00001984100009850EAC12018BF04204A0DF1
:1050E00018BF40F0010040F2FF72B2EB515F08BF01
:1050F00040F00200012808BF052002B07047000000
:1051000002480068C0F30220704700000CED00E088
:1051100010B5002804DB0A07130E054A135406E0F5
:105120000A07140E034A00F00F031B1FD45410BDCE
:1051300000E400E018ED00E030380A2801D2012038
:10514000704700207047000070B50446FEF7C4F9B0
:105150000549B0FBF1F000FB04F500BF281EA5F1E6
:105160000105FBD170BD000000127A0000BFFEF700
:1051700023F8FFF71DFEFFF715FCFFF7F7FBFFF71E
:10518000E5FCFFF7D1FBFFF703FDFFF77BF90020FC
:10519000FFF764F908E00548007828B900F008F83E
:1051A0004FF47A70FDF7BEFEF5E700000100002025
:1051B00010B5012291021048FDF7E6FF1E20FFF70F
:1051C000C3FF00224FF480610B48FDF7DDFF00BFF5
:1051D0000A480068006A20F0A000084909680862CF
:1051E00006480068006A05490968086200BF042192
:1051F0000248FEF781FF10BD001002402801002088
:1052000010B500290AD00878002807D0054878444E
:10521000FBF7CEFC002801D0002010BD02487844E6
:1052200010BD00008A1100008211000021F0004230
:10523000A2F16052B2F5801F01F0004328BFD2F105
:105240007F6C0BD95FEA001C43EAC20242EB50704C
:1052500018BF704728BF20F001007047B2F5801FCB
:10526000BCBF184670474FEA410C1CF5001F02D224
:10527000084600F0EDBA70B500F020FA0000008991
:10528000FFF7F6BF4FF00040A0F580007047000028
:105290002DE9C04130B4DFF8A0C23CEA111418BFB8
:1052A0003CEA131400F0EC8081EA03051CEA1114B7
:1052B00044EAD57418BF1CEA131500F0C780A4EBAC
:1052C00005044FF0004545EAC12145EAC32341EA00
:1052D000505143EA525304F17F74994204F500346B
:1052E0004FEAC0204FEAC22208BF904200F09C80E3
:1052F0004FEA13650FF24016765D4FEA134506FB41
:1053000005F7C7F1807706FB07F74FEAD737A7FB0A
:1053100003687642C8F58038A7FB06CE38BFA8F1EF
:10532000010807FB08E64FF0000EA6FB028CE6FB27
:1053300003CEDCF1000CCEF1004E38BFAEF1010E11
:10534000A6FB0C584FF000074FF00005E6FB0E8758
:10535000A1FB08C6A0FB07CE16EB0E0645F1000523
:10536000E1FB076515F1E04E7EBFA4F580345FEAEE
:1053700046066D4116F1800745F100054FEA1727F3
:105380004FEA066647EA0567A6F1DE46B6F1805F9A
:105390004FEA15251FD9384624F0010C05EBC471DE
:1053A000BCF1FE6F01EB0C1102D8F0BCBDE800812E
:1053B00024425CBF01F5801E9EEAC47F02D4F0BC8B
:1053C000BDE80081244238D4F0BCA1F1C041BDE861
:1053D000004100F0C1B94FEAD22242EA43524FEAFB
:1053E000D323A7FB02864FEAD02040EA415007FBB7
:1053F00003661EEA0E0F4FEAD12105FB026658BF75
:10540000A6EB0056B6EB00564FEA520E4EEAC37EAC
:1054100018EB0E0E56EB530EBDD518EB02085E418D
:105420007F1C55F10005B6E74FF480154FF00007DB
:105430004FF000064FF00008ADE7F0BC4FF0000061
:1054400001F1C04101F00041BDE8008111EA0C1FEB
:105450000CEA131500D00CE013EA0C1F00F02580B5
:105460004FF00000F0BC81EA030101F00041BDE80B
:105470000081F0BCBDE8004181EA030100F06CB995
:10548000F0BCBDE8004170B500F018F9097EFC3EA3
:1054900000F007B881EA03014FF0000001F000417D
:1054A000704781EA030100F057B9F0BCBDE8004144
:1054B0004FF0000021497047FFFDFBF9F7F5F4F2CA
:1054C000F0EEEDEBE9E8E6E4E3E1E0DEDDDBDAD89F
:1054D000D7D5D4D3D1D0CFCDCCCBCAC8C7C6C5C4FD
:1054E000C2C1C0BFBEBDBCBBBAB9B8B7B6B5B4B314
:1054F000B2B1B0AFAEADACABAAA9A8A8A7A6A5A4FF
:10550000A3A3A2A1A09F9F9E9D9C9C9B9A999998C2
:105510009797969595949393929191908F8F8E8E65
:105520008D8C8C8B8B8A89898888878786858584F2
:1055300084838382828181800000FF070000F87FDE
:10554000B0FA80F310FA03F10AD0C3F11D0303F59A
:1055500080634FEA41504FEA035202EBD12170477A
:105560004FF0000070470000DFF848C170B51CEA3A
:10557000111E1EBF1CEA13159EEA0C0F95EA0C0FB4
:1055800000F06F8081EA030423EA4C134EEAD47ED4
:1055900021EA4C1141F4801143F48013AE44A1FB85
:1055A000024CA0FB0365AEF17F7E361955EB0C056E
:1055B000A1FB034C4CF10003A0FB021C16EB0C06F4
:1055C000654153F10003094218BF46F0010613F488
:1055D000007F0BD14FEA03314FEA0530340341EA33
:1055E000155140EA16506FF003020AE04FEAC3215A
:1055F0004FEAC520F40241EA555140EA56506FF097
:10560000020202EB2E4201EB025585EACE710AD06E
:105610005FEA440C18BF24F0004450F1000041F14F
:10562000000120EAD47040F2FE7C624500D270BDD9
:10563000A84214BF4FF080444FF04044002E08BFF2
:105640000024BEF1806FA8BFA1F1C041BDE8704049
:1056500080F282804FF0000001F1C04101F0004172
:1056600070479EEA0C0F0CEA131518BF95EA0C0F51
:1056700006D04FF0000081EA030E0EF0004170BD2D
:1056800000F01CF88900013E00F007B800F009B8EE
:105690004FEA430C5FEA5C5C08D081EA030100F04A
:1056A0005BB84FEA410C5FEA5C5CF6D14FF000005A
:1056B000014970470000FF070000F87F0EF1020E5D
:1056C0002EF0030E5EF8046B364205D4012A43EB3C
:1056D000030515F5001F12D8012841EB010C1CF53C
:1056E000001F0CD80ED14FEAD17C15F5001F0CEB32
:1056F0004C0C0CF1020C08BF4CEBD37C04E04FF0D7
:10570000080C01E04FEAD37C0CEB4C0526FA05F6B9
:1057100006F00706B6F1040C06D20EEB860CBDE8C7
:1057200070404CF0010C6047DFE80CF0090B0202FE
:105730004FF000414FF00000A1F5002170BD194667
:105740001046012851EB010418BFD4F5001484BFA2
:10575000002001F0004170BD0808A0F500114FEADB
:105760003101704743004FEAD30C4FEA3C0C4340F1
:105770001FBF40070CF1605113F0FE4F70471CF043
:10578000006F03D100200CF0004170470CF0004383
:1057900043EA507010B540EACC0000F00EF800BFAC
:1057A000000000924FEA0001FFF7D6BF4FF0004122
:1057B0004FF00000A1F5002170470EF1020E2EF00F
:1057C000030E5EF8044B244204D44FEA4102B2F1C6
:1057D0007F4F11D84FEA4003B3F17F4F0CD80ED161
:1057E0004FEAD07CB2F17F4F0CEB4C0C0CF1020C69
:1057F00008BF4CEBD17C04E04FF0080C01E04FEA0D
:10580000D17C0CEB4C0324FA03F404F00704B4F14C
:10581000040C06D20EEB840CBDE810404CF0010CD9
:105820006047DFE80CF0070802024FF00040A0F5E7
:10583000800010BD0846420018BFD2F1807288BFB8
:1058400000F0004010BD4FF04070E1EE100A7047CC
:10585000FF2141EAD050C0057047FAF727BF000684
:1058600010160006101600000000000000000102E3
:1058700003040607080900000000010203040000F9
:105880000000000000000000000000000404040408
:1058900004040004000000140A0A000000000000D4
:1058A0000000000014143F140A3F0A0A000000041C
:1058B0001E1505060C14150F0400000012150D0A24
:1058C000142C2A1200000000040A0A1E15150936BD
:1058D00000000002020100000000000000000020A3
:1058E000100808080808081020000002040808082A
:1058F00008080804020000000004150E0E1504003C
:10590000000000000404041F040404000000000060
:105910000000000000000002020100000000001F63
:105920000000000000000000000000000000000275
:105930000000001008080804040202020100000030
:105940000E1111111111110E0000000004060404C3
:105950000404040E000000000E1111080402011FCF
:10596000000000000E11100C1010110E00000000BD
:10597000080C0A0A091E0818000000001F01010F88
:105980001010110E000000000E09010F1111110E70
:10599000000000001F0908040404040400000000C3
:1059A0000E11110E1111110E000000000E11111137
:1059B0001E10120E00000000000004000000000491
:1059C00000000000000000040000000404000020AB
:1059D00010080402040810200000000000001F004E
:1059E000001F00000000000204081020100804023C
:1059F000000000000E111108040400040000000063
:105A00000E111915151D011E0000000004040C0ADA
:105A10000A1E1233000000000F12120E1212120F93
:105A2000000000001E1101010101110E0000000024
:105A30000F1212121212120F000000001F120A0E93
:105A40000A02121F000000001F120A0E0A020207BB
:105A5000000000001C1201013911120C00000000AE
:105A60003312121E12121233000000001F0404042D
:105A70000404041F000000003E0808080808080984
:105A80000700000037120A060A0A12370000000059
:105A9000070202020202223F000000001B1B1B1B28
:105AA00015151515000000003B1216161A1A1217CC
:105AB000000000000E1111111111110E0000000064
:105AC0000F12120E02020207000000000E11111147
:105AD0001117190E180000000F12120E0A121237B9
