:020000040800F2
:10000000B853002049020008994200083B39000813
:100010009542000803150008F14A0008000000009E
:100020000000000000000000000000001144000873
:100030002316000800000000AD4200081344000829
:1000400063020008630200086302000863020008FC
:1000500063020008630200086302000863020008EC
:1000600063020008630200086302000863020008DC
:1000700063020008630200086302000863020008CC
:1000800063020008630200086302000863020008BC
:1000900063020008630200086302000825160008D6
:1000A000630200086302000863020008E5440008D8
:1000B000F5440008054500086302000863020008D3
:1000C000630200086302000863020008630200087C
:1000D000630200086302000863020008630200086C
:1000E000630200086302000863020008630200085C
:1000F000630200086302000863020008630200084C
:10010000630200086302000863020008630200083B
:10011000630200086302000863020008630200082B
:100120006302000835150008630200086302000836
:10013000630200086302000863020008630200080B
:1001400063020008630200086302000863020008FB
:1001500063020008630200086302000863020008EB
:1001600063020008630200086302000863020008DB
:100170006302000863020008251500080000000063
:10018000630200086302000800F002F800F04CF877
:100190000AA090E8000C82448344AAF10107DA45E2
:1001A00001D100F041F8AFF2090EBAE80F0013F0E8
:1001B000010F18BFFB1A43F001031847945B0000BE
:1001C000B45B0000103A24BF78C878C1FAD852074F
:1001D00024BF30C830C144BF04680C6070470000C1
:1001E0000023002400250026103A28BF78C1FBD840
:1001F000520728BF30C148BF0B607047662905F021
:100200001880642900F0CC80002070471FB505F0ED
:1002100006F800F039FC04000020002104F0DCFCAA
:10022000E0601FBD10B510BD00F02EFD1146FFF7B8
:10023000EDFF04F09BFC00F04CFD03B4FFF7F2FF70
:1002400003BC00F08FFD00000948804709480047C3
:10025000FEE7FEE7FEE7FEE7FEE7FEE7FEE7FEE776
:10026000FEE7FEE704480549054A064B70470000D3
:10027000D144000889010008B84D0020B85300207F
:10028000B84F0020B84F002053EA020C00F06980FC
:100290002DE9F04B4FF00006002B1FBFB3FA83F59A
:1002A00003FA05F424FA05F65E4012BF1643B2FACB
:1002B00082F502FA05F4C5F120051EBF22FA05FCFD
:1002C00044EA0C04203556EA044C4FEA144418BFA3
:1002D000641C4FF000084FF00009904271EB030CD2
:1002E00039D3002919BFB1FA81F701FA07F6B0FA3C
:1002F00080F700FA07F6C7F120071EBF20FA07FCB7
:1003000046EA0C062037B6FBF4FCA7EB0507103FC6
:1003100007F01F0BCBF120060CFA0BFB2CFA06F6AC
:1003200044BFB3460026202FA4BF5E464FF0000B0B
:100330005BEA060C08BF4FF0010B19EB0B09ABFB96
:10034000027C48EB0608C01B06FB02CC0BFB03CC6F
:1003500071EB0C01C1E70B46024641464846BDE839
:10036000F08B13B54FF000004FF00001AFF30080A9
:10037000BDE81C40704700000FB41CB5074B06AA2F
:100380007B4469460090059800F065FB00206946B3
:1003900000F074FB1CBC5DF814FB0000F9060000C3
:1003A0002DE9F0410646002410687529314616A54E
:1003B00010D0AFF30080002802DA404213A507E016
:1003C00031688A0701D512A502E0490704D511A5B5
:1003D000012401E0AFF3008000210A2206F1240786
:1003E00009E0B0FBF2FCB0FBF2F302FB1C00303082
:1003F00078541846491C0028F3D123462A46304633
:10040000BDE8F04100F0B9B8000000002D00000088
:100410002B000000200000002DE9F0474FF0000AFB
:1004200089460446C0F820A02046E1688847002895
:1004300076D0252806D0D4E901219047206A401CB7
:100440002062F1E7E168204600258847C4F81CA037
:1004500006460027C4F818A02A2E09D0304604F01A
:100460007DFB38B304EB8708303EC8F8186019E00C
:1004700059F8041B204604EB87029161E168884724
:10048000012F064618D1E069002820DA25F0200562
:100490001DE0D8F8180000EB800006EB4000303873
:1004A000C8F818002046E1688847064604F056FB65
:1004B0000028EED1012F0AD02E2E08D12046E16867
:1004C00088477F1C0646022F45F02005C4DBA06943
:1004D000002803DA404245F00105A061E80701D099
:1004E00025F01005B6B1A6F14100192802D8203632
:1004F00045F400654A463146204625604D46FFF7E3
:100500007DFE58B1012806D0ED1D25F0070000F151
:10051000080989E704E005F1040985E730468AE720
:10052000206ABDE8F0874FF0000200B513469446FC
:100530009646203922BFA0E80C50A0E80C50B1F13B
:100540002001BFF4F7AF090728BFA0E80C5048BF4F
:100550000CC05DF804EB890028BF40F8042B08BFED
:10056000704748BF20F8022B11F0804F18BF00F8E9
:10057000012B70477047704770472DE9F0470D46D3
:1005800099469246044600F124080168880604D57D
:10059000E06921F01001216000E00120A84201DDA6
:1005A000471B00E00027A1697A1902EB0900081A2D
:1005B000A0612078C00602D42046AFF30080002658
:1005C00008E0D4E901211AF806009047206A401C8F
:1005D000761C20624E45F4DB2078C0060AD5204602
:1005E000AFF3008006E0D4E9012130209047206A73
:1005F000401C2062381EA7F10107F4DC07E0D4E9B3
:10060000012118F805009047206A401C2062281E2E
:10061000A5F10105F3DC2046AFF300802078000649
:1006200002D50220BDE8F0870120FBE770472DE9E5
:10063000FF4F0C461E464FF0FF378BB0D2E900014A
:10064000DDF860800A908A46C1F30A5505B93D4637
:10065000002108464FF00000BAF1000F00F44000FE
:1006600005DA00EB80004FF4400101EA50004FEA48
:100670009059B9F1010F00DDB9460A9850EA4A00D5
:100680000ED044F61050A5F2FF3545432F14B8F1B3
:10069000000F1ED07542291E1EDDC9F100021CE0AC
:1006A000B8F1010F4FF0000001D0302103E0F24318
:1006B00005E02154401CB042FBDB30460022002103
:1006C00021540B99C1F80880C1E900200FB0BDE8A2
:1006D000F08FBD1B6D1CDEE74A4600DA694206A8B2
:1006E00000F05CFA06AB93E8070003AB83E8070071
:1006F00050460A9900F03DFB8DE80700A0F5005038
:100700001F3800900398002D0ADD42F21F014A466F
:100710000844002303A90390684600F0A6FD09E001
:10072000A0F500504A461F38002303A903906846ED
:1007300000F0B0FD8DE807000004000C03D04FF07E
:10074000FF30410800E01046B8F1000F03D000224E
:10075000009215461EE0751E05D400F099F930325E
:1007600062556D1EF9D5B3460122084302D000221E
:100770007F1C04E02078302801D100227F1E002A4F
:10078000099784D01DE0112D07DA00F081F930328D
:1007900062556D1C50EA0102F5D1084302D0009861
:1007A000C8B10EE00021681E05E0235C625C635462
:1007B0002254401E491C8142F7DBAB46A81B401E59
:1007C0000990002004F80B000B98099AC0F80880E3
:1007D000C0E9002B7AE711264FF0000857E72DE912
:1007E000F04F88460446D21D22F0070191B0D1E9AE
:1007F0000001CDE90A0104F07DF902460B98C00F13
:1008000001D02D2007E02068810701D52B2002E0D0
:10081000202101EAC000032A099001D0072A05DB44
:1008200003464146204600F079F90BE12078800626
:1008300001D5E06900E00620B8F1650F814606D0D9
:10084000B8F1660F18D0B8F1670F70D131E0002011
:10085000B9F1110F009001DB112301E009F101034F
:100860000AAA01A90CA8FFF7E2FEDDE90C70002638
:1008700009F10105834647E001204B4600904FF007
:1008800000470AAA01A90CA8FFF7D1FEDDE90DB0C7
:100890000C995D46002610B909F101000D18B9EB5D
:1008A000050003D4C0F1FF3609F10105A5EB0900ED
:1008B0002BE0B9F1010F01DA4FF001090020B9F185
:1008C000110F0090484601DD112300E003460AAAFB
:1008D00001A90CA8FFF7ABFEDDE90C704D46002620
:1008E0008346207800070AD4AB4500DA5D4601A8AC
:1008F000012D04DD411911F8011C302907D04F45A5
:1009000002DA17F1040F04DA012082460FE06D1EAF
:10091000EEE7002F02DCED1B3E4403E0781CA8420A
:1009200000DD7D1CB81B00F1010A4FF00047207864
:10093000000703D4AA4501DB4FF0FF3A0021B7F1CD
:10094000004F0DF143088DF8431024D002202B23D3
:10095000002F01DA7F422D230A21021EA0F101009F
:1009600000DC5FB197FBF1FC97FBF1F201FB1C7C13
:1009700017460CF1300C08F801CDEEE7A8F10100A4
:1009800003702188090501D5452100E06521A0F10A
:10099000010800F8011C09980FA9A1EB0807FF1D29
:1009A00000B10120411901EBEA70A1693844081A2D
:1009B000401EA0612078C00602D42046AFF300801C
:1009C000099828B1D4E901219047206A401C20628F
:1009D0002078C00622D52046AFF300801EE0002E0E
:1009E00004DBB34502DD01A8805D00E03020D4E9DE
:1009F00001219047206A401C2062761CAAF1010068
:100A00005FEA000A0AD100F03FF8C0680168405C64
:100A1000D4E901219047206A401C2062281EA5F1DC
:100A20000105DCDC07E0D4E9012118F8010B90474F
:100A3000206A401C2062381EA7F10107F3DC204623
:100A4000AFF30080032011B041E6000001694A1CA9
:100A500002610878704700B58FB0CDE901310021FF
:100A6000059105497944CDE9031011466846FFF721
:100A7000D3FC0FB000BD0000E5FFFFFF0A6802F8DD
:100A8000010B0A607047000000487047744D002059
:100A900030B5B0F10A024FEA900E71F100034EEA50
:100AA000817EB0EB0E0061EB91014FEA101E4EEA21
:100AB000017E10EB0E0041EB11114FEA102E4EEAB1
:100AC000016E10EB0E0041EB11214FEA104E4EEA81
:100AD000014E10EB0E0041EB1141401841F10001B5
:100AE0004FEAD00040EA41704FEAD10110EB800597
:100AF0004FEA810444EA907444EB01046D1944EB1D
:100B00000404521BA3414FF0000348BF0A3200D532
:100B100030BD401C41F1000130BD00002DE9F04125
:100B20001F46044603260168072A01F4006004DB1F
:100B300008B116A505E016A503E008B115A500E06B
:100B400015A521F010002060A069C01EA0610FB1A2
:100B5000401EA0612046AFF300804FB1D4E90121CF
:100B600038469047206A401C2062C01C206206E084
:100B7000206AFAE7D4E9012115F8010B9047761EA7
:100B8000F8D22046AFF30080BDE8F0814E414E0020
:100B90006E616E00494E4600696E66002DE9F047B1
:100BA000814616468AB0354878440DC88DE80D0058
:100BB00032487844801C03AC0DC884E80D0041F62F
:100BC0009B300844372190FBF1F290FBF1F5A5F141
:100BD000800501FB12041B3C02D56442012000E0A9
:100BE0000020DFF898A080460027FA44AAF1BE0A48
:100BF0000EE0E0070AD03246684607EB47010123C2
:100C00000AEB810100F046FB8DE8070064107F1CB1
:100C1000002CEED1194F7F44AE3F19E0E80715D004
:100C200007EB04100DF1180A90E80E008AE80E0098
:100C3000C068F04201D1981908903246012306A9F4
:100C400003A800F027FB03AB83E807006D10641CCA
:100C5000002DE3D14FF0010332466946B8F1000F91
:100C600003A802D000F001FB01E000F013FBC9E98A
:100C70000001C9F808200AB0BDE8F0878C510000D7
:100C800000487047544D00207546FFF7F9FFAE4607
:100C900005006946534620F00700854618B020B588
:100CA000FFF7E0FABDE820404FF000064FF00007E4
:100CB0004FF000084FF0000B21F00701AC46ACE804
:100CC000C009ACE8C009ACE8C009ACE8C0098D4671
:100CD000704710B50446AFF300802046BDE81040D1
:100CE000FFF7ABBA4FF0013C50F8042B51F8043B2E
:100CF0009A4221D1A2EB0C03934313EACC1317D1F0
:100D000050F8042B51F8043B9A4215D1A2EB0C0386
:100D1000934313EACC130BD150F8042B51F8043B46
:100D20009A4209D1A2EB0C03934313EACC13DBD014
:100D30004FF00000704700BFD01A01BAB1FA81F13C
:100D400001F0180122FA01F0CB40C1F12001DBB221
:100D5000C0B2C01A2CFA01F3D11A914311EAC3119F
:100D6000E6D1704701491820ABBEFEE7260002001D
:100D700070475FEA400C08BF91F0000F4FEA8C23E8
:100D80004FEAC12243EA51514FEA1C5018BF00F507
:100D9000F0404FEA300018BF41F000415FEA6C5C60
:100DA00000F02980BCF1FF3F08BF40F08040704751
:100DB000130C06BF12044FF0100C4FF0000C130E72
:100DC00004BF12020CF1080C130F04BF12010CF146
:100DD000040C930F04BF92000CF1020CD30F04BF5C
:100DE00052000CF1010C11464FF00002A0F11F005F
:100DF000A0EB0C00704711F0004F08BF704731F0B6
:100E000000413FF4D5AF0B0C06BF09044FF0100CA6
:100E10004FF0000C0B0E04BF09020CF1080C0B0F75
:100E200004BF09010CF1040C8B0F04BF89000CF105
:100E3000020CCB0F04BF49000CF1010CCCF12003D4
:100E4000A0EB0C0022FA03F302FA0CF241EA0301D0
:100E500000F10100704720F07F4C80EA030023F08E
:100E60007F47ACEB070303F57C5300F0004003F130
:100E7000FF032DE980494FEA154B09B44FEA1443AB
:100E800025EA0B4E24EA03480FF2042606EB13274B
:100E900049083E785FEA320203FB0667C7F50007A0
:100EA00007FB06F64FEA54374FEAD64606F102062C
:100EB00007FB066CCCF1005C4FEA1C472CEA074CA0
:100EC00007FB06F40CFB06F504EB15464FEA9616F5
:100ED00034BF00204FF000404FEAD13706FB07FC3B
:100EE0004FEA1C4C0CFB0BF7D21B03FB0CF761EB1E
:100EF00007010CFB0EF7B0EB074072EB17420CFB3F
:100F000008F734BFA2EB0742B2EB074261EB17418F
:100F10004FEA0C444FEA910706FB07FC4FEA1C4CD2
:100F20000CFB0BF7B0EBC74072EB573203FB0CF72F
:100F300034BFA2EBC742B2EBC74261EB57310CFBA7
:100F40000EF7B0EBC70072EB57720CFB08F734BF1B
:100F5000A2EBC702B2EBC70261EB5771039F4FEAE6
:100F6000816141EA921104EBCC044FEAD1374FEA98
:100F7000826206FB07FC42EA90124FEA80604FEA69
:100F80001C4C0CFB0BF7D21B03FB0CF761EB0701AE
:100F90000CFB0EF7B0EB074072EB17420CFB08F7A7
:100FA00034BFA2EB0742B2EB074261EB17414FEAB5
:100FB0008C554FEA910704EB9C2406FB07FC4FEA93
:100FC0001C4C0CFB0BF7B0EBC74072EB573203FB2A
:100FD0000CF734BFA2EBC742B2EBC74261EB57310B
:100FE0000CFB0EF7B0EBC70072EB57720CFB08F767
:100FF00034BFA2EBC702B2EBC70261EB577115EB2E
:101000004C254FEA816141EA92114FEA82624FEA30
:10101000D13742EA901206FB07FC44F100044FEA84
:1010200080604FEA1C4C0CFB0BF7D21B03FB0CF748
:1010300061EB07010CFB0EF7B0EB074072EB1742B8
:101040000CFB08F734BFA2EB0742B2EB074261EB9F
:10105000174115EB1C154FEA813141EA92414FEAE5
:10106000823242EA90424FEA80304FEA0C7644F1F5
:10107000000448EA03434EEA0B484FF0000EB2EB7F
:10108000080C71EB030724BF624639464EEB0E0E87
:101090004FF0000B0018524149414BEB0B0BB2EBE8
:1010A000080C71EB03077BF1000B24BF6246394645
:1010B0004EEB0E0E4FF0000B0018524149414BEB26
:1010C0000B0BB2EB080C71EB03077BF1000B24BF99
:1010D000624639464EEB0E0E51EA020718BF46F043
:1010E000010616EB0E7655F1000254F1000103D50E
:1010F000BDE88901BDE80088BDE88901BDE8004878
:10110000B619524141EB0101A3F101037047808000
:101110007F7E7D7C7B7A7978777676757473727151
:1011200071706F6E6E6D6C6C6B6A6A696868676609
:1011300066656464636362616160605F5F5E5E5D9B
:101140005D5C5C5B5B5A5A5959585857575656550F
:1011500055555454535352525251515050504F4F71
:101160004F4E4E4D4D4D4C4C4C4B4B4B4A4A4A49C1
:101170004949484848474747474646464545454404
:101180004444444343434342424242414141002B91
:101190009C4630D477002BD01CB54FEA370703B4F8
:1011A0004FF010004FF01001BAF1000F06D0BCF163
:1011B000000FDCBF40F0080040F008014FF00000D5
:1011C0000FBCBDE810400BF1010BBBF1010F08BFD4
:1011D0005FEA170722BF12F1010211F101014FF07E
:1011E000004143F1000300F0004043EA0000704773
:1011F000F9D35708D0E746EA064613F1400F4FEA05
:1012000016461FDD13F1200FDFBF16430A460021EB
:1012100020335B42BED0C3F1200746EA064602FAFD
:1012200007F74FEA164646EA0706C3F1200722FAF7
:1012300003F201FA07F721FA03F14FF0000342EA43
:101240000702A7E746EA020646EA06464FEA1646BE
:1012500046EA0106BCBF46EA0646360C4FF00003DC
:101260004FF000024FF0000194E72DE9804C9A46C0
:10127000934670B491E8380007C831EA400C48BF83
:1012800034EA430C03D5FFF7E6FDFFF780FFF0BC1F
:10129000BDE8008C2DE9804C9A46934670B491E8E5
:1012A000380007C810F0804F08BF13F0804F03D1FB
:1012B00000F005F8FFF76BFFF0BCBDE8008C20F0F4
:1012C0007F4780EA030023F07F4C07EB0C03A3F574
:1012D0007C5300F00040A3F1FE0392F0000F00F0F9
:1012E000B38095F0000F00F077802DE901494FEAB7
:1012F00011404FEA144621EA004800FB06FC24EAAC
:10130000064708FB06F607FB08F800FB07F718EB93
:1013100006484CEB164C4FEA124B18EB07484FEAC5
:1013200015464CEB174022EA0B4E0BFB06FC25EA58
:1013300006470EFB06F607FB0EFE0BFB07F71EEB40
:10134000064E4CEB164C4FF000061EEB074E4CEBD6
:10135000174B18EB0B0840F1000018EB0E0B58EB85
:10136000000840F100008F1A4FF000013CBFC94354
:10137000661B14BFB5EB040C00213CBFC943F61B30
:101380004FEA17444EEA8E0E27EA04454FEA1C47FF
:1013900004FB07622CEA074C05FB07F70CFB05F67C
:1013A00004FB0CFC16EB074642EB174216EB0C460F
:1013B00042EB1C421BEB060658EB0202414146EA97
:1013C0009E0601D5BDE80189B619524141EB0101E4
:1013D000A3F10103BDE801894FEA14454FEA114723
:1013E00024EA054621EA074C05FB07F406FB07F74C
:1013F0000CFB06F105FB0CFC11EB074144EB174419
:101400004FEA124711EB0C4144EB1C4422EA074C13
:1014100005FB07F206FB07F70CFB06F605FB0CFCC9
:1014200016EB074642EB174216EB0C4642EB1C4507
:101430006A1854F1000148BF7047B619524141EB98
:101440000101A3F10103704795F0000F37D04FEA77
:1014500011424FEA144721EA024624EA074C02FBF4
:1014600007F106FB07F70CFB06F402FB0CFC14EB80
:10147000074441EB17414FEA154714EB0C4441EB8D
:101480001C4125EA074C02FB07F506FB07F70CFB9E
:1014900006F602FB0CFC16EB074645EB174516EB70
:1014A0000C4645EB1C42121951F1000148BF704730
:1014B000B619524141EB0101A3F1010370474FEA14
:1014C00014454FEA114724EA054621EA074C05FB7B
:1014D00007F106FB07F70CFB06F24FF0000605FBD1
:1014E0000CFC12EB074241EB174112EB0C4251EBA3
:1014F0001C4148BF7047921841EB0101A3F1010361
:10150000704700BFFEE770B50546AC6BA06B406D41
:10151000022802D0012084F82500204600F08AF835
:1015200070BD000010B5024800F0BAF810BD000010
:101530003C00002010B5024800F0E2FA10BD0000A7
:101540007C0000200146087810381823B0FBF3F225
:101550000848805CC865032A05D908686FF309004C
:10156000001D886503E008686FF309008865886DD1
:101570007047000036520008014600208A6A8B69D5
:10158000CBB932B1012A0DD0022A03D0032A10D1DF
:101590000EE000BFCB6A03F08073B3F1807F00D10F
:1015A000012007E0CB6AB3F1C07F00D1012001E048
:1015B00000E000BF34E08B69B3F5005F1AD132B1AF
:1015C000012A07D0022A03D0032A11D10AE000BF62
:1015D00001200EE0CB6A03F08073B3F1807F00D16D
:1015E000012006E0CB6AB3F1C07F00D1012000E00A
:1015F00000BF15E032B1012A05D0022A04D0032A27
:101600000CD103E000BF00BF012008E0CB6A03F06B
:101610008073B3F1807F00D1012000E000BF00BFE4
:101620007047704710B5402000F016FC10BD72B630
:1016300000BFFEE77047000010B586B004461149B0
:10164000206888421CD101200F4908700F48782378
:10165000A02200210090084602F072F90C480068B0
:10166000401C0B49086008460AA1026801A8FEF761
:1016700083FE002001AB1022B421009002F084FB15
:1016800006B010BD000005501000002054020020DC
:1016900014000020436170747572653A256400007F
:1016A00070B504462068056905F00400042812D1CD
:1016B00021684861E06B40F00200E063042084F898
:1016C00025002648A16B0865A06B00F004FA10B154
:1016D000A06BFFF718FF05F00200022812D1216865
:1016E0004861E06B40F00100E063042084F82500CD
:1016F0001A48A16B0865A06B00F0EDF910B1A06B62
:10170000FFF701FF05F01000102804D1216848619F
:10171000204600F06EF805F00800082804D1216882
:101720004861204600F080F905F00100A0B1206872
:10173000006800F00200022805D12068C06820F08F
:101740001E002168C8602068C06820F00100216880
:10175000C8602046FFF770FF70BD00000715000845
:1017600010B504460CB9012010BD94F8250040B90D
:10177000002084F82400204600F03CF8204600F0C9
:1017800039F8022084F825002068006840F6F871D6
:10179000884321680860616960680843E16808431C
:1017A00021690843A1680843A1690843216A0843E5
:1017B00021680968084321680860606810280BD117
:1017C000217F607F41EA0021A07F41EA0041E07F64
:1017D00041EA0060216888612068C06840F01E000E
:1017E0002168C8600020E063012084F82500002003
:1017F000BAE7704710B586B00446142101A8FEF779
:1018000092FE5E49206888427ED100BF0020009091
:101810005B48006840F001005949086008460068CC
:1018200000F00100009000BF00BF00BF002000904A
:10183000081F006840F01000091F08600846006893
:1018400000F01000009000BF00BF00BF002000901B
:101850000846006840F0010008600846006800F093
:101860000100009000BF00BF00BF002000900846AC
:10187000006840F0040008600846006800F00400BA
:10188000009000BF00BF00BF002000900846006825
:1018900040F0020008600846006800F00200009076
:1018A00000BF00BF70200190022002900120039031
:1018B000032004900D20059001A9324800F0DAFAC7
:1018C00050200190022002900120039003200490F8
:1018D0000D20059001A92C4800F0CCFA4FF470704F
:1018E00001900220029001200390032004900D201B
:1018F000059001A9254800F0BDFAC0200190022002
:1019000002900120039000E035E0032004900D20B8
:10191000059001A91E4800F0ADFA1E481E49086056
:101920004FF00070486000211B488160C1604FF497
:101930008061016189004161490081614911C16192
:101940004902016204214162032181620021C162D6
:10195000016300F0F5F908B1FFF769FE00BF0E481A
:10196000A063846300BF002201214E2000F010FC20
:101970004E2000F0F9FB06B010BD0000000005503D
:1019800034380240001002400000024000080240CB
:1019900000040240286402407C00002038B5044660
:1019A000204800680E21B0FBF1F00090002500BF38
:1019B00094F82400012801D1022038BD012084F8C8
:1019C000240000BF022084F825002068006820F071
:1019D00001002168086000BF0098411E009128B9ED
:1019E000E06B40F02000E063032505E0206800681C
:1019F00000F001000028EFD100BF2068006820F44B
:101A0000804021680860A06B00F00FF8E06BE06395
:101A1000012084F8250000BF002084F8240000BFC6
:101A20002846CAE724000020704770B50446A56D1B
:101A300000F020FB064694F83500022808D08020EC
:101A4000606500BF002084F8340000BF012070BD35
:101A50002068006820F0160021680860206840694E
:101A600020F0800021684861206C08B9A06C28B182
:101A70002068006820F0080021680860206800687D
:101A800020F001002168086010E000F0F3FA801BEC
:101A900005280BD920206065032084F8350000BF9D
:101AA000002084F8340000BF0320D0E720680068DD
:101AB00000F001000028E8D194F85C103F20884035
:101AC000A860012084F8350000BF002084F83400AD
:101AD00000BF00BFBBE7014691F83500022803D0E4
:101AE0008020486501207047052081F8350008688E
:101AF000006820F001000A6810600020F3E7000091
:101B0000F8B50446002000908C4800684FF4165148
:101B1000B0FBF1F7A56D2E6894F85C1008208840A2
:101B2000304098B12068006800F0040070B120686F
:101B3000006820F004002168086094F85C10082018
:101B40008840A860606D40F00100606594F85C100A
:101B500001208840304068B12068406900F0800072
:101B600040B194F85C1001208840A860606D40F09E
:101B70000200606594F85C1004208840304068B131
:101B80002068006800F0020040B194F85C10042066
:101B90008840A860606D40F00400606594F85C10B7
:101BA00010208840304078B32068006800F00800BA
:101BB00050B394F85C1010208840A860206800683A
:101BC00000F4802080B12068006800F4002028B96B
:101BD000206CC8B12046216C884715E0A06C98B1F4
:101BE0002046A16C88470FE02068006800F48070F0
:101BF00028B92068006820F0080021680860206C7F
:101C000010B12046216C884794F85C102020884051
:101C10003040002865D02068006800F010000028DF
:101C20005FD094F85C1020208840A86094F83500BC
:101C3000052828D12068006820F016002168086077
:101C40002068406920F0800021684861206C08B954
:101C5000A06C28B12068006820F0080021680860A6
:101C600094F85C103F208840A860012084F835007B
:101C700000BF002084F8340000BF206D10B1204662
:101C8000216D8847F8BD2068006800F4802080B18D
:101C90002068006800F4002028B9606C10B120466C
:101CA000616C88471DE0E06BD8B12046E16B884746
:101CB00017E02068006800F4807068B92068006848
:101CC00020F0100021680860012084F8350000BF72
:101CD000002084F8340000BFE06B10B12046E16BB7
:101CE0008847606D38B3606D00F00100F0B10520E9
:101CF00084F835002068006820F001002168086041
:101D000000BF0098401C0090B84200D905E0206850
:101D1000006800F001000028F3D100BF012084F822
:101D2000350000BF002084F8340000BFE06C10B123
:101D30002046E16C884700BFA4E700002400002093
:101D40002DE9F0410446002500F094F9074614B946
:101D50000120BDE8F081606A00B100BF022084F874
:101D6000350000BF002084F8340000BF2068006800
:101D700020F00100216808600AE000F07BF9C01B38
:101D8000052805D920206065032084F83500E0E7A8
:101D90002068006800F001000028EED12068056886
:101DA00021480540D4E901010843E168084321695D
:101DB000084361690843A1690843E1690843216A4E
:101DC00008430543606A042803D1D4E90B010843A2
:101DD0000543206805602068456925F00705606AAD
:101DE0000543606A04280DD1A06A0543E06A48B142
:101DF0002046FFF7C1FB28B140206065012084F830
:101E00003500A6E7206845612046FFF79BFB0646A4
:101E100094F85C103F208840B0600020606501208D
:101E200084F83500002094E73F8010F070B5044638
:101E300000F020F906462546681C10B104480078D9
:101E4000054400BF00F016F9801BA842FAD370BD0C
:101E5000200000207047000010B5044604480068C8
:101E6000204020B1024804602046FFF7F3FF10BD78
:101E7000143C0140F8B502460B4600250024002022
:101E80000021D6E0012606FA01F51E6806EA0504DF
:101E9000AC4274D11E7906F00306012E04D01E79DF
:101EA00006F00306022E13D190684F000326BE40B1
:101EB000B0434F00DE68BE4030439060506801265A
:101EC0008E40B0431E79C6F300168E4030435060FA
:101ED0001E7906F00306032E09D0D0684F000326B2
:101EE000BE40B0434F009E68BE403043D0601E7974
:101EF00006F00306022E13D1CF0802F1200656F891
:101F000027004E07F70E0F26BE40B0434F07FF0EC7
:101F10001E69BE403043CF0802F1200646F8270074
:101F200010684F000326BE40B0431E7906F003063A
:101F30004F00BE40304310605E6806F44036002E0D
:101F400076D000BF002600963C4E366846F48046A8
:101F50003A4F3E603E46366806F48046009600BF23
:101F600000BF374E8F0856F827008E07370F0F2611
:101F7000BE40B043334EB24202D1002624E057E0C7
:101F8000314EB24201D101261EE0304EB24201D1A3
:101F9000022619E02E4EB24201D1032614E02D4E46
:101FA000B24201D104260FE02B4EB24201D10526E8
:101FB0000AE02A4EB24201D1062605E0284EB2427E
:101FC00001D1072600E008268F073F0FBE403043AF
:101FD0001B4E8F0846F82700224E3068A0435E68EB
:101FE00006F4801606B120431E4E3060361D306860
:101FF000A0435E6806F4001606B12043194E361D54
:102000003060184E361F3068A0435E6806F4003614
:1020100006B12043134E361F3060361F3068A04390
:102020005E6806F4803606B120430E4E083E3060EE
:10203000491C1029FFF426AFF8BD000044380240C7
:10204000083801400000024000040240000802403D
:10205000000C024000100240001402400018024030
:10206000001C0240083C01400AB1816101E00B0400
:102070008361704701480068704700001800002025
:10208000034800680349097808440149086070471B
:10209000180000202000002010B50D48006840F412
:1020A00000700B4908600846006840F480600860D2
:1020B0000846006840F480700860032000F0A6F82D
:1020C0000F2000F007F800F02BF8002010BD0000F2
:1020D000003C024070B504460E4800784FF47A7117
:1020E000B1FBF0F00C490968B1FBF0F5284600F0AF
:1020F000B6FD08B1012070BD102C07D20022214688
:10210000501E00F045F80548046001E00120F2E7A8
:102110000020F0E720000020240000201C00002008
:1021200008B500BF002000900E48006840F48040D1
:102130000C4908600846006800F48040009000BF29
:1021400000BF00BF00200090081F006840F08050D2
:10215000091F08600846006800F08050009000BF2A
:1021600000BF08BD443802400146084600280DDB88
:1021700000BF00BF00F01F0301229A4043099B00EB
:1021800003F1E023C3F8002100BF00BF00BF704788
:102190002DE9F05F80460D461646002702F0C2FC8E
:1021A000074639462A46334601F00700C0F1070AC0
:1021B000BAF1040F02D94FF0040A01E0C0F1070A96
:1021C000D14600F1040ABAF1070F02D24FF0000A1B
:1021D00001E0A0F1030AD4464FF0010A0AFA09FA15
:1021E000AAF1010A0AEA020A0AFA0CFA4FF0010BF4
:1021F0000BFA0CFBABF1010B0BEA030B4AEA0B04E5
:102200002146404602F096FCBDE8F09F00BF00F07A
:102210000702064B19684FF6FF031940044B0B43A6
:1022200043EA0221014B196000BF70470CED00E04A
:102230000000FA0570B504460D460CB9012070BDCA
:102240005848006800F00700A84209D255490D70AF
:102250000846006800F00700A84201D00120EEE720
:10226000207800F0020002281DD1207800F0040040
:10227000042805D14C48006840F4E0504A49086001
:10228000207800F00800082805D14748006840F48D
:102290006040454908604448006820F0F000A168AB
:1022A000084341490860207800F00100A8B3606845
:1022B000012807D13C4808380068C0F34040B8B94D
:1022C0000120BCE76068022802D06068032807D1BB
:1022D000354808380068C0F3406048B90120AEE7CF
:1022E000314808380068C0F3400008B90120A6E76B
:1022F0002D48006820F00300616808432A490860FF
:10230000FFF7B8FE064609E0FFF7B4FE801B41F276
:102310008831884202D9032091E707E0224800680B
:1023200000F00C006168B0EB810FEDD11D48006832
:1023300000F00700A84209D91A490D700846006844
:1023400000F00700A84201D0012078E7207800F0D3
:102350000400042807D11448006820F4E050E16824
:10236000084311490860207800F00800082808D1C7
:102370000D48006820F46040216940EAC1000A4924
:10238000086000F03FF808490968C1F30311074AE3
:10239000515CC8400649086006480068FFF79AFE8D
:1023A00000204CE7003C0240083802403E52000842
:1023B000240000201C000020014800687047000035
:1023C0002400002000B5FFF7F7FF04490968C1F3B6
:1023D0008221034A515CC84000BD00000838024019
:1023E0004E52000800B5FFF7E7FF04490968C1F342
:1023F0004231034A515CC84000BD00000838024029
:102400004E5200082DE9F047002400250026A14681
:102410002548006800F00C0020B1042805D00828E9
:102420003AD105E0DFF8849039E0DFF8849036E0B7
:102430001D48001F006800F03F041B48001F006893
:1024400000F4800078B11A481749091F0968C1F3E0
:102450008811A0FB01700146224600233846FDF793
:1024600013FF05460EE011480F49091F0968C1F323
:102470008811A0FB01700146224600233846FDF773
:1024800003FF05460848001F0068C0F30140401CD8
:102490004600B5FBF6F902E0DFF8109000BF00BF80
:1024A0004846BDE8F0870000083802400024F400E8
:1024B00040787D01F8B504460CB90120F8BD2078BC
:1024C00000F00100002874D0F948006800F00C000A
:1024D00004280DD0F648006800F00C00082813D13D
:1024E000F348001F006800F48000B0F5800F0BD1A6
:1024F000EF4808380068C0F34040002859D06068B1
:10250000002856D10120D9E700BF6068B0F5803FB0
:1025100008D1E7480838006840F48030E4490839B9
:1025200008601EE06068B0F5A02F0DD1E0480838C3
:10253000006840F48020DE490839086008460068D9
:1025400040F4803008600CE0D9480838006820F476
:102550008030D749083908600846006820F4802098
:10256000086000BF606890B1FFF784FD054606E093
:10257000FFF780FD401B642801D903209EE7CC486B
:1025800008380068C0F340400028F1D011E0FFF7A0
:1025900071FD054606E0FFF76DFD401B642801D97B
:1025A00003208BE7C24808380068C0F34040002889
:1025B000F1D1207800F0020002285FD1BC48006809
:1025C00000F00C0058B1BA48006800F00C00082870
:1025D0001CD1B748001F006800F48000B0B9B448AF
:1025E00008380068C0F3400020B1E068012801D03D
:1025F000012063E7AE480838006820F0F800216940
:1026000040EAC100AA490839086037E0E06800B331
:102610000120A8490860FFF72DFD054606E0FFF7F9
:1026200029FD401B022801D9032047E7A0480838AC
:102630000068C0F340000028F1D09D4808380068C9
:1026400020F0F800216940EAC10099490839086082
:1026500014E0002097490860FFF70CFD054606E0EE
:10266000FFF708FD401B022801D9032026E7904808
:1026700008380068C0F340000028F1D1207800F04D
:10268000080008282CD16069A8B101208A49086097
:10269000FFF7F0FC054606E0FFF7ECFC401B0228C4
:1026A00001D903200AE782486C300068C0F340007B
:1026B0000028F1D014E000207F490860FFF7DAFC21
:1026C000054606E0FFF7D6FC401B022801D903208F
:1026D000F4E677486C300068C0F340000028F1D180
:1026E000207800F00400042870D1002770483830AA
:1026F000006800F0805090B900BF002000906C4846
:102700003830006840F08050694938310860084628
:10271000006800F08050009000BF00BF01276748AC
:10272000006800F48070B0B96448006840F48070BC
:1027300062490860FFF79EFC054606E0FFF79AFC39
:10274000401B022801D90320B8E65C48006800F469
:1027500080700028F2D000BFA068012808D154483A
:102760006830006840F001005149683108601DE0A0
:10277000A06805280DD14E486830006840F004007C
:102780004B49683108600846006840F00100086065
:102790000CE047486830006820F001004449683187
:1027A00008600846006820F00400086000BFA068C8
:1027B000A8B1FFF75FFC054609E0FFF75BFC401B93
:1027C00041F28831884202D9032077E626E0384872
:1027D00068300068C0F340000028EED013E0FFF737
:1027E00049FC054608E0FFF745FC401B41F28831F3
:1027F000884201D9032061E62D4868300068C0F3A3
:1028000040000028EFD1012F07D129483830006857
:1028100020F0805026493831086000BFA0690028A8
:1028200045D02348006800F00C0008285DD0A0695E
:10283000022845D100201F490866FFF71BFC05460A
:1028400006E0FFF717FC401B022801D9032035E6FC
:10285000174808380068C0F340600028F1D1D4E977
:1028600007010843616A40EA81110122A06AC2EBB4
:10287000500041EA00412C20005D41EA00600C4913
:10288000091F086001200B490866FFF7F3FB0546A6
:1028900006E0FFF7EFFB401B022801D903200DE6FD
:1028A000034808380068C0F340600028F1D049E0D0
:1028B0000838024000004742800E47420070004046
:1028C000002021490866FFF7D5FB054606E0FFF723
:1028D000D1FB401B022801D90320EFE51B4800680B
:1028E000C0F340600028F2D12CE0A069012800D19B
:1028F000E4E51648001D0668A069012820D006F40A
:102900008001E06981421BD106F03F01206A8142CB
:1029100016D147F6C0703040616AB0EB811F0FD10D
:1029200006F440310122A06AC2EB5000B1EB004F27
:1029300006D106F070612C20005DB1EB006F01D074
:102940000120BBE50020B9E5000047420038024005
:1029500010B504460CB9012010BD606A38B9606832
:10296000B0F5827F00D105E00021E16102E00021A5
:10297000216161610021A16294F8510028B9002011
:1029800084F85000204600F047F8022084F85100F7
:102990002068006820F0400021680860A08800F4EA
:1029A0008270218901F404410843A18901F4006186
:1029B0000843217C01F002010843217D01F001015F
:1029C0000843218B01F400710843217F01F0380195
:1029D00008432021095D01F080010843218D01F4A5
:1029E00000510843216808600421A06901EA1040F1
:1029F00094F8241001F01001084321684860206811
:102A0000C06920F400602168C86100206065012071
:102A100084F8510000209FE710B586B004461421C9
:102A200001A8FDF780FD1B492068884230D100BF16
:102A3000002000901848006840F4004016490860E3
:102A40000846006800F40040009000BF00BF00BFCF
:102A50000020009010481038006840F004000E4933
:102A6000103908600846006800F00400009000BFBC
:102A700000BF4FF4E050019002200290002003902C
:102A8000032004900620059001A90448FFF7F2F9FD
:102A900006B010BD003C0040403802400008024033
:102AA0002DE9F84304460F4616461D46FFF7E2FAA5
:102AB0008046B14694F85100012802D00220BDE8BA
:102AC000F88307B10EB90120F9E700BF94F8500070
:102AD000012801D10220F2E7012084F8500000BF54
:102AE000032084F85100002060652763A686E686EF
:102AF000A063A087E08760642064A068B0F5004F01
:102B00000BD12068006820F0400021680860206830
:102B1000006840F48040216808602068006800F088
:102B20004000402805D02068006840F0400021683F
:102B30000860E068B0F5006F37D1606810B1B9F196
:102B4000010F09D1206B00882168C860206B801CB0
:102B50002063E08E401EE08623E02068806800F05D
:102B6000020002280AD1206B00882168C860206B0F
:102B7000801C2063E08E401EE08612E0FFF77AFAA8
:102B8000A0EB0800A84201D3681C00B94DB9012090
:102B900084F8510000BF002084F8500000BF0320DB
:102BA0008DE7E08E0028D8D136E0606810B1B9F129
:102BB000010F09D1206B007821680873206B401C3D
:102BC0002063E08E401EE08623E02068806800F0ED
:102BD000020002280AD1206B007821680873206B5C
:102BE000401C2063E08E401EE08612E0FFF742FAB0
:102BF000A0EB0800A84201D3681C00B94DB9012020
:102C000084F8510000BF002084F8500000BF03206A
:102C100055E7E08E0028D8D142462946204601F0EB
:102C200047FB08B120206065A06850B900BF0020B4
:102C300000902068C068009020688068009000BF05
:102C400000BF012084F8510000BF002084F850002C
:102C500000BF606D08B1012031E700202FE770B59B
:102C600004462546681EB0F1807F01D301200FE0A5
:102C7000681E4FF0E02148610F214FF0FF3001F056
:102C800059FF00204FF0E0218861072008610020F3
:102C900070BD70477047000030B502460B4600BF5C
:102CA00092F83C00012801D1022030BD012082F8B9
:102CB0003C0000BF022082F83D00106844681068A4
:102CC000816824F070041868044310684460184D4B
:102CD0001068A8421BD01068B0F1804F17D0154D76
:102CE0001068A84213D0144D1068A8420FD0134D9D
:102CF0001068A8420BD0124D1068A84207D0114DA1
:102D00001068A84203D0104D1068A84205D121F0E8
:102D100080015868014310688160012082F83D00FD
:102D200000BF002082F83C0000BF00BFBDE70000EC
:102D3000000001400004004000080040000C00407A
:102D400000040140004001400018004010B5044656
:102D50000CB9012010BD94F83D0028B9002084F87A
:102D60003C00204600F026F8022084F83D00211D9A
:102D7000206801F0CFFB012084F8460000BF84F8F2
:102D80003E0001213F2001554020015541200155C1
:102D900000BF00BF012084F84200432001554420B9
:102DA00001554520015500BF012084F83D00002059
:102DB000D0E7000038B504462068B0F1804F18D144
:102DC00000BF002000901948006840F0010017493A
:102DD00008600846006800F00100009000BF00BFD6
:102DE000002203211C20FFF7D3F91C20FFF7BCF9B8
:102DF0001BE00F492068884217D100BF00200090D7
:102E00000A48006840F00200084908600846006867
:102E100000F00200009000BF00BF002205211D202D
:102E2000FFF7B6F91D20FFF79FF938BD4038024083
:102E300000040040014691F83D00012801D0012026
:102E40007047022081F83D000868C06840F001002A
:102E50000B68D8601A4B086898421BD00868B0F11C
:102E6000804F17D0174B0868984213D0164B08684C
:102E700098420FD0154B086898420BD0144B086845
:102E8000984207D0134B0868984203D0124B086849
:102E900098420CD10868806800F00702062A0CD01E
:102EA0000868006840F001000B68186005E00868D9
:102EB000006840F001000B6818600020C0E70000C7
:102EC000000001400004004000080040000C0040E9
:102ED000000401400040014000180040014608681D
:102EE000C06820F001000A68D06000BF0868006A6E
:102EF00041F21112104050B90868006A9210104057
:102F000028B90868006820F001000A68106000BF56
:102F1000012081F83D00002070472DE9F041044672
:102F20000D46002700BF94F83C00012802D1022082
:102F3000BDE8F081012084F83C0000BF022084F845
:102F40003D002068866826F0770626F47F462068D4
:102F500086602868502833D00CDC202850D004DC50
:102F600000284BD0102851D149E0302849D04028C2
:102F70004CD139E060282DD0702807D0B0F5805FA3
:102F800003D0B0F5005F41D10DE041E0D5E9021377
:102F90006A68206801F03FFB2068866846F0770683
:102FA0002068866034E0D5E902136A68206801F081
:102FB00032FB2068806840F480402168886027E008
:102FC000EA686968206801F03AFB5021206801F046
:102FD0002DFB1DE0EA686968206801F08BFB602129
:102FE000206801F023FB13E0EA686968206801F0BB
:102FF00026FB4021206801F019FB09E000BF00BF5B
:1030000000BF2968206801F011FB01E0012700BF23
:1030100000BF012084F83D0000BF002084F83C0080
:1030200000BF384684E7000070B52DED068B86B0F2
:1030300004463149206888425AD1207F022857D15E
:103040000421204600F080FB05462C480078D0B3D0
:103050002B48056000202949087029480068294943
:103060000968461A304601F057FF41EC1A0B9FEDF4
:10307000260B53EC102B01F063FF41EC190B9FED75
:10308000240B53EC102B01F0EFFD41EC180B01F079
:10309000B9FD214908600846006802F04FF841EC8C
:1030A000180B53EC182B1DA101A8FDF765F90020A2
:1030B00001AB1022DC21009000F066FE04211948CB
:1030C00000F0E6F913E0FFE70E48056001200B4928
:1030D000087000BF2068006A20F0A0002168086224
:1030E0002068006A40F020002168086200BF00BF2D
:1030F00006B0BDEC068B70BD000001403100002021
:1031000038000020340000209CC420B07268A13F29
:1031100000000000000000402C000020252E326638
:1031200000000000340100202DE9F04104460D4666
:103130001646002700BF94F83C00012802D1022067
:10314000BDE8F081012084F83C0000BF96B9EB682F
:10315000D5E90012206801F085FA2068806920F026
:103160000C002168886120688069A968084321688B
:10317000886141E0042E13D1EB68D5E90012206884
:1031800001F0CCFA2068806920F4406021688861F1
:1031900020688069A96840EA0120216888612BE0E5
:1031A000082E12D1EB68D5E90012206801F0D3FA9D
:1031B0002068C06920F00C002168C8612068C069DF
:1031C000A96808432168C86116E00C2E13D1EB688A
:1031D000D5E90012206801F0DAFA2068C06920F40D
:1031E00040602168C8612068C069A96840EA012080
:1031F0002168C86100E0012700BF002084F83C007E
:1032000000BF38469CE710B504460CB9012010BD3C
:1032100094F83D0028B9002084F83C00204600F0D6
:1032200025F8022084F83D00211D206801F072F984
:10323000012084F8460000BF84F83E0001213F20B1
:103240000155402001554120015500BF00BF01201C
:1032500084F8420043200155442001554520015582
:1032600000BF012084F83D000020D0E710B586B0F3
:103270000446142101A8FDF756F91E49206888422A
:1032800036D100BF002000901B48006840F00100CC
:10329000194908600846006800F00100009000BF6E
:1032A00000BF00BF0020009013481438006840F0B1
:1032B00010001149143908600846006800F0100039
:1032C000009000BF00BFC8140190022002900020AF
:1032D000039004900120059001A90848FEF7CAFD5B
:1032E000002204211B20FEF753FF1B20FEF73CFFAA
:1032F00006B010BD000001404438024000100240FA
:103300002DE9F04304460D46002615B994F83E0019
:103310000BE0042D02D13F20005D06E0082D02D114
:103320004020005D01E04120005D804615B994F821
:1033300042000BE0042D02D14320005D06E0082D81
:1033400002D14420005D01E04520005D8146B8F1D6
:10335000010F02D1B9F1010F02D00120BDE8F083C5
:103360001DB9022084F83E000EE0042D03D1022195
:103370003F20015508E0082D03D1022140200155CE
:1033800002E00221412001551DB9022084F84200CB
:103390000EE0042D03D102214320015508E0082D41
:1033A00003D102214420015502E0022145200155AC
:1033B00035B1042D0BD0082D10D00C2D1CD114E0EC
:1033C0002068C06840F002002168C86016E02068EC
:1033D000C06840F004002168C8600FE02068C06841
:1033E00040F008002168C86008E02068C06840F02C
:1033F00010002168C86001E0012600BF00BF86BB45
:1034000001222946206801F0F5F81A49206888420F
:103410001BD02068B0F1804F17D017492068884230
:1034200013D01649206888420FD015492068884279
:103430000BD014492068884207D01349206888427D
:1034400003D01249206888420CD12068806800F0BF
:103450000707062F0CD02068006840F001002168A3
:10346000086005E02068006840F0010021680860FD
:10347000304673E7000001400004004000080040AF
:10348000000C0040000401400040014000180040D2
:1034900070B504460D46002635B1042D0BD0082D1D
:1034A00010D00C2D1CD114E02068C06820F0020060
:1034B0002168C86016E02068C06820F00400216818
:1034C000C8600FE02068C06820F008002168C8606C
:1034D00008E02068C06820F010002168C86001E0A2
:1034E000012600BF00BF002E3FD1002229462068E0
:1034F00001F080F800BF2068006A41F21111084015
:1035000050B92068006A8910084028B9206800680E
:1035100020F001002168086000BF1DB9012084F877
:103520003E000EE0042D03D101213F20015508E0AB
:10353000082D03D101214020015502E00121412045
:1035400001551DB9012084F842000EE0042D03D17D
:1035500001214320015508E0082D03D10121442019
:10356000015502E0012145200155304670BD70B57E
:1035700004462068C5682068066906F00200022833
:1035800019D105F00200022815D1401F21680861F9
:10359000012020772068806900F0030018B12046E0
:1035A000FFF742FD05E0204600F097F8204600F0C6
:1035B00095F80020207706F00400042819D105F0C2
:1035C0000400042815D1C043216808610220207737
:1035D0002068806900F4407018B12046FFF724FD90
:1035E00005E0204600F079F8204600F077F800204A
:1035F000207706F00800082819D105F008000828EF
:1036000015D1C04321680861042020772068C06973
:1036100000F0030018B12046FFF706FD05E0204644
:1036200000F05BF8204600F059F80020207706F003
:103630001000102819D105F01000102815D1C04332
:1036400021680861082020772068C06900F4407074
:1036500018B12046FFF7E8FC05E0204600F03DF8F1
:10366000204600F03BF80020207706F0010048B12A
:1036700005F0010030B16FF00100216808612046BB
:1036800000F02EF806F08000802809D105F08000B7
:10369000802805D1C043216808612046FFF7F9FA68
:1036A00006F04000402809D105F04000402805D12F
:1036B000C04321680861204600F05FF806F0200052
:1036C000202809D105F02000202805D1C043216819
:1036D00008612046FFF7DEFA70BD704770470000B2
:1036E00010B504462068B0F1804F03D100F0D6FD3C
:1036F00001F064FA1049206888421BD100220115AC
:103700000E48FEF7B1FC0E48FFF7E8FB00BF0D487E
:103710000068006A20F0A0000A49096808620948A8
:103720000068006A07490968086200BF042105486B
:10373000FFF7E6FD10BD000000040040001002404D
:10374000C4010020340100200246002031B10429C8
:1037500007D0082908D00C290CD108E01368586B51
:1037600009E01368986B06E01368D86B03E01368F0
:10377000186C00E000BF00BF7047704710B50446EA
:103780000CB9012010BDA06900B100E000BF94F8A1
:10379000410028B9002084F84000204600F02AF8B3
:1037A000242084F841002068C06820F4005021687B
:1037B000C860204601F040F82068006920F490407D
:1037C000216808612068406920F02A00216848616A
:1037D0002068C06840F400502168C8600020606420
:1037E000202084F8410084F842000020606300BF7C
:1037F000C8E7000010B586B00446142101A8FCF704
:1038000092FE1B492068884230D100BF0020009002
:103810001848006840F01000164908600846006823
:1038200000F01000009000BF00BF00BF002000901B
:1038300010481438006840F001000E49143908603F
:103840000846006800F00100009000BF00BF4FF480
:10385000C060019002200290002003900320049099
:103860000720059001A90448FEF704FB06B010BD2F
:103870000010014044380240000002402DE9F84F9A
:1038800004460E46174699464FF0000A94F8410048
:10389000202850D106B117B90120BDE8F88F0020CB
:1038A0006064212084F84100FEF7E4FB8246A7848F
:1038B000E784A068B0F5805F04D1206910B90025C5
:1038C000B04602E035464FF000081EE053460022A5
:1038D00080212046CDF8009001F0C4F820B12020CE
:1038E00084F841000320D8E745B9B8F80000C0F3D8
:1038F00008002168486008F1020803E02878216880
:1039000048606D1CE08C401EE084E08C0028DDD116
:103910005346002240212046CDF8009001F0A2F845
:1039200020B1202084F841000320B6E7202084F84D
:1039300041000020B1E70220AFE700BFFEE7000032
:103940002DE9F04706460F4614461D46DDF8208057
:103950007819401E83B23019401E82B23946304673
:1039600000F05AF9012202210D48FEF77DFB0022EA
:1039700001210B48FEF778FB04FB05F04FEA4009F4
:103980001FFA89F24FF47A7341460648FFF788F828
:10399000012211460248FEF767FBBDE8F0870000F0
:1039A000000C0240DC00002070B504460D461646AF
:1039B000F02C02DAB5F5A07F00DB70BD2B46224665
:1039C0002946204600F028F9304600F043FA00BFAF
:1039D000F3E770B5054640F23F13EF220021084699
:1039E00000F01AF9002403E0284600F033FA641CC2
:1039F000B4F5963FF8D370BD10B500220421854878
:103A0000FEF732FB6420FEF711FA012204218148FF
:103A1000FEF72AFB6420FEF709FACF2000F0E2F956
:103A2000002000F0FBF9C12000F0F8F9302000F090
:103A3000F5F9ED2000F0D6F9642000F0EFF903204D
:103A400000F0ECF9122000F0E9F9812000F0E6F92D
:103A5000E82000F0C7F9852000F0E0F9002000F030
:103A6000DDF9782000F0DAF9CB2000F0BBF939203D
:103A700000F0D4F92C2000F0D1F9002000F0CEF9AC
:103A8000342000F0CBF9022000F0C8F9F72000F054
:103A9000A9F9202000F0C2F9EA2000F0A3F90020E3
:103AA00000F0BCF9002000F0B9F9C02000F09AF94C
:103AB000232000F0B3F9C12000F094F9102000F0A9
:103AC000ADF9C52000F08EF93E2000F0A7F92820BE
:103AD00000F0A4F9C72000F085F9862000F09EF9D7
:103AE000362000F07FF9482000F098F93A2000F0E5
:103AF00079F9552000F092F9B12000F073F9002017
:103B000000F08CF9182000F089F9B62000F06AF96D
:103B1000082000F083F9822000F080F9272000F0CF
:103B20007DF9F22000F05EF9002000F077F9262000
:103B300000F058F9012000F071F9E02000F052F98E
:103B40000F2000F06BF9312000F068F92B2000F015
:103B500065F90C2000F062F90E2000F05FF90820F2
:103B600000F05CF94E2000F059F9F12000F056F910
:103B7000372000F053F9072000F050F9102000F032
:103B80004DF9032000F04AF90E2000F047F9092012
:103B900000F044F9002000F041F9E12000F022F9A2
:103BA000002000F03BF90E2000F038F9142000F05E
:103BB00035F9032000F032F9112000F02FF9072029
:103BC00000F02CF9312000F029F9C12000F026F98D
:103BD000482000F023F9082000F020F90F2000F021
:103BE0001DF90C2000F01AF9312000F017F93620E9
:103BF00000F014F90F2000F011F9112000F0F2F894
:103C00007820FEF713F9292000F0ECF82C2000F0C2
:103C1000E9F810BD000C02402DE9F04104460D46C4
:103C200016461F462A2000F0DDF8201200F0F6F8B4
:103C3000E0B200F0F3F8301200F0F0F8F0B200F06B
:103C4000EDF82B2000F0CEF8281200F0E7F8E8B2EB
:103C500000F0E4F8381200F0E1F8F8B200F0DEF815
:103C60002C2000F0BFF8BDE8F08100002DE9FF4FE7
:103C700083B081468A469346DDE910643F48008858
:103C80000290A6F12000C6B204EBD47009EB6000EC
:103C9000401E82B20AEB0400401E83B251464846E1
:103CA0000194FFF7B9FF129850BB002525E00C2CBA
:103CB00007D106EB4600324901EB800010F8058081
:103CC00004E0304800EB061010F8058000270DE0F6
:103CD00008F0010018B1584600F0BCF802E0069860
:103CE00000F0B8F84FEA6808781CC7B204EBD4714A
:103CF000B7EB610FECDB681CC5B2A542D7DB2FE048
:103D000000252BE00C2C07D106EB46001C4901EBEB
:103D1000800010F8058004E01A4800EB061010F847
:103D20000580002713E01548A0F800B008F0010056
:103D300048B10AEB050291B209EB070290B20F4AB3
:103D40001288FFF731FE4FEA6808781CC7B204EB0F
:103D5000D471B7EB610FE6DB681CC5B2A542D1DBBD
:103D6000064902980880EF2340F23F1200210846DE
:103D7000FFF752FF07B0BDE8F08F000028000020D9
:103D800056520008CA5600082DE9FE4306460F4663
:103D900015461C46DDF8288018E0B6F5A07F01DA4C
:103DA000EF2F01DDBDE8FE8320788DE821010B486F
:103DB00003880B48028839463046FFF757FF2846EC
:103DC00005EBD07106EB61018EB2641C20787E2871
:103DD00002DC20782028E0DA00BFE3E72A00002098
:103DE0002800002001B5002202210A48FEF73CF914
:103DF000002201210748FEF737F94FF0FF33012277
:103E000069460548FEF74CFE012211460148FEF7BF
:103E10002BF908BD000C0240DC00002001B5012296
:103E200002210A48FEF720F9002201210748FEF787
:103E30001BF94FF0FF33012269460548FEF730FEBB
:103E4000012211460148FEF70FF908BD000C02409F
:103E5000DC00002038B5044620128DF80000E0B2E6
:103E60008DF80100012202210A48FEF7FDF8002228
:103E700001210848FEF7F8F84FF0FF3302226946A7
:103E80000548FEF70DFE012211460248FEF7ECF848
:103E900038BD0000000C0240DC00002010B50E48C8
:103EA0000E4908600020486020210C4881600021F4
:103EB000C1600161416181610162FDF751FC08B19E
:103EC000FDF7B5FB05480068C06840F001000349F4
:103ED0000968C86010BD0000000005503C000020CB
:103EE00008B500BF002000900A48006840F4800038
:103EF000084908600846006800F48000009000BF90
:103F000000BF002202213920FEF742F93920FEF7D6
:103F10002BF908BD3038024000B587B0142102A843
:103F2000FCF701FB00BF002001906048006840F0F2
:103F300010005E4908600846006800F0100001901B
:103F400000BF00BF00BF002001900846006840F09D
:103F5000800008600846006800F08000019000BF03
:103F600000BF00BF002001900846006840F001003B
:103F700008600846006800F00100019000BF00BF23
:103F800000BF002001900846006840F0040008606F
:103F90000846006800F00400019000BF00BF00BFA9
:103FA000002001900846006840F0080008600846BC
:103FB000006800F00800019000BF00BF00BF0020B3
:103FC00001900846006840F040000860084600681C
:103FD00000F04000019000BF00BF00BF0020019032
:103FE0000846006840F0020008600846006800F0DB
:103FF0000200019000BF00BF012209152C48FEF706
:1040000033F8012207212B48FEF72EF801224FF446
:1040100002412948FEF728F801224FF44071274851
:10402000FEF722F84FF48060029001200390049084
:104030000220059002A91E48FDF71CFF07200290F0
:104040000120039004900320059002A91948FDF770
:1040500011FF402002904FF40410039001200490BF
:1040600002A91448FDF706FF4FF402400290012018
:10407000039004900320059002A90F48FDF7FAFE73
:104080004FF44070029001200390049003200590AB
:1040900002A90A48FDF7EEFE002206211720FEF7CE
:1040A00077F81720FEF760F807B000BD30380240FF
:1040B00000100240000C02400018024000040240C0
:1040C00010B50E480E4908604FF482704860002118
:1040D0000B488160C160016141614FF400718161F1
:1040E0000821C16100210162416281620A21C1622D
:1040F000FEF72EFC08B1FDF79AFA10BD003C004017
:10410000DC00002000B587B00020059006900190EB
:1041100002900390049018481849086053204860A2
:104120000021164881604FF6FF71C16000210161D6
:10413000416180218161FFF766F808B1FDF777FAE8
:1041400000200590069005A90C48FEF7A5FD08B1D2
:10415000FDF76DFA002001900120029000200390ED
:104160000490042201A90548FEF7DEFF08B1FDF71F
:104170005EFA07B000BD00000000014034010020DD
:1041800000B587B000200390049005900690019040
:1041900002904FF080401549086042F2CF0048601D
:1041A00000211248816042F20F71C160002101615B
:1041B00080218161FEF7CAFD08B1FDF738FA4FF49E
:1041C0008050039003A90948FEF7A7FE08B1FDF748
:1041D0002EFA00200190029001A90448FEF75CFD30
:1041E00008B1FDF724FA07B000BD00007C010020F3
:1041F00000B587B0002003900490059006900190D0
:104200000290144814490860532048600021124865
:1042100081604FF6FF71C160002101618161FEF78D
:1042200095FD08B1FDF703FA4FF48050039003A900
:104230000948FEF772FE08B1FDF7F9F90020019078
:10424000029001A90448FEF727FD08B1FDF7EFF938
:1042500007B000BD00040040C401002010B50B48A9
:104260000B4908604FF4E130486000210848816044
:10427000C16001610C21416100218161C161FFF7D1
:104280007DFA08B1FDF7D3F910BD00000010014020
:104290000C02002000BFFEE700BFFEE710B5024899
:1042A000FDF77CFB10BD00003C00002070470000C3
:1042B0007CB504460E4615463346012202212046AF
:1042C000009500F039F828B1606D40F0200060657D
:1042D00003207CBD164800681821B0FBF1F0154999
:1042E000B0FBF1F04FF47A71484301906068B0F58B
:1042F000827F0DD13346002280212046009500F0B8
:104300001BF898B1606D40F0200060650320E0E785
:1043100000BF019800B908E00198401E0190206894
:104320008068C0F3C0100028F3D100BF0020D0E7A0
:104330002400002040420F002DE9F84F04460D46AE
:1043400090461E46DDF82890FDF794FEA0EB09008C
:10435000371AFDF78FFE82462C480068C0F3CB3039
:104360007843009046E0701C002843D0FDF782FEA1
:10437000A0EB0A00B84200D2A7BB2068406820F03A
:10438000E000216848606068B0F5827F0DD1A068C8
:10439000B0F5004F03D0A068B0F5806F05D120685C
:1043A000006820F0400021680860A06AB0F5005F56
:1043B0000DD100BF2068006820F40050216808601B
:1043C0002068006840F400502168086000BF0120A8
:1043D00084F8510000BF002084F8500000BF032083
:1043E000BDE8F88FFFE7009808B9002702E00098C1
:1043F000401E0090206880682840A84201D101201A
:1044000000E000204045AED10020E9E72400002074
:10441000704710B5FDF734FE10BD000000B593B035
:10442000302107A8FCF77FF8142102A8FCF77BF8DD
:1044300000BF002001902448006840F080502249CD
:1044400008600846006800F08050019000BF00BF7F
:1044500000BF002001901D48006840F480401B49C7
:1044600008600846006800F48040019000BF00BF6B
:10447000012007900004089002200D9041050E9144
:1044800019210F914FF4A87110910221119104216B
:10449000129107A8FEF70EF808B1FDF7C8F80F2033
:1044A000029002200390002004904FF4A050059049
:1044B0004FF480500690052102A8FDF7BBFE08B11D
:1044C000FDF7B5F813B000BD403802400070004061
:1044D0000348006840F4700001490860704700001C
:1044E00088ED00E010B50248FFF741F810BD00006C
:1044F0003401002010B50248FFF739F810BD000064
:104500007C01002010B50248FFF731F810BD000013
:10451000C401002010B502682B4B98420ED0B0F1B8
:10452000804F0BD0294B984208D0294B984205D098
:10453000284B984202D0284B984203D122F07002B7
:104540004B681A43204B984220D0B0F1804F1DD0C9
:104550001E4B98421AD01E4B984217D01D4B9842C2
:1045600014D01D4B984211D01C4B98420ED01C4BBE
:1045700098420BD01B4B984208D01B4B984205D059
:104580001A4B984202D01A4B984203D122F440723F
:10459000CB681A4322F080034C6943EA04028B681B
:1045A000C3620B688362084B984202D00A4B984260
:1045B00001D10B690363036843F004030360012323
:1045C0004361026010BD0000000001400004004093
:1045D00000080040000C0040000401400040014081
:1045E000004401400048014000180040001C004009
:1045F0000020004030B501F01F05012404FA05F346
:10460000046A9C430462046A01F01F0502FA05F57E
:104610002C43046230BD30B50C46816821F47F41E3
:1046200042EA032525432943816030BD0A4681685B
:1046300021F0700142F0070319438160704730B5E3
:104640000B461446026A056A25F001050562816978
:1046500021F0F00141EA041122F00A021A438161BB
:10466000026230BD70B50C461546026A066A26F035
:10467000010606628169184EB04214D0B0F1804F35
:1046800011D0164EB0420ED0154EB0420BD0154E82
:10469000B04208D0144EB04205D0144EB04202D001
:1046A000134EB04201D1012600E000261EB121F0D8
:1046B0000301294301E041F0010121F0F001F0265E
:1046C00006EA0316314322F00A0204F00A063243D6
:1046D0008161026270BD00000000014000040040E2
:1046E00000080040000C0040000401400040014070
:1046F0000018004030B50B461446026A056A25F0E2
:1047000010050562816921F4704141EA043122F00B
:10471000A00242EA03128161026230BD70B50C460C
:104720001546026A066A26F010060662816921F4BF
:10473000407141EA052121F470414FF4704606EAC8
:104740000336314322F0A002A02606EA04163243C3
:104750008161026270BD70B50C461546026A066A38
:1047600026F480760662C16921F00301294321F015
:10477000F001F02606EA0316314322F420624FF4DA
:10478000206606EA04263243C161026270BD70B53C
:104790000C461546026A066A26F480560662C1690E
:1047A00021F4407141EA052121F470414FF4704633
:1047B00006EA0336314322F420424FF4204606EA4B
:1047C00004363243C161026270BD00BF00BF02689F
:1047D0000C3252E8002F22F4907102680C3242E849
:1047E0000013002BF3D100BF00BF00BF02681432DA
:1047F00052E8002F22F001010268143242E800134F
:10480000002BF3D100BF016B01290ED100BF00BF07
:1048100002680C3252E8002F22F0100102680C32BC
:1048200042E80013002BF3D100BF202180F8421092
:1048300000210163704700002DE9F84F044620680D
:10484000006920F44050E16808432168086121694B
:10485000A068084361690843E16908430090206843
:10486000C06849F20C618843009908432168C86018
:104870002068406920F44070A169084321684861BC
:1048800076492068884203D075492068884203D160
:10489000FDF7A8FD814602E0FDF794FD8146E06941
:1048A000B0F5004F6CD102206168A0FB01500346B7
:1048B0001920A9FB007001462A463846FBF7E4FCA4
:1048C0006421B0FBF1F04FEA001A02206168A0FBFE
:1048D00001510B461920A9FB00712A463846FBF707
:1048E000D3FC834602206168A0FB015003461920D7
:1048F000A9FB00712A463846FBF7C6FC6421B0FBD1
:10490000F1F000EBC00101EB0010ABEB80003221B5
:1049100001EBC0006421B0FBF1F000F0F8000AEBFD
:10492000400A02206168A0FB015003461920A9FB40
:10493000007001462A463846FBF7A6FC8346022053
:104940006168A0FB015003461920A9FB00712A46AB
:104950003846FBF799FC6421B0FBF1F000EBC00195
:1049600001EB0010ABEB8000322101EBC0006421B1
:10497000B0FBF1F000F007005044216888606AE065
:1049800004206168A0FB015003461920A9FB0070B8
:1049900001462A463846FBF777FC824604206168C8
:1049A000A0FB015003461920A9FB007001462A46CE
:1049B0003846FBF769FC6421B0FBF1F000EBC00165
:1049C00001EB0010AAEB8000322101EB0010642102
:1049D000B0FBF1F000F0F00A04206168A0FB017068
:1049E00003461920A9FB00513A462846FBF74CFC28
:1049F0006421B0FBF1F00AEB001A04206168A0FB0F
:104A000001510B461920A9FB00712A463846FBF7D5
:104A10003BFC834604206168A0FB0150034619203B
:104A2000A9FB007001462A463846FBF72DFC64219D
:104A3000B0FBF1F000EBC00101EB0010ABEB80002C
:104A4000322101EB00106421B0FBF1F000F00F0007
:104A5000504421688860BDE8F88F000000100140D4
:104A6000001401402DE9F84304460D4617469846C8
:104A7000089E31E0701C70B3FDF7FCFAA0EB080053
:104A8000B04200D816B90320BDE8F8832068C0689A
:104A900000F00400F8B1802D1ED0402D1CD02068FD
:104AA0000068C0F3C000B0B100BF002000902068D3
:104AB0000068009020684068009000BF00BF20465A
:104AC000FFF783FE0820606400BF002084F84000E8
:104AD00000BF0120D8E7FFE7206800682840A8420F
:104AE00001D1012000E00020B842C3D00020CBE774
:104AF00000BFFEE703B401984100009850EAC120CE
:104B000018BF04204A0D18BF40F0010040F2FF72A8
:104B1000B2EB515F08BF40F00200012808BF05203A
:104B200002B0704702480068C0F3022070470000DE
:104B30000CED00E010B5002804DB0A07130E054A4F
:104B4000135406E00A07140E034A00F00F031B1F5C
:104B5000D45410BD00E400E018ED00E030380A281D
:104B600001D20120704700207047000000BF00BF45
:104B7000FDF792FAFFF752FCFFF7CEF9FFF7B0F915
:104B8000FFF79EFAFFF78AF9FFF7BCFAFFF7F8FA8A
:104B9000FFF72EFBFFF762FBFEF72EFF0020FEF76C
:104BA00018FF4FF6FF730D2202490348FEF766FE19
:104BB00000BFFEE7000000200C02002010B501221B
:104BC00091020348FDF750FA0248FEF733F910BD91
:104BD00000100240C401002010B500290AD0087856
:104BE000002807D005487844FCF77CF8002801D05D
:104BF000002010BD0248784410BD00008A1100005A
:104C00008211000021F00042A2F16052B2F5801F33
:104C100001F0004328BFD2F17F6C0BD95FEA001C82
:104C200043EAC20242EB507018BF704728BF20F021
:104C300001007047B2F5801FBCBF184670474FEAAD
:104C4000410C1CF5001F02D2084600F0EDBA70B509
:104C500000F020FA00000089FFF7F6BF4FF0004097
:104C6000A0F58000704700002DE9C04130B4DFF8A6
:104C7000A0C23CEA111418BF3CEA131400F0EC8007
:104C800081EA03051CEA111444EAD57418BF1CEA32
:104C9000131500F0C780A4EB05044FF0004545EA6A
:104CA000C12145EAC32341EA505143EA525304F17A
:104CB0007F74994204F500344FEAC0204FEAC222C3
:104CC00008BF904200F09C804FEA13650FF2401637
:104CD000765D4FEA134506FB05F7C7F1807706FBC3
:104CE00007F74FEAD737A7FB03687642C8F5803845
:104CF000A7FB06CE38BFA8F1010807FB08E64FF076
:104D0000000EA6FB028CE6FB03CEDCF1000CCEF11C
:104D1000004E38BFAEF1010EA6FB0C584FF0000755
:104D20004FF00005E6FB0E87A1FB08C6A0FB07CEEF
:104D300016EB0E0645F10005E1FB076515F1E04EA7
:104D40007EBFA4F580345FEA46066D4116F1800708
:104D500045F100054FEA17274FEA066647EA05675F
:104D6000A6F1DE46B6F1805F4FEA15251FD9384619
:104D700024F0010C05EBC471BCF1FE6F01EB0C11CA
:104D800002D8F0BCBDE8008124425CBF01F5801E62
:104D90009EEAC47F02D4F0BCBDE80081244238D42E
:104DA000F0BCA1F1C041BDE8004100F0C1B94FEA3B
:104DB000D22242EA43524FEAD323A7FB02864FEAAC
:104DC000D02040EA415007FB03661EEA0E0F4FEA6F
:104DD000D12105FB026658BFA6EB0056B6EB005684
:104DE0004FEA520E4EEAC37E18EB0E0E56EB530EF0
:104DF000BDD518EB02085E417F1C55F10005B6E7F2
:104E00004FF480154FF000074FF000064FF00008F8
:104E1000ADE7F0BC4FF0000001F1C04101F00041EE
:104E2000BDE8008111EA0C1F0CEA131500D00CE05C
:104E300013EA0C1F00F025804FF00000F0BC81EA5F
:104E4000030101F00041BDE80081F0BCBDE8004174
:104E500081EA030100F06CB9F0BCBDE8004170B517
:104E600000F018F9097EFC3E00F007B881EA030162
:104E70004FF0000001F00041704781EA030100F0AB
:104E800057B9F0BCBDE800414FF000002149704720
:104E9000FFFDFBF9F7F5F4F2F0EEEDEBE9E8E6E4FF
:104EA000E3E1E0DEDDDBDAD8D7D5D4D3D1D0CFCD86
:104EB000CCCBCAC8C7C6C5C4C2C1C0BFBEBDBCBBBF
:104EC000BAB9B8B7B6B5B4B3B2B1B0AFAEADACABBA
:104ED000AAA9A8A8A7A6A5A4A3A3A2A1A09F9F9E94
:104EE0009D9C9C9B9A999998979796959594939346
:104EF000929191908F8F8E8E8D8C8C8B8B8A8989DD
:104F0000888887878685858484838382828181805F
:104F10000000FF070000F87FB0FA80F310FA03F1F9
:104F20000AD0C3F11D0303F580634FEA41504FEAF5
:104F3000035202EBD12170474FF000007047000090
:104F4000DFF848C170B51CEA111E1EBF1CEA13151C
:104F50009EEA0C0F95EA0C0F00F06F8081EA0304C3
:104F600023EA4C134EEAD47E21EA4C1141F480111D
:104F700043F48013AE44A1FB024CA0FB0365AEF1E9
:104F80007F7E361955EB0C05A1FB034C4CF1000359
:104F9000A0FB021C16EB0C06654153F1000309420D
:104FA00018BF46F0010613F4007F0BD14FEA03311E
:104FB0004FEA0530340341EA155140EA16506FF0CC
:104FC00003020AE04FEAC3214FEAC520F40241EA96
:104FD000555140EA56506FF0020202EB2E4201EBAF
:104FE000025585EACE710AD05FEA440C18BF24F05E
:104FF000004450F1000041F1000120EAD47040F279
:10500000FE7C624500D270BDA84214BF4FF08044C0
:105010004FF04044002E08BF0024BEF1806FA8BFAF
:10502000A1F1C041BDE8704080F282804FF00000E5
:1050300001F1C04101F0004170479EEA0C0F0CEAFB
:10504000131518BF95EA0C0F06D04FF0000081EA47
:10505000030E0EF0004170BD00F01CF88900013E07
:1050600000F007B800F009B84FEA430C5FEA5C5C57
:1050700008D081EA030100F05BB84FEA410C5FEA17
:105080005C5CF6D14FF00000014970470000FF075B
:105090000000F87F0EF1020E2EF0030E5EF8046B96
:1050A000364205D4012A43EB030515F5001F12D83B
:1050B000012841EB010C1CF5001F0CD80ED14FEA62
:1050C000D17C15F5001F0CEB4C0C0CF1020C08BF49
:1050D0004CEBD37C04E04FF0080C01E04FEAD37CAA
:1050E0000CEB4C0526FA05F606F00706B6F1040CA3
:1050F00006D20EEB860CBDE870404CF0010C604708
:10510000DFE80CF0090B02024FF000414FF0000005
:10511000A1F5002170BD19461046012851EB01048C
:1051200018BFD4F5001484BF002001F0004170BD09
:105130000808A0F500114FEA3101704743004FEA1B
:10514000D30C4FEA3C0C43401FBF40070CF16051A9
:1051500013F0FE4F70471CF0006F03D100200CF0DD
:10516000004170470CF0004343EA507010B540EA2C
:10517000CC0000F00EF800BF000000924FEA0001E2
:10518000FFF7D6BF4FF000414FF00000A1F500211E
:1051900070470EF1020E2EF0030E5EF8044B24420F
:1051A00004D44FEA4102B2F17F4F11D84FEA4003D5
:1051B000B3F17F4F0CD80ED14FEAD07CB2F17F4FC4
:1051C0000CEB4C0C0CF1020C08BF4CEBD17C04E056
:1051D0004FF0080C01E04FEAD17C0CEB4C0324FAB1
:1051E00003F404F00704B4F1040C06D20EEB840CB3
:1051F000BDE810404CF0010C6047DFE80CF00708F8
:1052000002024FF00040A0F5800010BD08464200A9
:1052100018BFD2F1807288BF00F0004010BD4FF07F
:105220004070E1EE100A7047FF2141EAD050C005FE
:105230007047FBF7D4BA00061016000610160000DF
:105240000000000000000102030406070809000036
:105250000000010203040000000000000000000044
:10526000000000000404040404040004000000140E
:105270000A0A0000000000000000000014143F149F
:105280000A3F0A0A000000041E1505060C14150F3B
:105290000400000012150D0A142C2A120000000050
:1052A000040A0A1E1515093600000002020100005A
:1052B000000000000000002010080808080808107E
:1052C0002000000204080808080808040200000082
:1052D0000004150E0E150400000000000404041F55
:1052E00004040400000000000000000000000002B0
:1052F000020100000000001F00000000000000008C
:10530000000000000000000200000010080808046F
:1053100004020202010000000E1111111111110E00
:1053200000000000040604040404040E0000000051
:105330000E1111080402011F000000000E11100CD4
:105340001010110E00000000080C0A0A091E0818AF
:10535000000000001F01010F1010110E00000000DE
:105360000E09010F1111110E000000001F090804A1
:1053700004040404000000000E11110E1111110E9E
:10538000000000000E1111111E10120E000000008E
:105390000000040000000004000000000000000401
:1053A000000000040400002010080402040810207B
:1053B0000000000000001F00001F000000000002AD
:1053C0000408102010080402000000000E1111084B
:1053D00004040004000000000E111915151D011E23
:1053E0000000000004040C0A0A1E12330000000032
:1053F0000F12120E1212120F000000001E110101F6
:105400000101110E000000000F1212121212120FF1
:10541000000000001F120A0E0A02121F0000000006
:105420001F120A0E0A020207000000001C120101EE
:105430003911120C000000003312121E1212123326
:10544000000000001F0404040404041F0000000006
:105450003E080808080808090700000037120A0675
:105460000A0A123700000000070202020202223F6D
:10547000000000001B1B1B1B15151515000000006C
:105480003B1216161A1A1217000000000E11111105
:105490001111110E000000000F12120E020202077D
:1054A000000000000E1111111117190E1800000054
:1054B0000F12120E0A121237000000001E11010610
:1054C0000810110F000000001F1504040404040E4E
:1054D00000000000331212121212120C0000000021
:1054E0003312120A0A0C0404000000001515150EF0
:1054F0000A0A0A0A000000001B0A0A04040A0A1B1E
:10550000000000001B0A0A040404040E000000004E
:105510001F0908040402121F0000001C04040404F4
:10552000040404041C000002020204040808081019
:105530000000000E08080808080808080E0000040B
:105540000A00000000000000000000000000000051
:1055500000000000003F0004000000000000000008
:10556000000000000000000C121C123C00000000B3
:105570000302020E1212120E000000000000001CB6
:105580001202021C000000001810101C1212123C23
:10559000000000000000000C121E021C00000000B1
:1055A0003804041E0404041E000000000000003C37
:1055B000120C021E221C00000302020E12121237ED
:1055C00000000000040000060404040E00000000B7
:1055D0000800000C08080808080700000302023A47
:1055E0000A0E123700000000070404040404041F1C
:1055F000000000000000000F151515150000000048
:105600000000000F12121237000000000000000C12
:105610001212120C000000000000000F1212120EF5
:10562000020700000000001C1212121C10380000BB
:105630000000001B06020207000000000000001E20
:10564000020C101E000000000004040E04040418E4
:10565000000000000000001B1212123C00000000BD
:1056600000000037120A0C040000000000000015C2
:10567000150E0A0A000000000000001B0A040A1BA5
:105680000000000000000037120A0C0404030000B0
:105690000000001E0804041E00000018080808048A
:1056A0000808080818000808080808080808080872
:1056B0000808000604040408040404040600022583
:1056C00018000000000000000000000000000000C2
:1056D00000000000000000000000000000080808B2
:1056E0000808080800001818000000486C24120080
:1056F000000000000000000000000000002424243E
:105700007F1212127F12121200000000081C2A2AB7
:105710000A0C1828282A2A1C08080000002225152F
:1057200015152A585454542200000000000C12127F
:10573000120A76252911916E000000060604030066
:1057400000000000000000000000004020101008D1
:10575000080808080810102040000002040808107B
:1057600010101010100808040200000000000808C3
:105770006B1C1C6B080800000000000000000808FB
:1057800008087F080808080000000000000000006A
:1057900000000000000006060403000000000000F6
:1057A0000000FE00000000000000000000000000FB
:1057B00000000000000006060000000080404020BD
:1057C00020101008080404020200000000182442FF
:1057D00042424242424224180000000000080E08E3
:1057E000080808080808083E00000000003C424283
:1057F000422020100804427E00000000003C42428B
:10580000201820404042221C0000000000203028C8
:10581000242422227E20207800000000007E020244
:10582000021A26404042221C0000000000382402D8
:10583000021A26424242241800000000007E222262
:10584000101008080808080800000000003C424248
:10585000422418244242423C000000000018244226
:10586000424264584040241C000000000000000038
:1058700018180000000018180000000000000000C8
:10588000000800000000000808040000004020108C
:10589000080402040810204000000000000000007E
:1058A0007F0000007F0000000000000000020408EC
:1058B000102040201008040200000000003C42427A
:1058C000464020101000181800000000001C225A4A
:1058D000555555552D42221C00000000000808189F
:1058E0001414243C224242E700000000001F222240
:1058F000221E22424242221F00000000007C42423F
:10590000010101010142221C00000000001F22428F
:10591000424242424242221F00000000003F421227
:10592000121E12120242423F00000000003F4212CB
:10593000121E12120202020700000000003C222286
:10594000010101712122221C0000000000E74242F7
:1059500042427E42424242E700000000003E080808
:10596000080808080808083E00000000007C101025
:105970001010101010101010110F000000772212DC
:105980000A0E0A121222227700000000000702020B
:10599000020202020202427F000000000077363657
:1059A00036362A2A2A2A2A6B0000000000E34646DF
:1059B0004A4A52525262624700000000001C2241D3
:1059C000414141414141221C00000000003F424250
:1059D00042423E020202020700000000001C224177
:1059E000414141414D53321C60000000003F4242A2
:1059F000423E1212222242C700000000007C4242B6
:105A0000020418204042423E00000000007F490886
:105A1000080808080808081C0000000000E74242C7
:105A2000424242424242423C0000000000E7424201
:105A3000222424141418080800000000006B4949AF
:105A400049495555362222220000000000E7422431
:105A500024181818242442E70000000000772222AE
:105A6000141408080808081C00000000007E21200B
:105A7000101008040442423F00000078080808089B
:105A80000808080808080808780000000202040452
:105A900008080810102020204040001E1010101090
:105AA00010101010101010101E00003844000000DC
:105AB00000000000000000000000000000000000E6
:105AC000000000000000000000FF000608000000C9
:105AD00000000000000000000000000000000000C6
