:020000040800F2
:100000006807002029020008F91E0008931900085B
:10001000F51E00081F040008592400080000000015
:100020000000000000000000000000008523000820
:100030003F05000800000000D11F000887230008CA
:10004000430200084302000843020008430200087C
:10005000430200084302000843020008430200086C
:10006000430200084302000843020008430200085C
:10007000430200084302000843020008430200084C
:10008000430200084302000843020008430200083C
:10009000430200084302000843020008430200082C
:1000A000430200084302000843020008430200081C
:1000B000430200084302000843020008430200080C
:1000C00043020008430200084302000843020008FC
:1000D00043020008430200084302000843020008EC
:1000E00043020008430200084302000843020008DC
:1000F00043020008430200084302000843020008CC
:1001000043020008430200084302000843020008BB
:1001100043020008430200084302000843020008AB
:10012000430200085104000843020008430200088B
:10013000430200084302000843020008430200088B
:10014000430200084302000843020008430200087B
:10015000430200084302000843020008430200086B
:10016000430200084302000843020008430200085B
:100170004302000843020008410400080000000098
:10018000430200084302000800F002F800F03CF8C7
:100190000AA090E8000C82448344AAF10107DA45E2
:1001A00001D100F031F8AFF2090EBAE80F0013F0F8
:1001B000010F18BFFB1A43F00103184790270000F6
:1001C000B0270000103A24BF78C878C1FAD8520787
:1001D00024BF30C830C144BF04680C6070470000C1
:1001E0000023002400250026103A28BF78C1FBD840
:1001F000520728BF30C148BF0B6070471FB502F0DF
:100200000BFA1FBD10B510BD00F0CFF81146FFF777
:10021000F5FF02F067F900F0EDF803B4FFF7F2FF25
:1002200003BC00F0F5F80000094880470948004782
:10023000FEE7FEE7FEE7FEE7FEE7FEE7FEE7FEE796
:10024000FEE7FEE704480549054A064B70470000F3
:100250004524000889010008680100206807002083
:10026000680300206803002053EA020C00F0698054
:100270002DE9F04B4FF00006002B1FBFB3FA83F5BA
:1002800003FA05F424FA05F65E4012BF1643B2FAEB
:1002900082F502FA05F4C5F120051EBF22FA05FC1D
:1002A00044EA0C04203556EA044C4FEA144418BFC3
:1002B000641C4FF000084FF00009904271EB030CF2
:1002C00039D3002919BFB1FA81F701FA07F6B0FA5C
:1002D00080F700FA07F6C7F120071EBF20FA07FCD7
:1002E00046EA0C062037B6FBF4FCA7EB0507103FE7
:1002F00007F01F0BCBF120060CFA0BFB2CFA06F6CD
:1003000044BFB3460026202FA4BF5E464FF0000B2B
:100310005BEA060C08BF4FF0010B19EB0B09ABFBB6
:10032000027C48EB0608C01B06FB02CC0BFB03CC8F
:1003300071EB0C01C1E70B46024641464846BDE859
:10034000F08B13B54FF000004FF00001AFF30080C9
:10035000BDE81C4070474FF0000200B513469446BC
:100360009646203922BFA0E80C50A0E80C50B1F10D
:100370002001BFF4F7AF090728BFA0E80C5048BF21
:100380000CC05DF804EB890028BF40F8042B08BFBF
:10039000704748BF20F8022B11F0804F18BF00F8BB
:1003A000012B7047704770477047754600F02CF876
:1003B000AE4605006946534620F00700854618B052
:1003C00020B5FFF73FFFBDE820404FF000064FF09B
:1003D00000074FF000084FF0000B21F00701AC467A
:1003E000ACE8C009ACE8C009ACE8C009ACE8C00999
:1003F0008D46704710B50446AFF300802046BDE837
:100400001040FFF70ABF00000048704708010020B5
:1004100001491820ABBEFEE726000200704700BF6E
:10042000FEE770B50546AC6BA06B406D022802D0AC
:10043000012084F82500204600F085F870BD0000FA
:1004400010B5024800F082F810BD00001000002036
:1004500010B5024800F00AFA10BD0000500000205C
:100460000146087810381823B0FBF3F20848805C86
:10047000C865032A05D908686FF30900001D88655F
:1004800003E008686FF309008865886D7047000015
:1004900022260008014600208A6A8B69CBB932B156
:1004A000012A0DD0022A03D0032A10D10EE000BF8A
:1004B000CB6A03F08073B3F1807F00D1012007E0A5
:1004C000CB6AB3F1C07F00D1012001E000E000BFA2
:1004D00034E08B69B3F5005F1AD132B1012A07D03D
:1004E000022A03D0032A11D10AE000BF01200EE046
:1004F000CB6A03F08073B3F1807F00D1012006E066
:10050000CB6AB3F1C07F00D1012000E000BF15E04D
:1005100032B1012A05D0022A04D0032A0CD103E00B
:1005200000BF00BF012008E0CB6A03F08073B3F185
:10053000807F00D1012000E000BF00BF70477047FE
:1005400072B600BFFEE770477047000070B5044602
:100550002068056905F00400042812D1216848616B
:10056000E06B40F00200E063042084F82500264898
:10057000A16B0865A06B00F064F910B1A06BFFF7E8
:1005800050FF05F00200022812D121684861E06B9B
:1005900040F00100E063042084F825001A48A16BB4
:1005A0000865A06B00F04DF910B1A06BFFF739FFA3
:1005B00005F01000102804D121684861204600F0A1
:1005C0006EF805F00800082804D12168486120462B
:1005D00000F036F905F00100A0B12068006800F0D5
:1005E0000200022805D12068C06820F01E002168A2
:1005F000C8602068C06820F001002168C8602046FB
:10060000FFF7A2FF70BD00002304000810B50446E8
:100610000CB9012010BD94F8250040B9002084F8E1
:100620002400204600F03CF8204600F039F8022073
:1006300084F825002068006840F6F8718843216836
:100640000860616960680843E168084321690843FC
:10065000A1680843A1690843216A08432168096821
:10066000084321680860606810280BD1217F607FF3
:1006700041EA0021A07F41EA0041E07F41EA0060B9
:10068000216888612068C06840F01E002168C86049
:100690000020E063012084F825000020BAE77047BD
:1006A00010B586B00446142101A8FFF754FE5C493A
:1006B000206888427ED100BF002000905948006821
:1006C00040F00100574908600846006800F001004A
:1006D000009000BF00BF00BF00200090081F00680E
:1006E00040F01000091F08600846006800F0100084
:1006F000009000BF00BF00BF0020009008460068C7
:1007000040F0010008600846006800F00100009019
:1007100000BF00BF00BF002000900846006840F006
:10072000040008600846006800F00400009000BF64
:1007300000BF00BF002000900846006840F00200A3
:1007400008600846006800F00200009000BF00BF8B
:1007500070200190022002900020039004900D2050
:10076000059001A9304800F02BFA5020019002209A
:1007700002900020039004900D20059001A92B48C1
:1007800000F01EFA4FF470700190022002900020D9
:10079000039004900D20059001A9254800F010FA5F
:1007A000C0200190022002900020039004900D20B0
:1007B000059000E031E001A91E4800F001FA1E4852
:1007C0001E4908604FF00070486000211B4881609E
:1007D000C1604FF4806101618900416189008161DC
:1007E0008911C161490201620421416203218162D0
:1007F0000021C162016300F059F908B1FFF7A0FEC2
:1008000000BF0E48A063846300BF002203214E2076
:1008100000F064FB4E2000F04DFB06B010BD000060
:100820000000055034380240001002400000024031
:1008300000080240000402402864024050000020EA
:100840007047014691F83500022803D080204865A2
:1008500001207047052081F835000868006820F005
:1008600001000A6810600020F3E70000F8B50446B4
:10087000002000908C4800684FF41651B0FBF1F74F
:10088000A56D2E6894F85C1008208840304098B11F
:100890002068006800F0040070B12068006820F053
:1008A00004002168086094F85C1008208840A86063
:1008B000606D40F00100606594F85C100120884094
:1008C000304068B12068406900F0800040B194F881
:1008D0005C1001208840A860606D40F002006065F7
:1008E00094F85C1004208840304068B120680068AB
:1008F00000F0020040B194F85C1004208840A86029
:10090000606D40F00400606594F85C101020884031
:10091000304078B32068006800F0080050B394F8C5
:100920005C1010208840A8602068006800F48020D7
:1009300080B12068006800F4002028B9206CC8B19C
:100940002046216C884715E0A06C98B12046A16C28
:1009500088470FE02068006800F4807028B920689C
:10096000006820F0080021680860206C10B1204663
:10097000216C884794F85C10202088403040002883
:1009800065D02068006800F0100000285FD094F85F
:100990005C1020208840A86094F83500052828D1F4
:1009A0002068006820F0160021680860206840690F
:1009B00020F0800021684861206C08B9A06C28B143
:1009C0002068006820F008002168086094F85C1036
:1009D0003F208840A860012084F8350000BF002037
:1009E00084F8340000BF206D10B12046216D884787
:1009F000F8BD2068006800F4802080B1206800689D
:100A000000F4002028B9606C10B12046616C884762
:100A10001DE0E06BD8B12046E16B884717E0206805
:100A2000006800F4807068B92068006820F0100049
:100A300021680860012084F8350000BF002084F898
:100A4000340000BFE06B10B12046E16B8847606D59
:100A500038B3606D00F00100F0B1052084F8350076
:100A60002068006820F001002168086000BF00983D
:100A7000401C0090B84200D905E02068006800F0F2
:100A800001000028F3D100BF012084F8350000BF29
:100A9000002084F8340000BFE06C10B12046E16C07
:100AA000884700BFA4E700000C0000202DE9F041BA
:100AB0000446002500F084F9074614B90120BDE87A
:100AC000F081606A00B100BF022084F8350000BFE9
:100AD000002084F8340000BF2068006820F0010086
:100AE000216808600AE000F06BF9C01B052805D9F1
:100AF00020206065032084F83500E0E72068006866
:100B000000F001000028EED120680568214805406A
:100B1000D4E901010843E168084321690843616998
:100B20000843A1690843E1690843216A0843054372
:100B3000606A042803D1D4E90B0108430543206807
:100B400005602068456925F00705606A0543606A0D
:100B500004280DD1A06A0543E06A48B12046FFF79A
:100B600099FC28B140206065012084F83500A6E793
:100B7000206845612046FFF773FC064694F85C1038
:100B80003F208840B06000206065012084F8350077
:100B9000002094E73F8010F070B5044600F010F993
:100BA00006462546681C10B104480078054400BF7D
:100BB00000F006F9801BA842FAD370BD080000209F
:100BC000F8B502460B460025002400200021D6E09F
:100BD000012606FA01F51E6806EA0504AC4274D146
:100BE0001E7906F00306012E04D01E7906F00306D6
:100BF000022E13D190684F000326BE40B0434F0031
:100C0000DE68BE4030439060506801268E40B0439D
:100C10001E79C6F300168E40304350601E7906F0F0
:100C20000306032E09D0D0684F000326BE40B04310
:100C30004F009E68BE403043D0601E7906F0030628
:100C4000022E13D1CF0802F1200656F827004E07D6
:100C5000F70E0F26BE40B0434F07FF0E1E69BE4081
:100C60003043CF0802F1200646F8270010684F00F5
:100C70000326BE40B0431E7906F003064F00BE4077
:100C8000304310605E6806F44036002E76D000BF18
:100C9000002600963C4E366846F480463A4F3E6049
:100CA0003E46366806F48046009600BF00BF374EC9
:100CB0008F0856F827008E07370F0F26BE40B04327
:100CC000334EB24202D1002624E057E0314EB24208
:100CD00001D101261EE0304EB24201D1022619E0B8
:100CE0002E4EB24201D1032614E02D4EB24201D164
:100CF00004260FE02B4EB24201D105260AE02A4E0F
:100D0000B24201D1062605E0284EB24201D10726A3
:100D100000E008268F073F0FBE4030431B4E8F0870
:100D200046F82700224E3068A0435E6806F480161D
:100D300006B120431E4E3060361D3068A0435E6809
:100D400006F4001606B12043194E361D3060184EC9
:100D5000361F3068A0435E6806F4003606B12043B3
:100D6000134E361F3060361F3068A0435E6806F4AD
:100D7000803606B120430E4E083E3060491C1029D3
:100D8000FFF426AFF8BD00004438024008380140A7
:100D9000000002400004024000080240000C024033
:100DA000001002400014024000180240001C0240E3
:100DB000083C01400AB1816101E00B048361704786
:100DC00001480068704700000000002003480068E8
:100DD0000349097808440149086070470000002071
:100DE0000800002010B50D48006840F400700B4961
:100DF00008600846006840F48060086008460068A3
:100E000040F480700860032000F0A6F80F2000F086
:100E100007F800F02BF8002010BD0000003C024055
:100E200070B504460E4800784FF47A71B1FBF0F0CB
:100E30000C490968B1FBF0F5284600F090FD08B1B7
:100E4000012070BD102C07D200222146501E00F058
:100E500045F80548046001E00120F2E70020F0E7D2
:100E6000080000200C0000200400002008B500BF8E
:100E7000002000900E48006840F480400C49086053
:100E80000846006800F48040009000BF00BF00BF2B
:100E900000200090081F006840F08050091F086083
:100EA0000846006800F08050009000BF00BF08BDF9
:100EB000443802400146084600280DDB00BF00BF51
:100EC00000F01F0301229A4043099B0003F1E02335
:100ED000C3F8002100BF00BF00BF70472DE9F05FDD
:100EE00080460D461646002701F0B8FA07463946F7
:100EF0002A46334601F00700C0F1070ABAF1040F91
:100F000002D94FF0040A01E0C0F1070AD14600F10E
:100F1000040ABAF1070F02D24FF0000A01E0A0F173
:100F2000030AD4464FF0010A0AFA09FAAAF1010AA3
:100F30000AEA020A0AFA0CFA4FF0010B0BFA0CFB50
:100F4000ABF1010B0BEA030B4AEA0B0421464046C6
:100F500001F08CFABDE8F09F00BF00F00702064BDD
:100F600019684FF6FF031940044B0B4343EA022173
:100F7000014B196000BF70470CED00E00000FA055E
:100F800070B504460D460CB9012070BD5848006884
:100F900000F00700A84209D255490D7008460068C4
:100FA00000F00700A84201D00120EEE7207800F011
:100FB000020002281DD1207800F00400042805D189
:100FC0004C48006840F4E0504A490860207800F03E
:100FD0000800082805D14748006840F460404549AA
:100FE00008604448006820F0F000A16808434149C7
:100FF0000860207800F00100A8B36068012807D1DC
:101000003C4808380068C0F34040B8B90120BCE74C
:101010006068022802D06068032807D13548083884
:101020000068C0F3406048B90120AEE73148083895
:101030000068C0F3400008B90120A6E72D48006809
:1010400020F00300616808432A490860FFF7B8FEF2
:10105000064609E0FFF7B4FE801B41F28831884262
:1010600002D9032091E707E02248006800F00C0055
:101070006168B0EB810FEDD11D48006800F00700FA
:10108000A84209D91A490D700846006800F0070007
:10109000A84201D0012078E7207800F0040004285D
:1010A00007D11448006820F4E050E1680843114972
:1010B0000860207800F00800082808D10D48006872
:1010C00020F46040216940EAC1000A49086000F04C
:1010D00019F808490968C1F30311074A515CC8406F
:1010E0000649086006480068FFF79AFE00204CE7B2
:1010F000003C0240083802402A2600080C0000206C
:10110000040000202DE9F047002400250026A14618
:101110002548006800F00C0020B1042805D00828FC
:101120003AD105E0DFF8849039E0DFF8849036E0CA
:101130001D48001F006800F03F041B48001F0068A6
:1011400000F4800078B11A481749091F0968C1F3F3
:101150008811A0FB01700146224600233846FFF7A4
:1011600083F805460EE011480F49091F0968C1F3CD
:101170008811A0FB01700146224600233846FFF784
:1011800073F805460848001F0068C0F30140401C82
:101190004600B5FBF6F902E0DFF8109000BF00BF93
:1011A0004846BDE8F0870000083802400024F400FB
:1011B00040787D01F8B504460CB90120F8BD2078CF
:1011C00000F00100002874D0F948006800F00C001D
:1011D00004280DD0F648006800F00C00082813D150
:1011E000F348001F006800F48000B0F5800F0BD1B9
:1011F000EF4808380068C0F34040002859D06068C4
:10120000002856D10120D9E700BF6068B0F5803FC3
:1012100008D1E7480838006840F48030E4490839CC
:1012200008601EE06068B0F5A02F0DD1E0480838D6
:10123000006840F48020DE490839086008460068EC
:1012400040F4803008600CE0D9480838006820F489
:101250008030D749083908600846006820F48020AB
:10126000086000BF606890B1FFF7AAFD054606E080
:10127000FFF7A6FD401B642801D903209EE7CC4858
:1012800008380068C0F340400028F1D011E0FFF7B3
:1012900097FD054606E0FFF793FD401B642801D942
:1012A00003208BE7C24808380068C0F3404000289C
:1012B000F1D1207800F0020002285FD1BC4800681C
:1012C00000F00C0058B1BA48006800F00C00082883
:1012D0001CD1B748001F006800F48000B0B9B448C2
:1012E00008380068C0F3400020B1E068012801D050
:1012F000012063E7AE480838006820F0F800216953
:1013000040EAC100AA490839086037E0E06800B344
:101310000120A8490860FFF753FD054606E0FFF7E6
:101320004FFD401B022801D9032047E7A048083899
:101330000068C0F340000028F1D09D4808380068DC
:1013400020F0F800216940EAC10099490839086095
:1013500014E0002097490860FFF732FD054606E0DB
:10136000FFF72EFD401B022801D9032026E79048F5
:1013700008380068C0F340000028F1D1207800F060
:10138000080008282CD16069A8B101208A490860AA
:10139000FFF716FD054606E0FFF712FD401B022889
:1013A00001D903200AE782486C300068C0F340008E
:1013B0000028F1D014E000207F490860FFF700FD0D
:1013C000054606E0FFF7FCFC401B022801D903207C
:1013D000F4E677486C300068C0F340000028F1D193
:1013E000207800F00400042870D1002770483830BD
:1013F000006800F0805090B900BF002000906C4859
:101400003830006840F0805069493831086008463B
:10141000006800F08050009000BF00BF01276748BF
:10142000006800F48070B0B96448006840F48070CF
:1014300062490860FFF7C4FC054606E0FFF7C0FC00
:10144000401B022801D90320B8E65C48006800F47C
:1014500080700028F2D000BFA068012808D154484D
:101460006830006840F001005149683108601DE0B3
:10147000A06805280DD14E486830006840F004008F
:101480004B49683108600846006840F00100086078
:101490000CE047486830006820F00100444968319A
:1014A00008600846006820F00400086000BFA068DB
:1014B000A8B1FFF785FC054609E0FFF781FC401B5A
:1014C00041F28831884202D9032077E626E0384885
:1014D00068300068C0F340000028EED013E0FFF74A
:1014E0006FFC054608E0FFF76BFC401B41F28831BA
:1014F000884201D9032061E62D4868300068C0F3B6
:1015000040000028EFD1012F07D12948383000686A
:1015100020F0805026493831086000BFA0690028BB
:1015200045D02348006800F00C0008285DD0A06971
:10153000022845D100201F490866FFF741FC0546F7
:1015400006E0FFF73DFC401B022801D9032035E6E9
:10155000174808380068C0F340600028F1D1D4E98A
:1015600007010843616A40EA81110122A06AC2EBC7
:10157000500041EA00412C20005D41EA00600C4926
:10158000091F086001200B490866FFF719FC054692
:1015900006E0FFF715FC401B022801D903200DE6E9
:1015A000034808380068C0F340600028F1D049E0E3
:1015B0000838024000004742800E47420070004059
:1015C000002021490866FFF7FBFB054606E0FFF710
:1015D000F7FB401B022801D90320EFE51B480068F8
:1015E000C0F340600028F2D12CE0A069012800D1AE
:1015F000E4E51648001D0668A069012820D006F41D
:101600008001E06981421BD106F03F01206A8142DE
:1016100016D147F6C0703040616AB0EB811F0FD120
:1016200006F440310122A06AC2EB5000B1EB004F3A
:1016300006D106F070612C20005DB1EB006F01D087
:101640000120BBE50020B9E5000047420038024018
:1016500010B504460CB9012010BD606A38B9606845
:10166000B0F5827F00D105E00021E16102E00021B8
:10167000216161610021A16294F8510028B9002024
:1016800084F85000204600F047F8022084F851000A
:101690002068006820F0400021680860A08800F4FD
:1016A0008270218901F404410843A18901F4006199
:1016B0000843217C01F002010843217D01F0010172
:1016C0000843218B01F400710843217F01F03801A8
:1016D00008432021095D01F080010843218D01F4B8
:1016E00000510843216808600421A06901EA104004
:1016F00094F8241001F01001084321684860206824
:10170000C06920F400602168C86100206065012084
:1017100084F8510000209FE710B586B004461421DC
:1017200001A8FEF718FE1B492068884230D100BF8F
:10173000002000901848006840F4004016490860F6
:101740000846006800F40040009000BF00BF00BFE2
:101750000020009010481038006840F004000E4946
:10176000103908600846006800F00400009000BFCF
:1017700000BF4FF4E050019002200290002003903F
:10178000032004900620059001A90448FFF718FAE9
:1017900006B010BD003C0040403802400008024046
:1017A0002DE9F84304460F4616461D46FFF708FB91
:1017B0008046B14694F85100012802D00220BDE8CD
:1017C000F88307B10EB90120F9E700BF94F8500083
:1017D000012801D10220F2E7012084F8500000BF67
:1017E000032084F85100002060652763A686E68602
:1017F000A063A087E08760642064A068B0F5004F14
:101800000BD12068006820F0400021680860206843
:10181000006840F48040216808602068006800F09B
:101820004000402805D02068006840F04000216852
:101830000860E068B0F5006F37D1606810B1B9F1A9
:10184000010F09D1206B00882168C860206B801CC3
:101850002063E08E401EE08623E02068806800F070
:10186000020002280AD1206B00882168C860206B22
:10187000801C2063E08E401EE08612E0FFF7A0FA95
:10188000A0EB0800A84201D3681C00B94DB90120A3
:1018900084F8510000BF002084F8500000BF0320EE
:1018A0008DE7E08E0028D8D136E0606810B1B9F13C
:1018B000010F09D1206B007821680873206B401C50
:1018C0002063E08E401EE08623E02068806800F000
:1018D000020002280AD1206B007821680873206B6F
:1018E000401C2063E08E401EE08612E0FFF768FA9D
:1018F000A0EB0800A84201D3681C00B94DB9012033
:1019000084F8510000BF002084F8500000BF03207D
:1019100055E7E08E0028D8D142462946204600F0FF
:1019200081FC08B120206065A06850B900BF00208C
:1019300000902068C068009020688068009000BF18
:1019400000BF012084F8510000BF002084F850003F
:1019500000BF606D08B1012031E700202FE770B5AE
:1019600004462546681EB0F1807F01D301200FE0B8
:10197000681E4FF0E02148610F214FF0FF3000F06A
:1019800075FD00204FF0E0218861072008610020EC
:1019900070BD00BFFEE770B5054640F23F13EF2271
:1019A0000021084600F01AF9002403E0284600F060
:1019B00077F9641CB4F5963FF8D370BD10B50022DA
:1019C00004218548FFF7F6F96420FFF7E5F80122C6
:1019D00004218148FFF7EEF96420FFF7DDF8CF20FE
:1019E00000F026F9002000F03FF9C12000F03CF99A
:1019F000302000F039F9ED2000F01AF9642000F0F1
:101A000033F9032000F030F9122000F02DF9812085
:101A100000F02AF9E82000F00BF9852000F024F905
:101A2000002000F021F9782000F01EF9CB2000F012
:101A3000FFF8392000F018F92C2000F015F90020EB
:101A400000F012F9342000F00FF9022000F00CF938
:101A5000F72000F0EDF8202000F006F9EA2000F071
:101A6000E7F8002000F000F9002000F0FDF8C020A9
:101A700000F0DEF8232000F0F7F8C12000F0D8F8DD
:101A8000102000F0F1F8C52000F0D2F83E2000F060
:101A9000EBF8282000F0E8F8C72000F0C9F886200D
:101AA00000F0E2F8362000F0C3F8482000F0DCF83F
:101AB0003A2000F0BDF8552000F0D6F8B12000F033
:101AC000B7F8002000F0D0F8182000F0CDF8B620CC
:101AD00000F0AEF8082000F0C7F8822000F0C4F84B
:101AE000272000F0C1F8F22000F0A2F8002000F05A
:101AF000BBF8262000F09CF8012000F0B5F8E020AB
:101B000000F096F80F2000F0AFF8312000F0ACF8AC
:101B10002B2000F0A9F80C2000F0A6F80E2000F011
:101B2000A3F8082000F0A0F84E2000F09DF8F12066
:101B300000F09AF8372000F097F8072000F094F8AA
:101B4000102000F091F8032000F08EF80E2000F035
:101B50008BF8092000F088F8002000F085F8E120DB
:101B600000F066F8002000F07FF80E2000F07CF80E
:101B7000142000F079F8032000F076F8112000F02E
:101B800073F8072000F070F8312000F06DF8C120E4
:101B900000F06AF8482000F067F8082000F064F8C8
:101BA0000F2000F061F80C2000F05EF8312000F00A
:101BB0005BF8362000F058F80F2000F055F811209F
:101BC00000F036F87820FEF7E7FF292000F030F823
:101BD0002C2000F02DF810BD000C02402DE9F04142
:101BE00004460D4616461F462A2000F021F8201212
:101BF00000F03AF8E0B200F037F8301200F034F8B4
:101C0000F0B200F031F82B2000F012F8281200F0AA
:101C10002BF8E8B200F028F8381200F025F8F8B2F6
:101C200000F022F82C2000F003F8BDE8F08100005D
:101C300001B5002202210A48FFF7BCF80022012169
:101C40000748FFF7B7F84FF0FF3301226946054810
:101C5000FFF7A6FD012211460148FFF7ABF808BDCA
:101C6000000C0240B000002001B5012202210A4808
:101C7000FFF7A0F8002201210748FFF79BF84FF07B
:101C8000FF33012269460548FFF78AFD012211460C
:101C90000148FFF78FF808BD000C0240B00000209B
:101CA00038B5044620128DF80000E0B28DF801002E
:101CB000012202210A48FFF77DF80022012108488D
:101CC000FFF778F84FF0FF33022269460548FFF727
:101CD00067FD012211460248FFF76CF838BD00008D
:101CE000000C0240B000002010B50A480A49086004
:101CF000002048602021084881600021C160016106
:101D0000416181610162FEF781FC08B1FEF718FCB8
:101D100010BD0000000005501000002008B500BFF5
:101D2000002000900A48006840F4800008490860DC
:101D30000846006800F48000009000BF00BF002249
:101D400011463920FFF7CAF83920FFF7B3F808BD6C
:101D50003038024000B587B0142102A8FEF7FBFA24
:101D600000BF002001904E48006840F010004C4930
:101D700008600846006800F01000019000BF00BF36
:101D800000BF002001900846006840F08000086015
:101D90000846006800F08000019000BF00BF00BF4F
:101DA000002001900846006840F0010008600846E5
:101DB000006800F00100019000BF00BF00BF0020DC
:101DC00001900846006840F004000860084600687A
:101DD00000F00400019000BF00BF00BF0020019090
:101DE0000846006840F0080008600846006800F0F7
:101DF0000800019000BF00BF00BF0020019008460E
:101E0000006840F0400008600846006800F04000AC
:101E1000019000BF00BF00BF00200190084600688D
:101E200040F0020008600846006800F002000190DF
:101E300000BF00BF012207211A48FEF7BBFF0122A5
:101E40004FF402411848FEF7B5FF01224FF44071EC
:101E50001648FEF7AFFF0720029001200390049080
:101E60000320059002A90F48FEF7AAFE4FF4024096
:101E700002900120039004900320059002A90A48D3
:101E8000FEF79EFE4FF440700290012003900490F4
:101E90000320059002A90548FEF792FE07B000BD99
:101EA00030380240000C024000180240000402409A
:101EB00010B50E480E4908604FF48270486000214A
:101EC0000B488160C160016141614FF40071816123
:101ED0000021C1610162416281620A21C162FFF792
:101EE000B7FB08B1FEF72CFB10BD0000003C004022
:101EF000B000002000BFFEE700BFFEE710B50024E1
:101F000000BF0AE00E4A02EB440251780C4A12F874
:101F1000140000F067F9601C84B2082CF2D300248E
:101F20000AE0084A02EB44025178064A12F814000B
:101F300000F058F9601C84B2072CF2D310BD0000E9
:101F400016290008082900082DE9F04104460D462D
:101F5000E11704EB91718910A4EB810111B101200B
:101F6000BDE8F081E91705EB91718910A5EB8101BE
:101F700009B10220F4E72046E11704EB9171C1F3A7
:101F80008F072846E91705EB9171C1F38F060021F1
:101F9000FF2000F027F90421E02000F023F9F9B236
:101FA0005A2000F01FF9F1B25B2000F01BF9C7F3D3
:101FB0000128042000EAA61040EA080841465C20F7
:101FC00000F010F90021E02000F00CF90020C7E734
:101FD0007047000000B5322000F05CFA01200B4988
:101FE00008600B49C1F8A002322000F053FA00202B
:101FF0000649091F0860322000F04CFA002004490D
:10200000C1F8A402322000F045FA00BDA48240428B
:102010000080404230B500241748006820F440207A
:1020200015490860084600680860082515E0322058
:1020300000F030FA0120114908606006040E1048D3
:10204000D0F8240208B1601CC4B2322000F022FA99
:1020500000200A490860681EC5B2002DE7DC06486A
:10206000006820F44020044908600846006840F4F5
:1020700080200860204630BD00040240A08240421B
:102080000080404230B50446002500F023F860206F
:1020900000F054F8642000F0FDF9204600F04EF8FE
:1020A000642000F0F7F900F02FF8642000F0F2F956
:1020B00000F010F8612000F041F8642000F0EAF927
:1020C000FFF7A8FF0546FFF785FF00F01DF828463B
:1020D00030BD000000B50120094908600949C1F878
:1020E000A002322000F0D6F9002005490860322015
:1020F00000F0D0F900200349C1F8A00200BD0000A3
:10210000A48240420080404200B500200949086096
:10211000322000F0BFF901200749C1F8A0023220A7
:1021200000F0B8F9012003490860322000F0B2F94C
:1021300000BD0000A48240420080404270B50446C9
:1021400000261BE004F0800018B10120224908603D
:1021500002E00020204908606006040E322000F0F2
:1021600099F901201C49091F0860322000F092F9FA
:1021700000201A49C1F8A002701CC6B2082EE1DB8B
:102180001748006820F44020154908600846006898
:102190000860322000F07EF901200F49091F086015
:1021A000322000F077F90D48D0F8240208B101255B
:1021B00000E0002500200849091F08600848006861
:1021C00020F44020064908600846006840F480205A
:1021D0000860284670BD0000A48240420080404252
:1021E0000004024070B505460C460026FFF772FF5A
:1021F0006020FFF7A3FF00B10126642000F04AF938
:102200002846FFF79BFF00B10126642000F042F949
:102210002046FFF793FF00B10126FFF775FF304618
:1022200070BD00007CB504460E46154633460122BB
:1022300002212046009500F039F828B1606D40F089
:102240002000606503207CBD164800681821B0FBA3
:10225000F1F01549B0FBF1F04FF47A714843019069
:102260006068B0F5827F0DD1334600228021204680
:10227000009500F01BF898B1606D40F0200060659B
:102280000320E0E700BF019800B908E00198401E74
:10229000019020688068C0F3C0100028F3D100BF0F
:1022A0000020D0E70C00002040420F002DE9F84F3D
:1022B00004460D4690461E46DDF82890FEF780FD48
:1022C000A0EB0900371AFEF77BFD82462C48006818
:1022D000C0F3CB307843009046E0701C002843D018
:1022E000FEF76EFDA0EB0A00B84200D2A7BB206843
:1022F000406820F0E000216848606068B0F5827FA7
:102300000DD1A068B0F5004F03D0A068B0F5806F84
:1023100005D12068006820F0400021680860A06AAC
:10232000B0F5005F0DD100BF2068006820F40050B8
:10233000216808602068006840F400502168086047
:1023400000BF012084F8510000BF002084F8500035
:1023500000BF0320BDE8F88FFFE7009808B9002709
:1023600002E00098401E0090206880682840A84243
:1023700001D1012000E000204045AED10020E9E776
:102380000C000020704710B5FEF720FD10BD0000C6
:1023900000B593B0302107A8FDF7DDFF142102A896
:1023A000FDF7D9FF00BF002001902448006840F0ED
:1023B0008050224908600846006800F08050019073
:1023C00000BF00BF00BF002001901D48006840F41E
:1023D00080401B4908600846006800F48040019076
:1023E00000BF00BF012007900004089002200D905C
:1023F00041050E9119210F914FF4A87110910221FE
:1024000011910421129107A8FEF7D4FE08B1FEF73E
:1024100097F80F20029002200390002004904FF4C0
:10242000A05005904FF480500690052102A8FEF7B9
:10243000A7FD08B1FEF784F813B000BD4038024094
:10244000007000400348006840F4700001490860D3
:102450007047000088ED00E000BFFEE7024800681A
:10246000C0F30220704700000CED00E010B500281A
:1024700004DB0A07130E054A135406E00A07140E7C
:10248000034A00F00F031B1FD45410BD00E400E00A
:1024900018ED00E070B503464FF0E02084690F4866
:1024A00000680F4EB0FBF6F000FB03F5002221465A
:1024B00011E04FF0E026B06988420BD0814202D98A
:1024C0000E1A324405E04FF0E02676690E44361AC3
:1024D0003244014600BFAA42EBD370BD0C0000207D
:1024E00040420F00FEF77EFCFFF752FFFFF732FC81
:1024F000FFF714FCFFF7DCFCFFF7F6FBFFF75EFAD3
:1025000000BF00F01BF80028FBD14FF47840FFF724
:1025100042FA4FF47A70FEF73FFB4FF4FC60FFF78E
:102520003AFA4FF47A70FEF737FB1F20FFF733FAC1
:102530004FF47A70FEF730FB00BFFEE770B5002065
:10254000304908600A20FEF727FB00202E49C1F819
:10255000BC020A20FEF720FB01202B49C1F8BC0277
:102560002A48006820F4402028490860084600688E
:1025700040F4802008600121FF20FFF733FE802116
:102580001220FFF72FFE3220FEF706FB1C20FFF77C
:1025900079FD04464FF6FF7000EA04241D20FFF782
:1025A00071FD044347F6A270844201D0012070BD42
:1025B0000A20FFF767FD04464FF6FF7000EA042487
:1025C0000B20FFF75FFD044342F24260844201D0DA
:1025D0000220ECE700250AE00D4A02EB45025178A3
:1025E0000B4A12F81500FFF7FDFD681C85B2B22DED
:1025F000F2D3FFF783FC074AD1899089FFF7A4FC47
:102600000020D4E7A40243420000434200040240F9
:1026100042260008262900084FF04070E1EE100A1B
:10262000704700061016000610160000000000009B
:10263000000001020304060708090000000001026F
:102640000304FF002CFF2EDFFF013C3211000902C2
:1026500004D813E514482C0C33783A333BFB3E0086
:1026600043111610399235DA221A37C3230034C0C9
:10267000361A068807C00D870E414C0048005B00E3
:1026800042034A8121992440253826825C00630058
:1026900046000C3C617062807C05208028306C0014
:1026A0006D806E007002719473C13D345A571200F0
:1026B0001711187519011A973236030F37404FCA90
:1026C00050A85A236D006D38FF00E57FF9C0412402
:1026D000E01476FF33A0422043184C0087D5883F92
:1026E000D703D910D382C808C9807C007D007C0341
:1026F0007D487D487C087D207D107D0E9000910EE8
:10270000911A9131915A91699175917E9188918F29
:10271000919691A391AF91C491D791E891209200A5
:10272000930693E39305930593009304930093001A
:1027300093009300930093009300960097089719D5
:102740009702970C97249730972897269702979887
:10275000978097009700C3EFA400A800C511C65149
:10276000BF80C710B666B8A5B764B97CB3AFB497DD
:10277000B5FFB0C5B194B20FC45CC0C8C1968C009F
:10278000863D50005190522C5300540055885A9069
:102790005B2C5C05D302C3ED7F00DA09E51FE1671E
:1027A000E000DD7F0500FF002CFF2EDFFF013C3243
:1027B0001100090204D813E514482C0C33783A337D
:1027C0003BFB3E0043111610399235DA221A37C30B
:1027D000230034C0361A068807C00D870E414C000E
:1027E00048005B0042034A81219924402538268213
:1027F0005C00630046220C3C617062807C05208096
:1028000028306C006D806E007002719473C13D348D
:102810005A5712401711184319001A4B320937C082
:102820004FCA50A85A236D003D38FF00E57FF9C01C
:102830004124E01476FF33A0422043184C0087D592
:10284000883FD703D910D382C808C9807C007D0097
:102850007C037D487D487C087D207D107D0E9000A6
:10286000910E911A9131915A91699175917E918849
:10287000918F919691A391AF91C491D791E89120B6
:102880009200930693E393059305930093049300BA
:102890009300930093009300930093009600970891
:1028A00097199702970C97249730972897269702A5
:1028B0009798978097009700C3EDA400A800C511D2
:1028C000C651BF80C710B666B8A5B764B97CB3AFB0
:1028D000B497B5FFB0C5B194B20FC45CC064C14B2E
:1028E0008C00863D500051C852965300540055004C
:1028F0005AC85B965C00D302C3ED7F00DA09E51F7E
:10290000E167E000DD7F0500FF01E014E177E51FEE
:10291000D703DA10E000FF00DA10D703DF003380BE
:102920003C40E1770000B0009000A000780060011A
:1029300020014001F0008002E00120035802000461
:102940000003000500044006B00400006C290008E4
:102950000000002010000000C40100087C290008CD
:102960001000002058070000E001000800000000EF
:0C29700010000000010000000024F40032
:040000050800018965
:00000001FF
