:020000040800F2
:10000000709D002029020008D93400087B2D0008CB
:10001000D53400081F040008413700080000000024
:100020000000000000000000000000006D36000825
:100030004F06000800000000093500086F36000870
:10004000430200084302000843020008430200087C
:10005000430200084302000843020008430200086C
:10006000430200084302000843020008430200085C
:10007000430200084302000843020008430200084C
:10008000430200084302000843020008430200083C
:10009000430200084302000843020008430200082C
:1000A000430200084302000843020008430200081C
:1000B000430200084302000843020008430200080C
:1000C00043020008430200084302000843020008FC
:1000D00043020008430200084302000843020008EC
:1000E00043020008430200084302000843020008DC
:1000F00043020008430200084302000843020008CC
:1001000043020008430200084302000843020008BB
:1001100043020008430200084302000843020008AB
:1001200043020008150500084302000843020008C6
:10013000430200084302000843020008430200088B
:10014000430200084302000843020008430200087B
:10015000430200084302000843020008430200086B
:10016000430200084302000843020008430200085B
:1001700043020008430200080505000800000000D3
:10018000430200084302000800F002F800F03CF8C7
:100190000AA090E8000C82448344AAF10107DA45E2
:1001A00001D100F031F8AFF2090EBAE80F0013F0F8
:1001B000010F18BFFB1A43F00103184788400000E5
:1001C000A8400000103A24BF78C878C1FAD8520776
:1001D00024BF30C830C144BF04680C6070470000C1
:1001E0000023002400250026103A28BF78C1FBD840
:1001F000520728BF30C148BF0B6070471FB503F0DE
:10020000D9FA1FBD10B510BD00F0CFF81146FFF7A9
:10021000F5FF03F0B3FA00F0EDF803B4FFF7F2FFD7
:1002200003BC00F0F5F80000094880470948004782
:10023000FEE7FEE7FEE7FEE7FEE7FEE7FEE7FEE796
:10024000FEE7FEE704480549054A064B70470000F3
:100250002D3700088901000870970020709D00204C
:10026000709900207099002053EA020C00F0698018
:100270002DE9F04B4FF00006002B1FBFB3FA83F5BA
:1002800003FA05F424FA05F65E4012BF1643B2FAEB
:1002900082F502FA05F4C5F120051EBF22FA05FC1D
:1002A00044EA0C04203556EA044C4FEA144418BFC3
:1002B000641C4FF000084FF00009904271EB030CF2
:1002C00039D3002919BFB1FA81F701FA07F6B0FA5C
:1002D00080F700FA07F6C7F120071EBF20FA07FCD7
:1002E00046EA0C062037B6FBF4FCA7EB0507103FE7
:1002F00007F01F0BCBF120060CFA0BFB2CFA06F6CD
:1003000044BFB3460026202FA4BF5E464FF0000B2B
:100310005BEA060C08BF4FF0010B19EB0B09ABFBB6
:10032000027C48EB0608C01B06FB02CC0BFB03CC8F
:1003300071EB0C01C1E70B46024641464846BDE859
:10034000F08B13B54FF000004FF00001AFF30080C9
:10035000BDE81C4070474FF0000200B513469446BC
:100360009646203922BFA0E80C50A0E80C50B1F10D
:100370002001BFF4F7AF090728BFA0E80C5048BF21
:100380000CC05DF804EB890028BF40F8042B08BFBF
:10039000704748BF20F8022B11F0804F18BF00F8BB
:1003A000012B7047704770477047754600F02CF876
:1003B000AE4605006946534620F00700854618B052
:1003C00020B5FFF73FFFBDE820404FF000064FF09B
:1003D00000074FF000084FF0000B21F00701AC467A
:1003E000ACE8C009ACE8C009ACE8C009ACE8C00999
:1003F0008D46704710B50446AFF300802046BDE837
:100400001040FFF70ABF0000004870470C9700201B
:1004100001491820ABBEFEE726000200704700BF6E
:10042000FEE770B50546AC6BA06B406D022802D0AC
:10043000012084F82500204600F00DF970BD70B54C
:1004400006460025B46BA06A68B3A06B006800681C
:1004500000F40025A06A00F0010078B975B1A06B26
:100460000068C568E26A082303FB02510022A06B02
:1004700000F047FBA06A401EA0622FE0A06B00685E
:10048000006800F4002048BBA06B00680569E26AC0
:10049000082303FB02510122A06B00F032FBA06A8B
:1004A000401EA0621AE0A06B0068006800F4002003
:1004B00020B1D4E90D010968C8600FE0A06B0068A5
:1004C000006800F4002048B9656BE06A042101FB74
:1004D0000050A16B09680861206BA062A06A216BC3
:1004E00088420ED12068C06840F001002168C860D1
:1004F0002068006800F00200022802D1012084F880
:10050000250070BD10B5024800F0BEF810BD000017
:100510001400002010B5024801F052FB10BD00008D
:10052000540000200146087810381823B0FBF3F27D
:100530000848805CC865032A05D908686FF309007C
:10054000001D886503E008686FF309008865886D01
:1005500070470000BE370008014600208A6A8B6998
:10056000CBB932B1012A0DD0022A03D0032A10D10F
:100570000EE000BFCB6A03F08073B3F1807F00D13F
:10058000012007E0CB6AB3F1C07F00D1012001E078
:1005900000E000BF34E08B69B3F5005F1AD132B1DF
:1005A000012A07D0022A03D0032A11D10AE000BF92
:1005B00001200EE0CB6A03F08073B3F1807F00D19D
:1005C000012006E0CB6AB3F1C07F00D1012000E03A
:1005D00000BF15E032B1012A05D0022A04D0032A57
:1005E0000CD103E000BF00BF012008E0CB6A03F09C
:1005F0008073B3F1807F00D1012000E000BF00BF15
:10060000704710B5046863608468402C04D10468A6
:10061000A2600468E16003E00468A1600468E2602D
:1006200010BD30B50468246824F4802405682C606B
:10063000046863608468402C04D10468A260046884
:10064000E16003E00468A1600468E26030BD7047C7
:1006500072B600BFFEE7704738B504460849206807
:1006600088420BD102F048FF06487823A0220021DF
:100670000090084602F084FB02F030FF38BD000015
:10068000000005500C01002070B504462068056983
:1006900005F00400042812D121684861E06B40F0A5
:1006A0000200E063042084F825002648A16B086559
:1006B000A06B01F071FA10B1A06BFFF7B2FE05F06C
:1006C0000200022812D121684861E06B40F001006D
:1006D000E063042084F825001A48A16B0865A06B2C
:1006E00001F05AFA10B1A06BFFF79BFE05F0100065
:1006F000102804D121684861204600F06EF805F00A
:100700000800082804D121684861204600F0F8F963
:1007100005F00100A0B12068006800F00200022886
:1007200005D12068C06820F01E002168C8602068DC
:10073000C06820F001002168C8602046FFF78CFFE8
:1007400070BD00002304000810B504460CB9012058
:1007500010BD94F8250040B9002084F824002046FC
:1007600000F03CF8204600F039F8022084F825001B
:100770002068006840F6F871884321680860616964
:1007800060680843E168084321690843A168084399
:10079000A1690843216A0843216809680843216860
:1007A0000860606810280BD1217F607F41EA00213A
:1007B000A07F41EA0041E07F41EA00602168886152
:1007C0002068C06840F01E002168C8600020E06317
:1007D000012084F825000020BAE7704710B586B0E4
:1007E0000446142101A8FFF7B6FD5E49206888423F
:1007F0007ED100BF002000905B48006840F00100FF
:10080000594908600846006800F00100009000BFE8
:1008100000BF00BF00200090081F006840F01000DB
:10082000091F08600846006800F01000009000BF33
:1008300000BF00BF002000900846006840F00100A3
:1008400008600846006800F00100009000BF00BF8B
:1008500000BF002000900846006840F004000860D7
:100860000846006800F00400009000BF00BF00BF11
:10087000002000900846006840F00200086008462A
:10088000006800F00200009000BF00BF70200190DF
:100890000220029001200390032004900D20059077
:1008A00001A9324801F080FB502001900220029003
:1008B00001200390032004900D20059001A92C48ED
:1008C00001F072FB4FF47070019002200290012041
:1008D0000390032004900D20059001A9254801F004
:1008E00063FBC0200190022002900120039000E0F1
:1008F00036E0032004900D20059001A91E4801F068
:1009000053FB1E481E4908604FF0007048600021EC
:100910001B488160C1604FF4806101614900416101
:10092000890081610021C1614FF40031016204211D
:100930004162032181620021C162016301F060FA1A
:1009400008B1FFF785FE00BF0D48A063846300BFB8
:10095000002203214E2001F0B5FC4E2001F09EFC48
:1009600006B010BD000005503438024000100240AF
:1009700000000240000802400004024028640240D7
:10098000540000202DE9F8430446884615461E46CB
:100990004FF0000900BF94F82400012802D1022082
:1009A000BDE8F883012084F8240000BF022084F809
:1009B00025002068006840F48040216808602068B5
:1009C000006820F00200216808602068006840EAA2
:1009D0000800216808602548A16BC8632448A16B02
:1009E000C8640020A16B0865A0622063B6F5803F53
:1009F00009D2226802F1280133462A46A06B01F091
:100A000075FA074625E01948A16B48640120A062E9
:100A1000E662656305E0E06A4008E062A06A4000C3
:100A2000A062E06AB0F5803FF5D2A06A801EA062A5
:100A3000A06A2063E06A042101FB0059E06A00908B
:100A4000226802F128014B462A46A06B00F062F8AA
:100A500007462068006840F001002168086000BF78
:100A6000002084F8240000BF384699E73F040008BE
:100A70002304000838B50446204800680E21B0FB66
:100A8000F1F00090002500BF94F82400012801D166
:100A9000022038BD012084F8240000BF022084F821
:100AA00025002068006820F001002168086000BF70
:100AB0000098411E009128B9E06B40F02000E063EF
:100AC000032505E02068006800F001000028EFD150
:100AD00000BF2068006820F4804021680860A06B97
:100AE00001F004F8E06BE063012084F8250000BF0A
:100AF000002084F8240000BF2846CAE70C0000202C
:100B00007047034612B91868C16001E018680161B6
:100B1000002070472DE9F04704460E4617461D4653
:100B2000DDF820804FF00009A068802804D1400043
:100B300060650120BDE8F087E06B18B1606C08B11A
:100B4000E06C18B9402060650120F3E700BF94F81D
:100B50003400012801D10220ECE7012084F83400A0
:100B600000BF94F83500012873D1022084F83500C5
:100B7000002060652068006840F4802021680860DB
:100B80002068056143463A4631462046FFF739FD65
:100B9000FA49206888425DD9F9492068884201D124
:100BA000202052E0F54948392068884201D12020B0
:100BB0004BE0F34960312068884201D1202044E0B5
:100BC000EE4918312068884201D120203DE0EC49EF
:100BD00018312068884201D1C01436E0E749303925
:100BE0002068884201D1C0142FE0E549783120689F
:100BF000884201D1C01428E0E049303120688842A1
:100C000001D1C01421E0DE4930312068884202D190
:100C10004FF4001019E0D94918392068884202D1F0
:100C20004FF4001011E0D64990312068884202D17B
:100C30004FF4001009E0D14948312068884202D1C0
:100C40004FF4001001E04FF00060CC494C390860CF
:100C500020E1EFE3CA49A831206888425CD9C8493D
:100C60002068884201D1202052E0C44948392068D8
:100C7000884201D120204BE0C14960312068884280
:100C800001D1202044E0BD4918312068884201D1BB
:100C900020203DE0BA4918312068884201D1C014B3
:100CA00036E0B64930392068884201D1C0142FE0BF
:100CB000B34978312068884201D1C01428E0AF4997
:100CC00030312068884201D1C01421E0AC49303174
:100CD0002068884202D14FF4001019E0A749183962
:100CE0002068884202D14FF4001011E0A4499031ED
:100CF0002068884202D14FF4001009E09F49483132
:100D00002068884202D14FF4001001E04FF00060EB
:100D10009A4950390860BDE09949483120688842B5
:100D20005CD997492068884201D1202052E093493C
:100D300048392068884201D120204BE09049603139
:100D40002068884201D1202044E08C491831206875
:100D5000884201D120203DE089491831206888422D
:100D600001D1C01436E0854930392068884201D16C
:100D7000C0142FE0824978312068884201D1C01424
:100D800028E07E4930312068884201D1C01421E03A
:100D90007B4930312068884202D14FF4001019E0BD
:100DA000764918392068884202D14FF4001011E0CA
:100DB000734990312068884202D14FF4001009E055
:100DC0006E4948312068884202D14FF4001001E09A
:100DD0004FF000606A491039C8605BE068492068DC
:100DE000884201D1202052E0644948392068884275
:100DF00001D120204BE0624960312068884201D156
:100E0000202044E05D4918312068884201D120202B
:100E10003DE05B4918312068884201D1C01436E0BA
:100E2000564930392068884201D1C0142FE0544916
:100E300078312068884201D1C01428E04F49303110
:100E40002068884201D1C01421E04D49303120682A
:100E5000884202D14FF4001019E04849183920683F
:100E6000884202D14FF4001011E0454990312068CA
:100E7000884202D14FF4001009E04049483120680F
:100E8000884202D14FF4001001E04FF000603C496D
:100E9000103988603949206888425CD9384920680F
:100EA000884201D1102052E03449483920688842F4
:100EB00001D110204BE0324960312068884201D1D5
:100EC000102044E02D4918312068884201D11020BB
:100ED0003DE02B4918312068884201D1001536E0E9
:100EE000264930392068884201D100152FE0244975
:100EF00078312068884201D1001528E01F4930313F
:100F00002068884201D1001521E01D493031206858
:100F1000884202D14FF4801019E01849183920682E
:100F2000884202D14FF4801011E0154990312068B9
:100F3000884202D14FF4801009E0104948312068FE
:100F4000884202D14FF4801001E04FF080600B49DD
:100F50004C39086020E10A49A831206888425FD9ED
:100F600007492068884201D1102055E003494839DB
:100F70002068884206D110204EE0000058640240EC
:100F800010600240F8492068884201D1102043E0F7
:100F9000F6492068884201D110203DE0F2494839E5
:100FA0002068884201D1001536E0F04948392068B0
:100FB000884201D100152FE0EB49183120688842A2
:100FC00001D1001528E0E94918312068884201D193
:100FD000001521E0E44930392068884202D14FF4FD
:100FE000801019E0E14930392068884202D14FF47D
:100FF000801011E0DC4930312068884202D14FF482
:10100000801009E0D94930312068884202D14FF47C
:10101000801001E04FF08060D44968390860BBE07F
:10102000D1491839206888425BD9CF496039206896
:10103000884201D1102050E0CC49603920688842B4
:1010400001D1102049E0C8492068884201D1102010
:1010500043E0C6492068884201D110203DE0C249E2
:1010600048392068884201D1001536E0BF49483927
:101070002068884201D100152FE0BB491831206853
:10108000884201D1001528E0B8491831206888420B
:1010900001D1001521E0B44930392068884202D1DD
:1010A0004FF4801019E0B14930392068884202D1EC
:1010B0004FF4801011E0AC4930312068884202D1F1
:1010C0004FF4801009E0A94930312068884202D1EC
:1010D0004FF4801001E04FF08060A3497039C86080
:1010E0005AE0A14960392068884201D1102050E0BF
:1010F0009E4960392068884201D1102049E09A4910
:101100002068884201D1102043E098492068884235
:1011100001D110203DE0944948392068884201D12E
:10112000001536E0914948392068884201D1001500
:101130002FE08D4918312068884201D1001528E040
:101140008A4918312068884201D1001521E086497A
:1011500030392068884202D14FF4801019E0834969
:1011600030392068884202D14FF4801011E07E4966
:1011700030312068884202D14FF4801009E07B4969
:1011800030312068884202D14FF4801001E04FF0E6
:1011900080607549703988607449183920688842C0
:1011A0005BD9714960392068884201D1082050E03C
:1011B0006E4960392068884201D1082049E06A49B7
:1011C0002068884201D1082043E0684920688842AD
:1011D00001D108203DE0644948392068884201D1A6
:1011E000401536E0614948392068884201D14015F0
:1011F0002FE05D4918312068884201D1401528E070
:101200005A4918312068884201D1401521E05649D9
:1012100030392068884202D14FF4002019E0534948
:1012200030392068884202D14FF4002011E04E4945
:1012300030312068884202D14FF4002009E04B4948
:1012400030312068884202D14FF4002001E04FF095
:1012500000704649643908601FE1434948312068FD
:1012600088425BD9404960392068884201D1082012
:1012700050E03E4960392068884201D1082049E0A9
:1012800039492068884201D1082043E03749206865
:10129000884201D108203DE033494839206888421E
:1012A00001D1401536E0314948392068884201D1E2
:1012B00040152FE02C4918312068884201D1401593
:1012C00028E02A4918312068884201D1401521E0E0
:1012D000254930392068884202D14FF4002019E0B6
:1012E000224930392068884202D14FF4002011E0B1
:1012F0001D4930312068884202D14FF4002009E0B6
:101300001A4930312068884202D14FF4002001E0B0
:101310004FF00070154968390860BEE0124918396D
:10132000206888425DD9104960392068884201D11F
:10133000082052E00D4960392068884201D1082018
:101340004BE009492068884201D1082045E007495F
:101350002068884201D108203FE0034948392068CD
:10136000884205D1401538E0706002407064024048
:10137000FA492068884201D140152EE0F8492068DA
:10138000884201D1401528E0F44960312068884244
:1013900001D1401521E0F24948392068884202D144
:1013A0004FF4002019E0ED4918312068884202D13D
:1013B0004FF4002011E0EA4918312068884202D138
:1013C0004FF4002009E0E54978312068884202D1D5
:1013D0004FF4002001E04FF00070E1498839C86007
:1013E0005BE0DF4978392068884201D1082051E06C
:1013F000DA4918392068884201D108204AE0D849E2
:1014000018392068884201D1082043E0D349483187
:101410002068884201D108203CE0D1496039206829
:10142000884201D1401535E0CC492068884202D17C
:1014300040152FE04CE3CA492068884201D140158D
:1014400028E0C64960312068884201D1401521E07A
:10145000C34948392068884202D14FF4002019E07E
:10146000BE4918312068884202D14FF4002011E0B3
:10147000BB4918312068884202D14FF4002009E0AE
:10148000B64978312068884202D14FF4002001E04B
:101490004FF00070B24988398860B0493031206817
:1014A00088425BD9AE4978392068884201D104204E
:1014B00050E0AA4918392068884201D1042049E047
:1014C000A74918392068884201D1042042E0A34985
:1014D00048312068884201D104203BE0A0496039AE
:1014E0002068884201D1801534E09C4920688842F8
:1014F00001D180152EE09A492068884201D18015DB
:1015000028E0964960312068884201D1801521E0A9
:10151000934948392068884202D14FF4802019E06D
:101520008E4918312068884202D14FF4802011E0A2
:101530008B4918312068884202D14FF4802009E09D
:10154000864978312068884202D14FF4802001E03A
:101550004FF0807081491C3908601EE180493031AC
:10156000206888425BD97E4978392068884201D159
:10157000042050E0794918392068884201D10420BC
:1015800049E0774918392068884201D1042042E0B7
:10159000724948312068884201D104203BE07049FB
:1015A00060392068884201D1801534E06B49206899
:1015B000884201D180152EE069492068884201D116
:1015C000801528E0654960312068884201D1801586
:1015D00021E0634948392068884202D14FF48020D5
:1015E00019E05E4918312068884202D14FF480200A
:1015F00011E05B4918312068884202D14FF4802005
:1016000009E0564978312068884202D14FF48020A1
:1016100001E04FF08070514920390860BDE0504929
:101620003039206888425BD94D4978392068884232
:1016300001D1042050E0494918392068884201D17D
:10164000042049E0464918392068884201D1042025
:1016500042E0424948312068884201D104203BE001
:101660003F4960392068884201D1801534E03B4908
:101670002068884201D180152EE0394920688842CF
:1016800001D1801528E0354960312068884201D1B8
:10169000801521E0324948392068884202D14FF450
:1016A000802019E02D4918312068884202D14FF47A
:1016B000802011E02A4918312068884202D14FF475
:1016C000802009E0254978312068884202D14FF412
:1016D000802001E04FF0807021498839C8605CE0CB
:1016E0001F4978392068884201D1042052E01B4903
:1016F00018392068884201D104204BE01849183974
:101700002068884201D1042044E01449483120680F
:10171000884201D104203DE01149603920688842A7
:1017200001D1801536E00D492068884201D180152D
:1017300030E00B492068884201D180152AE0074932
:1017400060312068884201D1801523E0044948397E
:101750002068884206D14FF480201BE028640240B4
:1017600088600240DF492068884202D14FF480201F
:1017700010E0DD492068884202D14FF4802009E062
:10178000D84960312068884202D14FF4802001E0BE
:101790004FF08070D449A0398860D2491831206850
:1017A00088425BD9D04990392068884201D1012014
:1017B00050E0CC4930392068884201D1012049E00D
:1017C000C94930392068884201D1012042E0C54929
:1017D00030312068884201D101203BE0C24978398C
:1017E0002068884201D1402034E0BE491839206881
:1017F000884201D140202DE0BB4918392068884239
:1018000001D1402026E0B74948312068884201D103
:1018100040201FE0B44960392068884202D14FF46B
:10182000803017E0AF492068884202D14FF4803001
:1018300010E0AD492068884202D14FF4803009E0C1
:10184000A84960312068884202D14FF4803001E01D
:101850004FF48000A349343908601CE1A2491831D3
:10186000206888425BD9A04990392068884201D11C
:10187000012050E09B4930392068884201D1012085
:1018800049E0994930392068884201D1012042E07D
:10189000944930312068884201D101203BE09249CF
:1018A00078392068884201D1402034E08D491839C8
:1018B0002068884201D140202DE08B4918392068EA
:1018C000884201D1402026E086494831206888427C
:1018D00001D140201FE0844960392068884202D14C
:1018E0004FF4803017E07F492068884202D14FF4DE
:1018F000803010E07C492068884202D14FF480306B
:1019000009E0784960312068884202D14FF4803084
:1019100001E04FF48000734938390860BBE0724938
:101920004839206888425BD96F49903920688842DD
:1019300001D1012050E06B4930392068884201D143
:10194000012049E0684930392068884201D10120EE
:1019500042E0644930312068884201D101203BE0F7
:10196000614978392068884201D1402034E05D49DE
:1019700018392068884201D140202DE05A49183991
:101980002068884201D1402026E05649483120682D
:10199000884201D140201FE05349603920688842C5
:1019A00002D14FF4803017E04E492068884202D1BE
:1019B0004FF4803010E04C492068884202D14FF447
:1019C000803009E0474960312068884202D14FF4F5
:1019D000803001E04FF480004349A039C8605AE0EC
:1019E000414990392068884201D1012050E03D49A9
:1019F00030392068884201D1012049E03A49303924
:101A00002068884201D1012042E036493031206807
:101A1000884201D101203BE033497839206888426F
:101A200001D1402034E02F4918392068884201D183
:101A300040202DE02C4918392068884201D14020EF
:101A400026E0284948312068884201D140201FE023
:101A5000254960392068884202D14FF4803017E070
:101A600020492068884202D14FF4803010E01E499E
:101A70002068884202D14FF4803009E01949603172
:101A80002068884202D14FF4803001E04FF480009A
:101A90001549A03988602068006840F01600216868
:101AA00008602068406940F0800021684861206C2F
:101AB00008B9A06C28B12068006840F008002168CF
:101AC00008602068006840F001002168086006E0B6
:101AD00000BF002084F8340000BF4FF002094846E0
:101AE000FFF728B840640240A060024070B5044689
:101AF000A56D00F059FB064694F83500022808D081
:101B00008020606500BF002084F8340000BF012001
:101B100070BD2068006820F0160021680860206809
:101B2000406920F0800021684861206C08B9A06CF1
:101B300028B12068006820F008002168086020684B
:101B4000006820F001002168086010E000F02CFB24
:101B5000801B05280BD920206065032084F8350000
:101B600000BF002084F8340000BF0320D0E72068C5
:101B7000006800F001000028E8D194F85C103F20D4
:101B80008840A860012084F8350000BF002084F858
:101B9000340000BF00BFBBE7014691F835000228C2
:101BA00003D08020486501207047052081F835006A
:101BB0000868006820F001000A6810600020F3E760
:101BC000F8B50446002000908C4800684FF4165188
:101BD000B0FBF1F7A56D2E6894F85C1008208840E2
:101BE000304098B12068006800F0040070B12068AF
:101BF000006820F004002168086094F85C10082058
:101C00008840A860606D40F00100606594F85C1049
:101C100001208840304068B12068406900F08000B1
:101C200040B194F85C1001208840A860606D40F0DD
:101C30000200606594F85C1004208840304068B170
:101C40002068006800F0020040B194F85C100420A5
:101C50008840A860606D40F00400606594F85C10F6
:101C600010208840304078B32068006800F00800F9
:101C700050B394F85C1010208840A8602068006879
:101C800000F4802080B12068006800F4002028B9AA
:101C9000206CC8B12046216C884715E0A06C98B133
:101CA0002046A16C88470FE02068006800F480702F
:101CB00028B92068006820F0080021680860206CBE
:101CC00010B12046216C884794F85C102020884091
:101CD0003040002865D02068006800F0100000281F
:101CE0005FD094F85C1020208840A86094F83500FC
:101CF000052828D12068006820F0160021680860B7
:101D00002068406920F0800021684861206C08B993
:101D1000A06C28B12068006820F0080021680860E5
:101D200094F85C103F208840A860012084F83500BA
:101D300000BF002084F8340000BF206D10B12046A1
:101D4000216D8847F8BD2068006800F4802080B1CC
:101D50002068006800F4002028B9606C10B12046AB
:101D6000616C88471DE0E06BD8B12046E16B884785
:101D700017E02068006800F4807068B92068006887
:101D800020F0100021680860012084F8350000BFB1
:101D9000002084F8340000BFE06B10B12046E16BF6
:101DA0008847606D38B3606D00F00100F0B1052028
:101DB00084F835002068006820F001002168086080
:101DC00000BF0098401C0090B84200D905E0206890
:101DD000006800F001000028F3D100BF012084F862
:101DE000350000BF002084F8340000BFE06C10B163
:101DF0002046E16C884700BFA4E700000C000020EB
:101E00002DE9F0410446002500F0CEF9074614B94B
:101E10000120BDE8F081606A00B100BF022084F8B3
:101E2000350000BF002084F8340000BF206800683F
:101E300020F00100216808600AE000F0B5F9C01B3D
:101E4000052805D920206065032084F83500E0E7E7
:101E50002068006800F001000028EED120680568C5
:101E600021480540D4E901010843E168084321699C
:101E7000084361690843A1690843E1690843216A8D
:101E800008430543606A042803D1D4E90B010843E1
:101E90000543206805602068456925F00705606AEC
:101EA0000543606A04280DD1A06A0543E06A48B181
:101EB0002046FEF751FB28B140206065012084F8E0
:101EC0003500A6E7206845612046FEF72BFB064655
:101ED00094F85C103F208840B060002060650120CD
:101EE00084F83500002094E73F8010F02DE9F0479A
:101EF00004460D4616461F464FF00008D4F8589089
:101F000000BF94F83400012802D10220BDE8F08718
:101F1000012084F8340000BF94F83500012825D151
:101F2000022084F83500002060653B463246294691
:101F30002046FEF776FB94F85C103F208840C9F8F5
:101F400008002068006840F0160021680860206CD6
:101F500028B12068006840F0080021680860206807
:101F6000006840F001002168086006E000BF002022
:101F700084F8340000BF4FF002084046C6E7000076
:101F800070B5044600F010F906462546681C10B1ED
:101F900004480078054400BF00F006F9801BA84201
:101FA000FAD370BD08000020F8B502460B460025A4
:101FB000002400200021D6E0012606FA01F51E6863
:101FC00006EA0504AC4274D11E7906F00306012E20
:101FD00004D01E7906F00306022E13D190684F003C
:101FE0000326BE40B0434F00DE68BE4030439060E1
:101FF000506801268E40B0431E79C6F300168E400D
:10200000304350601E7906F00306032E09D0D068D5
:102010004F000326BE40B0434F009E68BE40304391
:10202000D0601E7906F00306022E13D1CF0802F10C
:10203000200656F827004E07F70E0F26BE40B04385
:102040004F07FF0E1E69BE403043CF0802F1200645
:1020500046F8270010684F000326BE40B0431E79A3
:1020600006F003064F00BE40304310605E6806F481
:102070004036002E76D000BF002600963C4E3668D3
:1020800046F480463A4F3E603E46366806F4804647
:10209000009600BF00BF374E8F0856F827008E0706
:1020A000370F0F26BE40B043334EB24202D1002656
:1020B00024E057E0314EB24201D101261EE0304EFD
:1020C000B24201D1022619E02E4EB24201D10326BE
:1020D00014E02D4EB24201D104260FE02B4EB24245
:1020E00001D105260AE02A4EB24201D1062605E0BA
:1020F000284EB24201D1072600E008268F073F0F85
:10210000BE4030431B4E8F0846F82700224E3068F1
:10211000A0435E6806F4801606B120431E4E306070
:10212000361D3068A0435E6806F4001606B12043F1
:10213000194E361D3060184E361F3068A0435E6859
:1021400006F4003606B12043134E361F3060361FAA
:102150003068A0435E6806F4803606B120430E4E18
:10216000083E3060491C1029FFF426AFF8BD00007E
:102170004438024008380140000002400004024098
:1021800000080240000C024000100240001402400F
:1021900000180240001C0240083C01400AB1816165
:1021A00001E00B048361704701480068704700003C
:1021B00000000020034800680349097808440149E9
:1021C00008607047000000200800002010B50D488E
:1021D000006840F400700B4908600846006840F44D
:1021E000806008600846006840F480700860032042
:1021F00000F0A6F80F2000F007F800F02BF8002000
:1022000010BD0000003C024070B504460E48007846
:102210004FF47A71B1FBF0F00C490968B1FBF0F5AD
:10222000284600F090FD08B1012070BD102C07D2A7
:1022300000222146501E00F045F80548046001E0E8
:102240000120F2E70020F0E7080000200C00002049
:102250000400002008B500BF002000900E48006870
:1022600040F480400C4908600846006800F4804053
:10227000009000BF00BF00BF00200090081F006852
:1022800040F08050091F08600846006800F0805048
:10229000009000BF00BF08BD443802400146084618
:1022A00000280DDB00BF00BF00F01F0301229A4091
:1022B00043099B0003F1E023C3F8002100BF00BFE6
:1022C00000BF70472DE9F05F80460D461646002797
:1022D00001F038FA074639462A46334601F007002E
:1022E000C0F1070ABAF1040F02D94FF0040A01E065
:1022F000C0F1070AD14600F1040ABAF1070F02D271
:102300004FF0000A01E0A0F1030AD4464FF0010AA1
:102310000AFA09FAAAF1010A0AEA020A0AFA0CFA06
:102320004FF0010B0BFA0CFBABF1010B0BEA030BAB
:102330004AEA0B042146404601F00CFABDE8F09F42
:1023400000BF00F00702064B19684FF6FF03194063
:10235000044B0B4343EA0221014B196000BF704755
:102360000CED00E00000FA0570B504460D460CB90E
:10237000012070BD5848006800F00700A84209D24B
:1023800055490D700846006800F00700A84201D0CA
:102390000120EEE7207800F0020002281DD120780D
:1023A00000F00400042805D14C48006840F4E050D7
:1023B0004A490860207800F00800082805D14748FD
:1023C000006840F46040454908604448006820F0D7
:1023D000F000A168084341490860207800F001003E
:1023E000A8B36068012807D13C4808380068C0F3EA
:1023F0004040B8B90120BCE76068022802D060689C
:10240000032807D1354808380068C0F3406048B950
:102410000120AEE7314808380068C0F3400008B931
:102420000120A6E72D48006820F0030061680843FA
:102430002A490860FFF7B8FE064609E0FFF7B4FE38
:10244000801B41F28831884202D9032091E707E0DE
:102450002248006800F00C006168B0EB810FEDD1FC
:102460001D48006800F00700A84209D91A490D70FC
:102470000846006800F00700A84201D0012078E774
:10248000207800F00400042807D11448006820F4E4
:10249000E050E168084311490860207800F0080026
:1024A000082808D10D48006820F46040216940EAFE
:1024B000C1000A49086000F019F808490968C1F329
:1024C0000311074A515CC840064908600648006885
:1024D000FFF79AFE00204CE7003C0240083802401B
:1024E000C63700080C000020040000202DE9F0474A
:1024F000002400250026A1462548006800F00C00B5
:1025000020B1042805D008283AD105E0DFF88490EE
:1025100039E0DFF8849036E01D48001F006800F0C5
:102520003F041B48001F006800F4800078B11A487F
:102530001749091F0968C1F38811A0FB0170014602
:10254000224600233846FDF78FFE05460EE011486F
:102550000F49091F0968C1F38811A0FB01700146EA
:10256000224600233846FDF77FFE05460848001F37
:102570000068C0F30140401C4600B5FBF6F902E0DC
:10258000DFF8109000BF00BF4846BDE8F0870000AC
:10259000083802400024F40040787D01F8B5044674
:1025A0000CB90120F8BD207800F00100002874D09B
:1025B000F948006800F00C0004280DD0F6480068C7
:1025C00000F00C00082813D1F348001F006800F445
:1025D0008000B0F5800F0BD1EF4808380068C0F3D9
:1025E0004040002859D06068002856D10120D9E722
:1025F00000BF6068B0F5803F08D1E7480838006840
:1026000040F48030E449083908601EE06068B0F5A5
:10261000A02F0DD1E0480838006840F48020DE4942
:10262000083908600846006840F4803008600CE013
:10263000D9480838006820F48030D7490839086044
:102640000846006820F48020086000BF606890B1F0
:10265000FFF7AAFD054606E0FFF7A6FD401B64282C
:1026600001D903209EE7CC4808380068C0F34040F9
:102670000028F1D011E0FFF797FD054606E0FFF7CF
:1026800093FD401B642801D903208BE7C24808381A
:102690000068C0F340400028F1D1207800F002002B
:1026A00002285FD1BC48006800F00C0058B1BA485D
:1026B000006800F00C0008281CD1B748001F006813
:1026C00000F48000B0B9B44808380068C0F3400096
:1026D00020B1E068012801D0012063E7AE48083846
:1026E000006820F0F800216940EAC100AA490839D1
:1026F000086037E0E06800B30120A8490860FFF7F0
:1027000053FD054606E0FFF74FFD401B022801D9A7
:10271000032047E7A04808380068C0F340000028BD
:10272000F1D09D480838006820F0F800216940EA9F
:10273000C10099490839086014E0002097490860F1
:10274000FFF732FD054606E0FFF72EFD401B02288D
:1027500001D9032026E7904808380068C0F34000FC
:102760000028F1D1207800F0080008282CD16069F9
:10277000A8B101208A490860FFF716FD054606E06A
:10278000FFF712FD401B022801D903200AE7824807
:102790006C300068C0F340000028F1D014E0002045
:1027A0007F490860FFF700FD054606E0FFF7FCFCE7
:1027B000401B022801D90320F4E677486C300068FA
:1027C000C0F340000028F1D1207800F00400042874
:1027D00070D1002770483830006800F0805090B900
:1027E00000BF002000906C483830006840F08050F6
:1027F0006949383108600846006800F08050009050
:1028000000BF00BF01276748006800F48070B0B9BE
:102810006448006840F4807062490860FFF7C4FCB7
:10282000054606E0FFF7C0FC401B022801D9032043
:10283000B8E65C48006800F480700028F2D000BF61
:10284000A068012808D154486830006840F00100B1
:102850005149683108601DE0A06805280DD14E4837
:102860006830006840F004004B4968310860084651
:10287000006840F0010008600CE0474868300068DC
:1028800020F001004449683108600846006820F0E3
:102890000400086000BFA068A8B1FFF785FC0546EA
:1028A00009E0FFF781FC401B41F28831884202D9E0
:1028B000032077E626E0384868300068C0F340001F
:1028C0000028EED013E0FFF76FFC054608E0FFF7A5
:1028D0006BFC401B41F28831884201D9032061E63C
:1028E0002D4868300068C0F340000028EFD1012F68
:1028F00007D129483830006820F080502649383107
:10290000086000BFA069002845D02348006800F097
:102910000C0008285DD0A069022845D100201F497D
:102920000866FFF741FC054606E0FFF73DFC401B4B
:10293000022801D9032035E6174808380068C0F39B
:1029400040600028F1D1D4E907010843616A40EAF8
:1029500081110122A06AC2EB500041EA00412C2003
:10296000005D41EA00600C49091F086001200B4925
:102970000866FFF719FC054606E0FFF715FC401B4B
:10298000022801D903200DE6034808380068C0F387
:1029900040600028F1D049E008380240000047427A
:1029A000800E474200700040002021490866FFF772
:1029B000FBFB054606E0FFF7F7FB401B022801D9A9
:1029C0000320EFE51B480068C0F340600028F2D107
:1029D0002CE0A069012800D1E4E51648001D066836
:1029E000A069012820D006F48001E06981421BD152
:1029F00006F03F01206A814216D147F6C070304090
:102A0000616AB0EB811F0FD106F440310122A06A48
:102A1000C2EB5000B1EB004F06D106F070612C20E4
:102A2000005DB1EB006F01D00120BBE50020B9E5EE
:102A3000000047420038024010B504460CB901209E
:102A400010BD606A38B96068B0F5827F00D105E0DA
:102A50000021E16102E00021216161610021A162A8
:102A600094F8510028B9002084F85000204600F066
:102A700047F8022084F851002068006820F04000E8
:102A800021680860A08800F48270218901F4044163
:102A90000843A18901F400610843217C01F002018F
:102AA0000843217D01F001010843218B01F40071ED
:102AB0000843217F01F0380108432021095D01F01E
:102AC00080010843218D01F400510843216808600A
:102AD0000421A06901EA104094F8241001F01001CB
:102AE0000843216848602068C06920F400602168BC
:102AF000C86100206065012084F8510000209FE734
:102B000010B586B00446142101A8FDF724FC1B492A
:102B10002068884230D100BF00200090184800682B
:102B200040F40040164908600846006800F4004080
:102B3000009000BF00BF00BF002000901048103878
:102B4000006840F004000E4910390860084600682B
:102B500000F00400009000BF00BF4FF4E05001906F
:102B6000022002900020039003200490062005908C
:102B700001A90448FFF718FA06B010BD003C004058
:102B800040380240000802402DE9F84304460F4651
:102B900016461D46FFF708FB8046B14694F85100E3
:102BA000012802D00220BDE8F88307B10EB9012048
:102BB000F9E700BF94F85000012801D10220F2E7A4
:102BC000012084F8500000BF032084F85100002049
:102BD00060652763A686E686A063A087E0876064B9
:102BE0002064A068B0F5004F0BD12068006820F089
:102BF0004000216808602068006840F48040216837
:102C000008602068006800F04000402805D0206877
:102C1000006840F0400021680860E068B0F5006F8F
:102C200037D1606810B1B9F1010F09D1206B00886C
:102C30002168C860206B801C2063E08E401EE08607
:102C400023E02068806800F0020002280AD1206B8F
:102C500000882168C860206B801C2063E08E401EC5
:102C6000E08612E0FFF7A0FAA0EB0800A84201D32B
:102C7000681C00B94DB9012084F8510000BF002044
:102C800084F8500000BF03208DE7E08E0028D8D1E3
:102C900036E0606810B1B9F1010F09D1206B0078FE
:102CA00021680873206B401C2063E08E401EE08684
:102CB00023E02068806800F0020002280AD1206B1F
:102CC000007821680873206B401C2063E08E401E52
:102CD000E08612E0FFF768FAA0EB0800A84201D3F3
:102CE000681C00B94DB9012084F8510000BF0020D4
:102CF00084F8500000BF032055E7E08E0028D8D1AB
:102D000042462946204600F001FC08B120206065BB
:102D1000A06850B900BF002000902068C0680090F3
:102D200020688068009000BF00BF012084F8510037
:102D300000BF002084F8500000BF606D08B1012082
:102D400031E700202FE770B504462546681EB0F134
:102D5000807F01D301200FE0681E4FF0E021486121
:102D60000F214FF0FF3000F0F5FC00204FF0E02184
:102D7000886107200861002070BD00BFFEE70000E9
:102D80002DE9F04706460F4614461D46DDF8208023
:102D90007819401E83B23019401E82B2394630463F
:102DA00000F048F9012202210D48FFF7F7F900224F
:102DB00001210B48FFF7F2F904FB05F04FEA400947
:102DC0001FFA89F24FF6FF7341460648FFF7DCFE13
:102DD000012211460248FFF7E1F9BDE8F087000043
:102DE000000C0240B400002070B504460D461646A3
:102DF000F02C02DAB5F5A07F00DB70BD2B46224631
:102E00002946204600F016F9304600F031FA00BF9E
:102E1000F3E7000010B5002204218548FFF7BEF952
:102E20006420FFF7ADF8012204218148FFF7B6F9CD
:102E30006420FFF7A5F8CF2000F0E2F9002000F0B1
:102E4000FBF9C12000F0F8F9302000F0F5F9ED2091
:102E500000F0D6F9642000F0EFF9032000F0ECF95F
:102E6000122000F0E9F9812000F0E6F9E82000F0F6
:102E7000C7F9852000F0E0F9002000F0DDF97820A6
:102E800000F0DAF9CB2000F0BBF9392000F0D4F9DA
:102E90002C2000F0D1F9002000F0CEF9342000F011
:102EA000CBF9022000F0C8F9F72000F0A9F92020A2
:102EB00000F0C2F9EA2000F0A3F9002000F0BCF90C
:102EC000002000F0B9F9C02000F09AF9232000F0AA
:102ED000B3F9C12000F094F9102000F0ADF9C5203D
:102EE00000F08EF93E2000F0A7F9282000F0A4F9A8
:102EF000C72000F085F9862000F09EF9362000F00A
:102F00007FF9482000F098F93A2000F079F955202F
:102F100000F092F9B12000F073F9002000F08CF974
:102F2000182000F089F9B62000F06AF9082000F0B6
:102F300083F9822000F080F9272000F07DF9F2204B
:102F400000F05EF9002000F077F9262000F058F933
:102F5000012000F071F9E02000F052F90F2000F09C
:102F60006BF9312000F068F92B2000F065F90C2096
:102F700000F062F90E2000F05FF9082000F05CF923
:102F80004E2000F059F9F12000F056F9372000F0FA
:102F900053F9072000F050F9102000F04DF90320FC
:102FA00000F04AF90E2000F047F9092000F044F93A
:102FB000002000F041F9E12000F022F9002000F0AB
:102FC0003BF90E2000F038F9142000F035F9032009
:102FD00000F032F9112000F02FF9072000F02CF951
:102FE000312000F029F9C12000F026F9482000F036
:102FF00023F9082000F020F90F2000F01DF90C2023
:1030000000F01AF9312000F017F9362000F014F919
:103010000F2000F011F9112000F0F2F87820FEF7EF
:10302000AFFF292000F0ECF82C2000F0E9F810BDEB
:10303000000C02402DE9F04104460D4616461F469D
:103040002A2000F0DDF8201200F0F6F8E0B200F0DF
:10305000F3F8301200F0F0F8F0B200F0EDF82B20A9
:1030600000F0CEF8281200F0E7F8E8B200F0E4F83B
:10307000381200F0E1F8F8B200F0DEF82C2000F091
:10308000BFF8BDE8F08100002DE9FF4F83B0814615
:103090008A469346DDE910643F4800880290A6F115
:1030A0002000C6B204EBD47009EB6000401E82B26F
:1030B0000AEB0400401E83B2514648460194FFF7D4
:1030C000B9FF129850BB002525E00C2C07D106EB68
:1030D0004600324901EB800010F8058004E03048DA
:1030E00000EB061010F8058000270DE008F0010045
:1030F00018B1584600F0BCF802E0069800F0B8F8A5
:103100004FEA6808781CC7B204EBD471B7EB610FC3
:10311000ECDB681CC5B2A542D7DB2FE000252BE015
:103120000C2C07D106EB46001C4901EB800010F87F
:10313000058004E01A4800EB061010F8058000270F
:1031400013E01548A0F800B008F0010048B10AEB00
:10315000050291B209EB070290B20F4A1288FFF7FD
:1031600043FE4FEA6808781CC7B204EBD471B7EB92
:10317000610FE6DB681CC5B2A542D1DB06490298A7
:103180000880EF2340F23F1200210846FFF752FF6C
:1031900007B0BDE8F08F000010000020DE37000807
:1031A000523C00082DE9FE4306460F4615461C46D4
:1031B000DDF8288018E0B6F5A07F01DAEF2F01DDF9
:1031C000BDE8FE8320788DE821010B4803880B4879
:1031D000028839463046FFF757FF284605EBD07185
:1031E00006EB61018EB2641C20787E2802DC207818
:1031F0002028E0DA00BFE3E71200002010000020E2
:1032000001B5002202210A48FEF7C8FF0022012171
:103210000748FEF7C3FF4FF0FF3301226946054818
:10322000FFF7B2FC012211460148FEF7B7FF08BDC7
:10323000000C0240B400002001B5012202210A481E
:10324000FEF7ACFF002201210748FEF7A7FF4FF071
:10325000FF33012269460548FFF796FC012211461B
:103260000148FEF79BFF08BD000C0240B40000209F
:1032700038B5044620128DF80000E0B28DF8010048
:10328000012202210A48FEF789FF00220121084895
:10329000FEF784FF4FF0FF33022269460548FFF72F
:1032A00073FC012211460248FEF778FF38BD00008A
:1032B000000C0240B400002010B50E480E49086012
:1032C0000020486020210C4881600021C16001611C
:1032D0004161816108210162FDF736FA08B1FDF70D
:1032E000B7F905480068C06840F001000249096864
:1032F000C86010BD000005501400002008B500BFD4
:10330000002000900A48006840F4800008490860E6
:103310000846006800F48000009000BF00BF002253
:1033200011463920FEF7CEFF3920FEF7B7FF08BD62
:103330003038024000B587B0142102A8FDF70BF821
:1033400000BF002001904E48006840F010004C493A
:1033500008600846006800F01000019000BF00BF40
:1033600000BF002001900846006840F0800008601F
:103370000846006800F08000019000BF00BF00BF59
:10338000002001900846006840F0010008600846EF
:10339000006800F00100019000BF00BF00BF0020E6
:1033A00001900846006840F0040008600846006884
:1033B00000F00400019000BF00BF00BF002001909A
:1033C0000846006840F0080008600846006800F001
:1033D0000800019000BF00BF00BF00200190084618
:1033E000006840F0400008600846006800F04000B7
:1033F000019000BF00BF00BF002001900846006898
:1034000040F0020008600846006800F002000190E9
:1034100000BF00BF012207211A48FEF7BFFE0122AC
:103420004FF402411848FEF7B9FE01224FF44071F3
:103430001648FEF7B3FE0720029001200390049087
:103440000320059002A90F48FEF7AEFD4FF402409D
:1034500002900120039004900320059002A90A48DD
:10346000FEF7A2FD4FF440700290012003900490FB
:103470000320059002A90548FEF796FD07B000BDA0
:1034800030380240000C02400018024000040240A4
:1034900010B50E480E4908604FF482704860002154
:1034A0000B488160C160016141614FF4007181612D
:1034B0000021C1610162416281620A21C162FFF79C
:1034C000BBFA08B1FDF7C4F810BD0000003C004095
:1034D000B400002000BFFEE700BFFEE710B54FF4C8
:1034E0001643034A00210348FDF74CFA10BD0000C3
:1034F0000C0100201400002010B50248FDF7BAFAB4
:1035000010BD000014000020704700007CB5044688
:103510000E4615463346012202212046009500F052
:1035200039F828B1606D40F02000606503207CBD53
:10353000164800681821B0FBF1F01549B0FBF1F016
:103540004FF47A71484301906068B0F5827F0DD1E5
:103550003346002280212046009500F01BF898B1E8
:10356000606D40F0200060650320E0E700BF019837
:1035700000B908E00198401E019020688068C0F3FF
:10358000C0100028F3D100BF0020D0E70C000020BD
:1035900040420F002DE9F84F04460D4690461E4666
:1035A000DDF82890FEF700FEA0EB0900371AFEF7C1
:1035B000FBFD82462C480068C0F3CB307843009076
:1035C00046E0701C002843D0FEF7EEFDA0EB0A0099
:1035D000B84200D2A7BB2068406820F0E000216814
:1035E00048606068B0F5827F0DD1A068B0F5004FEB
:1035F00003D0A068B0F5806F05D12068006820F086
:10360000400021680860A06AB0F5005F0DD100BFDE
:103610002068006820F40050216808602068006875
:1036200040F400502168086000BF012084F8510078
:1036300000BF002084F8500000BF0320BDE8F88FD1
:10364000FFE7009808B9002702E00098401E0090AC
:10365000206880682840A84201D1012000E00020B5
:103660004045AED10020E9E70C000020704710B5BE
:10367000FEF7A0FD10BD000000B593B0302107A8F3
:10368000FCF769FE142102A8FCF765FE00BF0020CC
:1036900001902448006840F08050224908600846A4
:1036A000006800F08050019000BF00BF00BF002004
:1036B00001901D48006840F480401B49086008469E
:1036C000006800F48040019000BF00BF0120079017
:1036D0000004089002200D9041050E9119210F91D0
:1036E0004FF4A8711091022111910421129107A8A1
:1036F000FEF754FF08B1FCF7ABFF0F200290022049
:103700000390002004904FF4A05005904FF4805097
:103710000690052102A8FEF727FE08B1FCF798FFE6
:1037200013B000BD403802400070004003480068FC
:1037300040F47000014908607047000088ED00E027
:1037400000BFFEE702480068C0F302207047000097
:103750000CED00E010B5002804DB0A07130E054A43
:10376000135406E00A07140E034A00F00F031B1F50
:10377000D45410BD00E400E018ED00E008B5FEF7F9
:1037800025FDFFF779FFFFF7D5FDFFF7B7FDFFF741
:103790007FFEFFF791FDFFF73DFB002003A30C2206
:1037A00001460090FFF7FEFC00BFFEE731323334E4
:1037B000353600004FF04070E1EE100A7047000609
:1037C00010160006101600000000000000000102A4
:1037D00003040607080900000000010203040000BA
:1037E00000000000000000000000000004040404C9
:1037F00004040004000000140A0A00000000000095
:103800000000000014143F140A3F0A0A00000004DC
:103810001E1505060C14150F0400000012150D0AE4
:10382000142C2A1200000000040A0A1E151509367D
:103830000000000202010000000000000000002063
:1038400010080808080808102000000204080808EA
:1038500008080804020000000004150E0E150400FC
:10386000000000000404041F040404000000000021
:103870000000000000000002020100000000001F24
:103880000000000000000000000000000000000236
:1038900000000010080808040402020201000000F1
:1038A0000E1111111111110E000000000406040484
:1038B0000404040E000000000E1111080402011F90
:1038C000000000000E11100C1010110E000000007E
:1038D000080C0A0A091E0818000000001F01010F49
:1038E0001010110E000000000E09010F1111110E31
:1038F000000000001F090804040404040000000084
:103900000E11110E1111110E000000000E111111F7
:103910001E10120E00000000000004000000000451
:10392000000000000000000400000004040000206B
:1039300010080402040810200000000000001F000E
:10394000001F0000000000020408102010080402FC
:10395000000000000E111108040400040000000023
:103960000E111915151D011E0000000004040C0A9B
:103970000A1E1233000000000F12120E1212120F54
:10398000000000001E1101010101110E00000000E5
:103990000F1212121212120F000000001F120A0E54
:1039A0000A02121F000000001F120A0E0A0202077C
:1039B000000000001C1201013911120C000000006F
:1039C0003312121E12121233000000001F040404EE
:1039D0000404041F000000003E0808080808080945
:1039E0000700000037120A060A0A1237000000001A
:1039F000070202020202223F000000001B1B1B1BE9
:103A000015151515000000003B1216161A1A12178C
:103A1000000000000E1111111111110E0000000024
:103A20000F12120E02020207000000000E11111107
:103A30001117190E180000000F12120E0A12123779
:103A4000000000001E1101060810110F0000000008
:103A50001F1504040404040E0000000033121212A7
:103A60001212120C000000003312120A0A0C040495
:103A7000000000001515150E0A0A0A0A00000000D1
:103A80001B0A0A04040A0A1B000000001B0A0A049D
:103A90000404040E000000001F0908040402121FA1
:103AA0000000001C04040404040404041C000002BC
:103AB00002020404080808100000000E08080808A4
:103AC000080808080E0000040A00000000000000BA
:103AD000000000000000000000000000003F0004A3
:103AE0000000000000000000000000000000000CCA
:103AF000121C123C000000000302020E1212120EF1
:103B0000000000000000001C1202021C0000000067
:103B10001810101C1212123C000000000000000CD3
:103B2000121E021C000000003804041E0404041EBF
:103B3000000000000000003C120C021E221C0000CD
:103B40000302020E121212370000000004000006E9
:103B50000404040E000000000800000C0808080817
:103B6000080700000302023A0A0E123700000000A4
:103B7000070404040404041F000000000000000FF8
:103B800015151515000000000000000F1212123765
:103B9000000000000000000C1212120C00000000D7
:103BA0000000000F1212120E020700000000001C9D
:103BB0001212121C103800000000001B060202073F
:103BC000000000000000001E020C101E000000009B
:103BD0000004040E04040418000000000000001B90
:103BE0001212123C0000000000000037120A0C0400
:103BF0000000000000000015150E0A0A0000000079
:103C00000000001B0A040A1B00000000000000372F
:103C1000120A0C04040300000000001E0804041E25
:103C20000000001808080804080808081800080818
:103C3000080808080808080808080006040404081A
:103C4000040404040600022518000000000000001F
:103C50000000000000000000000000000000000064
:103C600000000000000808080808080800001818EC
:103C7000000000486C24120000000000000000005A
:103C800000000000002424247F1212127F1212125E
:103C900000000000081C2A2A0A0C1828282A2A1CBE
:103CA000080800000022251515152A5854545422DE
:103CB00000000000000C1212120A76252911916EE4
:103CC00000000006060403000000000000000000E1
:103CD00000000040201010080808080808101020F4
:103CE000400000020408081010101010100808040A
:103CF00002000000000008086B1C1C6B0808000094
:103D0000000000000000080808087F0808080800F4
:103D10000000000000000000000000000000060697
:103D200004030000000000000000FE00000000008E
:103D30000000000000000000000000000000060677
:103D400000000000804040202010100808040402F9
:103D5000020000000018244242424242424224181B
:103D60000000000000080E08080808080808083EBF
:103D700000000000003C4242422020100804427E25
:103D800000000000003C4242201820404042221C1B
:103D90000000000000203028242422227E202078E9
:103DA00000000000007E0202021A26404042221C4F
:103DB0000000000000382402021A26424242241861
:103DC00000000000007E22221010080808080808E1
:103DD00000000000003C4242422418244242423C7F
:103DE0000000000000182442424264584040241C55
:103DF0000000000000000000181800000000181863
:103E000000000000000000000008000000000008A2
:103E1000080400000040201008040204081020409C
:103E200000000000000000007F0000007F00000094
:103E300000000000000204081020402010080402C6
:103E400000000000003C42424640201010001818BC
:103E500000000000001C225A555555552D42221CC9
:103E600000000000000808181414243C224242E715
:103E700000000000001F2222221E22424242221F76
:103E800000000000007C4242010101010142221CAD
:103E900000000000001F2242424242424242221FD2
:103EA00000000000003F4212121E12120242423F66
:103EB00000000000003F4212121E1212020202070E
:103EC00000000000003C2222010101712122221C7D
:103ED0000000000000E7424242427E42424242E786
:103EE00000000000003E0808080808080808083E0E
:103EF00000000000007C10101010101010101010A6
:103F0000110F0000007722120A0E0A1212222277E5
:103F10000000000000070202020202020202427FC9
:103F2000000000000077363636362A2A2A2A2A6B05
:103F30000000000000E346464A4A5252526262477D
:103F400000000000001C2241414141414141221C2E
:103F500000000000003F424242423E0202020207CD
:103F600000000000001C2241414141414D53321CE0
:103F700060000000003F4242423E1212222242C72D
:103F800000000000007C4242020418204042423EF1
:103F900000000000007F4908080808080808081CFD
:103FA0000000000000E74242424242424242423C9C
:103FB0000000000000E742422224241414180808DC
:103FC00000000000006B494949495555362222221C
:103FD0000000000000E7422424181818242442E7B7
:103FE0000000000000772222141408080808081CAA
:103FF00000000000007E2120101008040442423F0F
:1040000000000078080808080808080808080808D8
:104010007800000002020404080808101020202084
:104020004040001E10101010101010101010101032
:104030001E000038440000000000000000000000E6
:104040000000000000000000000000000000000070
:1040500000FF000608000000000000000000000053
:104060000000000000000000003C4278444242FC96
:104070000000000000030202021A26424242261AF1
:104080000000000000000000003844020202443832
:10409000000000000060404040784442424264D842
:1040A0000000000000000000003C427E0202423C92
:1040B0000000000000F08808087E08080808083E94
:1040C0000000000000000000007C22221C023C4294
:1040D000423C000000030202023A4642424242E7EA
:1040E00000000000000C0C00000E08080808083E44
:1040F0000000000000303000003820202020202068
:10410000221E0000000302020272120A1612227717
:1041100000000000000E0808080808080808083E0B
:104120000000000000000000007F9292929292B77F
:104130000000000000000000003B4642424242E70F
:104140000000000000000000003C42424242423CAD
:104150000000000000000000001B26424242221E18
:104160000207000000000000007844424242447808
:1041700040E000000000000000774C040404041F2D
:104180000000000000000000007C42023C40423E73
:104190000000000000000008083E08080808083079
:1041A000000000000000000000634242424262DC66
:1041B000000000000000000000E74224241408086A
:1041C000000000000000000000EB49495555222284
:1041D0000000000000000000007624181818246E6B
:1041E000000000000000000000E74224241418082A
:1041F0000807000000000000007E22100808447E2E
:10420000000000C02020202020102020202020207E
:10421000C0001010101010101010101010101010FE
:104220001010000608080808081008080808080800
:1042300006000C32C2000000000000000000000078
:10424000000000006442000800000020140000008C
:10425000C401000878420008140000205C9D0000A2
:10426000E001000800000000100000000100000054
:084270000024F4000000FFFF30
:040000050800018965
:00000001FF
